:100000000C945D000C9485000C9485000C94850084
:100010000C9485000C9485000C9485000C9485004C
:100020000C9485000C9485000C9485000C9485003C
:100030000C9485000C9485000C9485000C9485002C
:100040000C94A3030C9485000C9471030C944B0343
:100050000C9485000C9485000C9485000C9485000C
:100060000C9485000C94850000000008000201003B
:100070000003040700000000000000000000000072
:10008000250028002B0000000000240027002A0083
:10009000040404040404040402020202020203032E
:1000A0000303030301020408102040800102040836
:1000B0001020010204081020ED0311241FBECFEF11
:1000C000D8E0DEBFCDBF11E0A0E0B1E0ECE2FCE0A3
:1000D00002C005900D92A436B107D9F722E0A4E63C
:1000E000B1E001C01D92A632B207E1F710E0CDE504
:1000F000D0E004C02197FE010E940906CC35D1074B
:10010000C9F70E9478040C9414060C94000090E047
:10011000FC01EC55FF4F2491FC01E057FF4F849107
:10012000882399F090E0880F991FFC01EA57FF4F50
:10013000A591B491FC01E458FF4F859194918FB73C
:10014000F894EC91E22BEC938FBF0895CF92DF925D
:10015000EF92FF920F931F93CF93DF936C017A017D
:100160008B01C0E0D0E0CE15DF0589F0D8016D919C
:100170008D01D601ED91FC910190F081E02DC60139
:100180000995892B11F47E0102C02196ECCFC7019D
:10019000DF91CF911F910F91FF90EF90DF90CF9063
:1001A0000895FC01538D448D252F30E0842F90E07D
:1001B000821B930B541710F0CF9608950197089562
:1001C000FC01918D828D981761F0828DDF01A80F5F
:1001D000B11D5D968C91928D9F5F9F73928F90E081
:1001E00008958FEF9FEF0895FC01918D828D9817F0
:1001F00031F0828DE80FF11D858D90E008958FEF2D
:100200009FEF0895FC01918D228D892F90E0805CF5
:100210009F4F821B91098F739927089586E791E07C
:100220000E94020121E0892B09F420E0822F089529
:10023000FC01848DDF01A80FB11DA35ABF4F2C9183
:10024000848D90E001968F739927848FA689B78952
:100250002C93A089B1898C9180648C93938D848D2B
:10026000981306C00288F389E02D80818F7D8083FA
:100270000895EF92FF920F931F93CF93DF93EC01BA
:1002800081E0888F9B8D8C8D981305C0E889F98952
:10029000808185FD24C0F62E0B8D10E00F5F1F4F6F
:1002A0000F731127E02E8C8DE8120CC00FB607FCDF
:1002B000FACFE889F989808185FFF5CFCE010E94C8
:1002C0001801F1CF8B8DFE01E80FF11DE35AFF4FAE
:1002D000F0820B8FEA89FB898081806207C0EE89FA
:1002E000FF896083E889F98980818064808381E067
:1002F00090E0DF91CF911F910F91FF90EF900895C3
:10030000CF93DF93EC01888D8823C9F0EA89FB89BC
:10031000808185FD05C0A889B9898C9186FD0FC0B3
:100320000FB607FCF5CF808185FFF2CFA889B98988
:100330008C9185FFEDCFCE010E941801E7CFDF91B0
:10034000CF91089580E090E0892B29F00E940E0162
:1003500081110C940000089590E0FC01E859FF4FD2
:100360003491FC01EC55FF4F2491FC01E057FF4F05
:10037000E491EE2309F43BC0332339F1333091F09B
:1003800038F43130A9F0323001F584B58F7D12C0D8
:10039000373091F03830A1F03430B9F480918000DA
:1003A0008F7D03C0809180008F77809380000DC087
:1003B00084B58F7784BD09C08091B0008F7703C06A
:1003C0008091B0008F7D8093B000F0E0EE0FFF1FB2
:1003D000E458FF4FA591B4918FB7F894EC91611157
:1003E00003C020952E2301C02E2B2C938FBF089580
:1003F000DF92EF92FF920F931F93CF93DF93C82F5B
:100400008B01D42EF22E60E0809170010E94AC012D
:100410008091740190917501DC01ED91FC91019046
:10042000F081E02D6C2F09950115110561F461E053
:1004300080917001DF91CF911F910F91FF90EF900C
:10044000DF900C94AC01E02EC02FD12F8C2F8E1991
:100450008F1568F78091740190917501DC01ED9121
:10046000FC910190F081E02D68810995D11088837D
:100470002196ECCFCF93DF931F92CDB7DEB78FEFEE
:10048000898321E041E0BE016F5F7F4F87E00E94DA
:10049000F80189810F90DF91CF91089560E08091FC
:1004A0006F010C94AC010F931F93CF93DF9300D097
:1004B000CDB7DEB70EE611E0F80110820E944E02C1
:1004C000F801858183608A8321E040E0BE016E5F90
:1004D0007F4F80E20E94F80180E7898321E040E0BD
:1004E000BE016F5F7F4F87E20E94F80161E0F80173
:1004F00081810E94AC010F900F90DF91CF911F91ED
:100500000F9108953FB7F89480916A0190916B0123
:10051000A0916C01B0916D0126B5A89B05C02F3F3D
:1005200019F00196A11DB11D3FBFBA2FA92F982F19
:100530008827820F911DA11DB11DBC01CD0142E094
:10054000660F771F881F991F4A95D1F70895089560
:1005500080E090E0089560E070E0CB01089581E0D4
:10056000089580E0089580E008950F931F93CF933E
:100570008C01C62F6A3069F4DC0112968D919C9132
:100580001397DC01ED91FC910190F081E02D6DE07D
:100590000995F80182819381DC01ED91FC91019034
:1005A000F081E02D6C2FCF911F910F910994089548
:1005B000CF93CFB7F89480916401811124C0EAE908
:1005C000F0E08491EEEAF0E09491E82FF0E0EE0F95
:1005D000FF1FEA57FF4FA591B491EC91E92321F455
:1005E00061E08AE00E94AC018AE00E9487008CB53D
:1005F00080618CBD8CB580648CBD8DE00E948700CD
:100600008BE00E948700809164018F5F809364017A
:10061000CFBF8CB5837F8CBD8CB58C7F81608CBD4A
:100620008DB58E7F8DBDCF9108956EBD00000DB448
:1006300007FEFDCF8EB508950E940F066115710566
:1006400079F0FB0101900020E9F73197AF01461BDB
:10065000570BDC01ED91FC910280F381E02D0994B0
:1006600080E090E00895CF93DF93BC0186E791E0AE
:100670000E941E03EC0160E371E086E791E00E94B6
:100680001E038C0F9D1FDF91CF910895FC01828185
:1006900093810C941E031F920F920FB60F92112498
:1006A0002F933F934F935F936F937F938F939F937A
:1006B000AF93BF93EF93FF9386E791E00E941801F9
:1006C000FF91EF91BF91AF919F918F917F916F912A
:1006D0005F914F913F912F910F900FBE0F901F9000
:1006E00018951F920F920FB60F9211242F938F938C
:1006F0009F93EF93FF93E0918601F09187018081B2
:10070000E0918C01F0918D0182FD12C09081809169
:100710008F018F5F8F7320919001821751F0E091CC
:100720008F01F0E0EA58FE4F958F80938F0101C052
:100730008081FF91EF919F918F912F910F900FBE2C
:100740000F901F9018951F920F920FB60F921124C1
:100750002F933F938F939F93AF93BF9380916601A5
:1007600090916701A0916801B09169013091650194
:1007700023E0230F2D3720F40196A11DB11D05C0E4
:1007800026E8230F0296A11DB11D209365018093D9
:10079000660190936701A0936801B093690180910D
:1007A0006A0190916B01A0916C01B0916D0101966D
:1007B000A11DB11D80936A0190936B01A0936C0100
:1007C000B0936D01BF91AF919F918F913F912F9108
:1007D0000F900FBE0F901F9018950F931F93CF93FC
:1007E000DF93C6E7D1E01B821A8288EE93E0A0E097
:1007F000B0E08C839D83AE83BF8380E191E09983D9
:10080000888385EC90E09D878C8784EC90E09F87BF
:100810008E8780EC90E0998B888B81EC90E09B8BAD
:100820008A8B82EC90E09D8B8C8B86EC90E09F8B8A
:100830008E8B198E1A8E1B8E1C8EEEE6F1E088E0F0
:10084000818397E0928391E0938390E19483178270
:10085000168285830EE112E088E090E0F801918332
:10086000808389E090E0938382838BE090E095839E
:1008700084838AE090E0978386838BE00E948700E0
:10088000F80182810E948700F80180810E94870020
:10089000F80186810E94870060E0F80184810E944F
:1008A000AC0160E0F80182810E94AC0160E0F801D7
:1008B00080810E94AC0160E0F80186810E94AC0159
:1008C000E3E1F2E080E284838AE090E1968385832D
:1008D00082E0878311861086128684E291E09183FC
:1008E0008083D383C283DF91CF911F910F910895AD
:1008F000CF93DF9300D000D000D0CDB7DEB778948F
:1009000084B5826084BD84B5816084BD85B5826014
:1009100085BD85B5816085BD80916E0081608093C5
:100920006E0010928100809181008260809381002E
:10093000809181008160809381008091800081603E
:10094000809380008091B10084608093B100809199
:10095000B00081608093B00080917A0084608093C1
:100960007A0080917A00826080937A0080917A0088
:10097000816080937A0080917A00806880937A0009
:100980001092C100E0918601F091870182E080839E
:10099000E0918201F09183011082E0918401F09155
:1009A00085018FEC808310928E01E0918A01F09195
:1009B0008B0186E08083E0918801F091890180813C
:1009C00080618083E0918801F09189018081886055
:1009D0008083E0918801F091890180818068808323
:1009E000E0918801F091890180818F7D808380E092
:1009F00091E0909375018093740180916F010E9442
:100A00008700809170010E9487000E944E0261E081
:100A1000809170010E94AC018091740190917501E8
:100A2000DC01ED91FC910280F381E02D09950E949B
:100A30004E0225E040E063E371E08BE20E94F801A2
:100A400061E080916F010E94AC0184E080937201AB
:100A5000809171018E8321E040E0BE016A5F7F4F8B
:100A600085E20E94F801809172018D8321E040E0CF
:100A7000BE016B5F7F4F81E30E94F801809172019C
:100A80008C8321E040E0BE016C5F7F4F82E30E94D7
:100A9000F8010E94530220E040E060E070E082EE46
:100AA0000E94F80189E391E00E94330390E4792EDB
:100AB0000DB71EB7809172012DB73EB7281B3109C3
:100AC0000FB6F8943EBF0FBE2DBF8DB79EB70196EF
:100AD0007C0180916E01882331F00E943A0280737C
:100AE00089F00E9453020E943A0286FD13C021E061
:100AF00041E0BE016D5F7F4F87E10E94F8018B816D
:100B000080FF08C00FB6F8941EBF0FBE0DBF0E9435
:100B1000A201CECF86E491E00E94330320917201BE
:100B200041E0B70181E60E94F8017A8221E040E0CD
:100B3000BE016E5F7F4F87E20E94F80125E040E032
:100B400061E571E08AE20E94F80125E040E061E59C
:100B500071E080E30E94F8010E943A0280916E01E8
:100B6000882331F00E943A028073C1F310926E0123
:100B70000E944E0281E080936E0180917301826039
:100B8000898321E040E0BE016F5F7F4F80E20E94D9
:100B9000F80120E040E060E070E081EE0E94F801A2
:100BA0002091720140E0B70180EA0E94F80161E003
:100BB00080916F010E94AC010E944E020E9482024D
:100BC0004B015C018AE0C82ED12CE12CF12C0E9453
:100BD0008202DC01CB0188199909AA09BB09883E68
:100BE0009340A105B10558F091E0C91AD108E10878
:100BF000F108A8EE8A0EA3E09A1EA11CB11CC11434
:100C0000D104E104F10419F787E591E00E94330370
:100C100079CFEE0FFF1F0590F491E02D099481E04C
:0C0C200090E0F8940C941406F894FFCFB8
:100C2C000601000000001503D802D70200000000E6
:100C3C003901A600D10080010201E000F40004009B
:100C4C0000000000B5024603B302B102AF02AB02D2
:100C5C000D0A007365727631004C697374656E69A8
:100C6C006E672E2E2E00476F74207061636B657457
:100C7C0000636C696531005265706C792073656E28
:040C8C00742E0000C2
:00000001FF
