:102000000080002021220000092200000922000097
:1020100000000000000000000000000000000000C0
:102020000000000000000000000000000922000085
:1020300000000000000000000922000075220000DE
:1020400009220000092200000922000009220000E4
:102050000922000009220000092200000D220000D0
:102060000922000055210000092200000922000079
:102070000922000009220000652100000922000059
:1020800009220000092200000922000009220000A4
:1020900000000000092200000922000009220000BF
:1020A0000922000009220000092200000922000084
:1020B0000000000010B5064C2378002B07D1054B1B
:1020C000002B02D0044800E000BF0123237010BDA4
:1020D00000010020000000000C45000008B5084B7E
:1020E000002B03D00748084900E000BF07480368F9
:1020F000002B03D0064B002B00D0984708BDC046EC
:10210000000000000C45000004010020FC0000203D
:102110000000000008B50D20012100F03DFA08BDC7
:1021200008B500F0B5F8094B1968421A632A0CD9B2
:102130001860074B1A68002A01D1012200E0002232
:102140001A6019680D2000F081FA08BD1C010020FA
:102150002001002008B5024800F0C0FC08BDC046C0
:102160008401002008B5024800F0B8FC08BDC04654
:1021700024010020F7B5164F1649381C00F062FB09
:102180001549164800F05EFB1549164800F05AFB49
:102190001549164800F056FB1549164800F052FB49
:1021A000154D03260124281C144900F04BFB391C53
:1021B0000096231C01940022114800F06BFC00964D
:1021C000291C01941F221E230E4800F063FCF7BD5A
:1021D000E801002000080042000C0042EC01002051
:1021E00000100042F001002000140042E401002031
:1021F00000180042F4010020F8010020001C0042F9
:102200008401002024010020FEE7000008B5034BF4
:102210001B68002B00D0984708BDC046FC01002079
:1022200038B50F490F4CA14204D100F055F800F029
:10223000A1FA0BE00C4D8D42F7D00023CA18E81824
:10224000A24204D2006804331060F7E7FEE7904230
:10225000EBD0064B064A9342E7D2002204C3F9E7CB
:1022600000000020000100201045000000010020B7
:10227000FC07002008B500F02CF8002801D100F080
:102280001DF808BD014B18607047C046FC010020D6
:10229000014B18687047C0460002002070B5041E4C
:1022A00008D0054B1D681E1C00F012F833685B1B3C
:1022B000A342F9D370BDC0460002002008B5034B0D
:1022C0001A6801321A6000F083FA08BD000200208B
:1022D000704700207047000070B54C4A1E215368BB
:1022E00002208B4303434A4953608B6908242343EC
:1022F0008B61484C484B9C829C8A20439882101CDE
:10230000DA689407FCD5454A012414701478E5076F
:1023100004D5424C647864B2002CF7DB012494604D
:10232000547864B2002CFBDB3D4D3C4C6560547826
:1023300064B2002CFBDB8225384CED0165805478BB
:1023400064B2002CFBDB9C8C8025AC439C84DC6855
:10235000E606FCD5334D304CE562DD682E4CEE06CA
:10236000FBD5A58C304E3543A584DD682A4CEE069E
:10237000FBD5A58C02263543A584DC682506FCD553
:10238000254CE4686606F8D5DC68E506FCD5002433
:102390009460547864B2002CFBDB244D1F4C6560C4
:1023A00055781E4C6DB2002DFADB1E6A204D35406B
:1023B0008026760035431D621D6A8026B5431D6266
:1023C0000323A3601B4B636053785BB2002BFBDBE2
:1023D00000230B72184A4B728B72CB72174BFF2182
:1023E0001A60174B174A1B6812685C01D20E214015
:1023F00011439A06520F12020B1C1343124A138503
:10240000436880221343436070BDC04600400041D2
:10241000000400400C06000000080040000C0040D2
:1024200001050100B805FF7D040A00000007030054
:10243000FFFCFFFF03060100006CDC02000000202F
:10244000246080002060800000400042314BFA216F
:10245000186810B5890001F0CFFC2F4B0138984265
:1024600024D82E4A2E4B5060186AC0210002000A60
:102470000906014319620024072194601160196A5A
:1024800080220902090A12060A431A62254BFC211E
:102490001A6A0A431A62196AFC2292010A431A62F2
:1024A000196AA022D2020A431A6200E0FEE7201C49
:1024B0000021013400F070F8142CF8D11A4C637824
:1024C0005BB2002BFADB194B6380194B5A7ED209A1
:1024D000012AFAD0E422D2009A803F22DA70597E93
:1024E000134AC9090129FAD0C0235B0100201361F6
:1024F000907000F023F863785BB2002BFBDB0D4A91
:10250000094B5A800C4BDA79D209012AFAD04122C0
:102510005A7010BD00000020FFFFFF0010E000E037
:1025200000ED00E000040040000C00401E400000F0
:1025300000400042214000000048004200B5144A1B
:10254000517E131CC9090129F9D00138042813D878
:102550001969104A0A401A615A780F218A4301F01A
:1025600041FC030509070300012102E0032100E00B
:1025700002210A435A700AE01169F0231B050B433C
:10258000136153780F218B4302210B43537000BD1D
:1025900000400042FFFFFFF010B51824021C201C71
:1025A0005043274B1818007A40B2013046D0032917
:1025B00044D8081C211C01F015FC02331121624390
:1025C00098569A18C3011F4852681B189918403131
:1025D000022008700121914059602FE06243985613
:1025E00018499A185268C3015B189918403106209F
:1025F000087001219140596099611FE051435A567A
:10260000104859184B68D2011118C81840300624D8
:1026100004700120984048600B49521850600DE04A
:10262000624398569A18C301064852681B189918B5
:1026300040310220087001219140996010BDC046D0
:102640004440000000440041104400411823584316
:10265000134AF0B5131808241C5701341FD08256B2
:10266000104ED2015D6801249019231C8668AB408E
:102670001E420BD10E1C771EBE4140193440403023
:10268000A50004780426B4432C430470002903D128
:1026900005495218536002E0024E92199361F0BD51
:1026A00044400000004400411044004118224243CD
:1026B000F8B52D4D0824AA181457031C621C50D0DD
:1026C000481C00240C284CD801F08CFB071E1E1E51
:1026D0001E1E1E1E1E0A0A0A0A000124644240E051
:1026E000092902D1181C002103E00A2904D1181C71
:1026F0000221FFF751FF23E000240B2931D1181CE0
:102700000121FFF749FF2CE018225343EA185268D1
:10271000EB560120141C04405508DB01002C11D09D
:10272000124C1B195D1930352E780C010F213140E8
:1027300021439A18C9B22970403213781843107097
:1027400000240EE0094E0F279B195D1930352E78B5
:102750009A18BE433143C9B22970403213781843E6
:102760001070201CF8BDC0464440000000440041E9
:102770007047000010B5FFF769FE01F08DFBFFF711
:10278000F7FF0120FFF78AFD084C201C00F040FCF9
:10279000201C00F0B5FCFFF7BDFCFFF7C1FC044BAB
:1027A000002BFAD000E000BFF7E7C046B3060020D8
:1027B00000000000014B18607047C0460400002074
:1027C000024B012252421A607047C04604000020AA
:1027D000154A1368581C25D0013B1360002B21D1EA
:1027E00072B6124A124B04329A4207D8BFF34F8F87
:1027F000104A114BDA60BFF34F8F11E00F4B197D78
:10280000C807FBD5188B2021FF31920852000143E5
:102810001983DA610A4A1A801A7DD107FCD5E5E7E7
:10282000C046FDE77047C0460400002000200000BD
:10283000030200000400FA0500ED00E00040004142
:1028400002A5FFFF01607047F7B508AC2678046861
:102850009D1E27686C1EA541ECB2920705683A439D
:1028600027063A432A600268072529405068B501C7
:10287000002C00D05C03294301430C435460F7BD96
:1028800030B50368C0251C68AD0312052A402243F9
:10289000C024A402090421401143196003685A6846
:1028A00014435C6030BD036801211A680A431A6052
:1028B0000268116801231942FBD1D1691942F8D18C
:1028C0007047036802211A680A431A600268D369D4
:1028D0009907FCD4704703681A7ED10702D41A7E88
:1028E0009107FCD57047036800225A83704703683C
:1028F000187E4007C00F70470368187EC0097047F4
:1029000003688022197E52420A431A767047036890
:10291000188DC0B2704703681A7E01200242FBD0B6
:10292000198570470368224A30B5934211D0214A75
:10293000934211D0204A934211D0204A934211D0A1
:102940001F4A934211D01F4A934230D10E231922BD
:102950000DE0092314220AE00A23152207E00B23C5
:10296000162204E00C23172201E00D231822DCB20A
:10297000154901209B08A0409B0008605B180320BC
:10298000C021890004405D58E000FF248440A54335
:102990002C1CC0258540281C204358508023DB0177
:1029A0001A430A4B5A805A7852B2002AFBDB30BDD8
:1029B00000080042000C00420010004200140042D7
:1029C00000180042001C004200E100E0000C004042
:1029D000F8B5041C151C0E1C1F1CFFF7A3FF201CC0
:1029E000FFF761FFB1001C220A4069072368090C48
:1029F0000A431A60226884239375012E1AD1082194
:102A0000012D00D110210C4B79431868C00001F052
:102A1000F3F9236807219A890140D2044903D20CB3
:102A20000A439A8123680004C20C9889400B400332
:102A300010439881F8BDC046000000200120704777
:102A400008B503681322DB69984708BD10B5041C5C
:102A50000069FFF728FF201C143001F0A1F810BD19
:102A600008B50069FFF737FF08BD08B5143001F05D
:102A7000A9F808BD08B5143001F0AAF808BD08B5DA
:102A8000143001F091F808BD08B50069FFF743FF65
:102A9000012008BDF7B51D1C08AB1B78041C009372
:102AA00009AB1B78161C019300234360FA239B009B
:102AB0008360094B0F1C08330360143001F05AF88F
:102AC000009A231C5C3327619A70019A1E705D7016
:102AD000201CDA70FEBDC0466844000010B5041C1E
:102AE0000069FFF704FF002807D02069FFF70FFFF8
:102AF000011C201C143001F048F82069FFF7FCFE8F
:102B0000002805D02069FFF7FBFE2069FFF7EBFEE8
:102B100010BDF023081C184030384342584170471C
:102B2000F0231B01194080239B0099420CD0C02345
:102B30009B00994206D080235B000520994204D077
:102B4000002002E0072000E0062070470F23194014
:102B5000012905D002394B424B410220C01A00E046
:102B600000207047F0B5031C85B003915C33041C52
:102B7000182718783B1C43431B4E0821F31859565D
:102B8000151CFFF793FD231C5D331878082147437C
:102B9000F6197156FFF78AFD01210A1C039B206973
:102BA000FFF716FF291C201CFFF7BAFF291C071C82
:102BB000201CFFF7CBFF291C061C201CFFF7A9FFD8
:102BC000391C0090331C20690122FFF73DFE231CB5
:102BD0005F331978013B1A782069FFF751FE2069AD
:102BE000FFF76FFE05B0F0BD4440000070B5C2B203
:102BF00019495301CB189E68184DC0242E40A405D6
:102C000026439E60164E80010968301808325860CD
:102C10005201505C0726B0430126304350549E6950
:102C200035402C439C610F4C5C61505C7024A04388
:102C30001024204350549C680B488A18204080245C
:102C400064032043986098684021800B800398605B
:102C500053790B43537170BDBC060020FFFFFF8FFB
:102C6000D404002010030020FF3F00F038B5041CFE
:102C700008CC01211A78051C0A431A708022201CF6
:102C80000021520001F041F92B689A78D107FCD459
:102C90005C6238BD134BF0B51B6899035A029B0167
:102CA000C90ED20E5B0F1F2900D105211F2A00D1AA
:102CB0001D22072B00D1032304688E01278D0A49AA
:102CC0001F2539403143218501682A400C8DAC43D2
:102CD00022430A8502681903108D044B03400B43FD
:102CE0001385F0BD246080003FF8FFFFFF8FFFFFDA
:102CF000EFF3108303600123436072B670470368EB
:102D0000002B02D162B6BFF36F8F704737B50569EC
:102D1000041C6846002D12D1FFF7EAFF019B013B1E
:102D200003D3621DD57FEDB2F9E768460193FFF743
:102D3000E6FF0020854217D0206AE36913E0FFF721
:102D4000D7FF019B0025013B04D3221C34321578A8
:102D5000EDB2F8E768460193FFF7D1FF0020854206
:102D600002D0206BE36AC01A3EBD0000436810B574
:102D70001A68037A01215B01D318FF339A7A0A4358
:102D80009A72037A42685B01D318C2689C68910406
:102D90000B4A090922400A439A60037A42685B01A0
:102DA000D3189A684021920B92039A6043681A687C
:102DB000037A08335B01D3181A790A431A7110BDDC
:102DC000FF3F00F0F7B50569041C0E1C171C684690
:102DD000002D1FD1FFF78CFF019B013B5A1C06D031
:102DE000621DD17F5A1E00293AD0131CF6E76846AF
:102DF0000193FFF784FF0025E369BD4235D0226AC5
:102E0000934232D25A1CE261A269D3181B787355DF
:102E10000135F1E7FFF76CFF019B013B5A1C08D01D
:102E2000221C343215785A1EEDB2002D18D0131C16
:102E3000F4E768460193FFF762FF0025E36ABD42AD
:102E400026D0226B934241D322E0621D0021D1772C
:102E500030321678581E8E4214D1031C5A1CF4D1FD
:102E600068460193FFF74BFF38E0226A934235D161
:102E70000023E361012323616846FFF739FF019BCB
:102E8000013BEBE71170201C0193FFF76FFFF6E7A2
:102E9000226B934222D10023E36223616846FFF74D
:102EA00027FF019B013B5A1CDAD0221C343200213F
:102EB000117001321678581E8E4201D1031CF2E7C0
:102EC0001170201C0193FFF751FFEAE75A1CE262E0
:102ED000A26AD3181B7873550135AFE7281CFEBDD5
:102EE00037B54368027A1B68083252019A18041CED
:102EF000D0790123FF21184253D0D371A0686569AE
:102F000062680140002D20D1490152189168636127
:102F10008904890C2162A16A68465160621DD377D9
:102F2000FFF7E6FE019B013B5A1C33D0221C3432D2
:102F30001178581EC9B20132002903D00193012330
:102F4000137023E01170031CEEE74B01D3189A684D
:102F5000A5699204920C22630022626168465D605A
:102F6000FFF7C6FE019B013B01E011702B1C591CB1
:102F700010D0221C343201201070621DD17F5D1EE2
:102F8000C9B230320029F0D0019310706846FFF7C3
:102F9000B6FE06E068460193FFF7B1FE201CFFF77E
:102FA000E5FE37BD37B500236C46E3710734201CBE
:102FB0000D1C00F05DFE2B681818286000F000FF63
:102FC000211C00F0B7FE2B681818286020783EBD41
:102FD00003290BD10D4BB2221B685200985C802153
:102FE000494201439954022168220CE001290CD185
:102FF000064B92221B685200985C80214942014393
:10300000995402212822FF3299547047BC060020AF
:1030100038B5304B00240121051C1A201C70FFF725
:10302000BBFA1A200121FFF711FB2B4B19200121BC
:103030001C70FFF7B1FA19200121FFF707FB274B9E
:103040002021DA6901200A43DA61254B06241A7827
:1030500002431A70234B0F22197891431970197883
:103060002143197020490C782043087019780A40D0
:103070001A701A7860210A431A701C4B1C4A5A8035
:103080005A78D209FCD11B48FFF7FCF81A4C201CD7
:10309000FFF7ECFD201CFFF7FDFD23687F22197868
:1030A0000A401A701A7804210A431A701A890C21EE
:1030B0008A431A81C121114A890050580002000A2E
:1030C0005050802111601A7802210A431A7001239E
:1030D0002B7038BDD0040020B8060020000400404A
:1030E000584400413C44004159440041000C004018
:1030F00006400000253B0000BC06002000E100E087
:103100000078002810D0094B01211B681A898A43D6
:103110001A811A8B08210A431A831A8B04210A4345
:103120001A83034B00221A607047C046BC06002079
:10313000C00700200F4B9A69920B92039A611B689B
:103140000222FF331A7298798022524202439A7106
:103150001A7A9007FCD5084B081C997A7F221040F8
:10316000914301439972997A802252420A439A729A
:103170007047C046BC0600200050004110B50B79D6
:103180000C1C002B0BD1081C00F080FD002804D182
:10319000094B9A69920B92039A6101200BE000F0AF
:1031A0000FFE211C00F0FAFD0028F6D1024B9A69AF
:1031B000920B92039A6110BDBC060020F8B50D1C5D
:1031C000832A16D1CAB242495301CB189C6941489F
:1031D000AD012040C024A405204398613E48083238
:1031E00045195D610B685201D15C7020814340201C
:1031F00065E0022A45D1382000F0A4FC374B344F5B
:103200008026036076000023421D03620361436150
:10321000C36147608560C660D3772F32041CC362E8
:1032200003631370301C537000F05CFEA061301C0F
:1032300000F058FEFF232A1C1A405201A062BF185A
:10324000B968244A07260A40C02189050A43BA60A2
:10325000A16862681940126808314901885CAD00B4
:10326000B043032630438854A16862680B405B0179
:10327000A169D3185960201CFFF778FD184BEC505A
:1032800025E0822A1ED1CAB211495301CB189C698C
:103290001048AD012040C024A405204398610E4889
:1032A000083245195D610B68520199180C7980202C
:1032B000404220430871D15C70208143302001439B
:1032C000D15404E0002A02D1081CFFF78FFCF8BD9E
:1032D000BC060020FFFFFF8F10030020A044000069
:1032E0009406002038B5051C0124064BA200D258D4
:1032F000002A06D0211C281C0134FFF75FFFE4B22E
:10330000F3E738BD0800002008B5084B8A00D05804
:10331000002803D003689B68984706E0C9B2044BB5
:103320004901591888688004800C08BD9406002063
:10333000BC06002010B50C1CFFF7E6FF00280CD0DF
:10334000064BE1B21B680831490159184A798023BC
:103350005B4213434B710223CB7110BDBC060020AE
:1033600070B5CAB2134B1448540189015918031996
:1033700059609D681149083229408025AD022943D2
:10338000996099684026890B890399600368510107
:1033900059180D7935430D715101591889794D0628
:1033A000FAD551015918C979CD07FAD50419A06881
:1033B000C0B270BDD4040020BC060020FF3F00F066
:1033C00038B50C4B141C1B680D1CFF335A79402177
:1033D0000A435A710021FFF7C3FFA04200D9201C05
:1033E0000023A34204D0044A9A5CEA540133F8E76C
:1033F00038BDC046BC060020D404002010B5C9B2B8
:103400000C48490143189A689204920C3F2A08D943
:10341000141C9A68403CA404920BA40C920322430F
:1034200002E09A68920B92039A6041188868C0B2D1
:1034300010BDC046BC060020F0B51C1C2F4B85B04B
:103440001B68061C0D1C0292002B51D02C4F3978A2
:10345000C9B2002902D11920FFF7F8F864233B70A4
:10346000284BAA00D058002805D0036802995B6851
:10347000221C984740E0301C291CFFF745FFA04262
:1034800004D2301C291CFFF73FFF041C291C301CF0
:10349000FFF7B4FF1C4FE9B24A010191396803926A
:1034A0008B18FF335A7A01210A4318495A72AB012B
:1034B000C9180298221C00F01FFD002C1BD0301CE4
:1034C000291CFFF721FF002815D1019B3A6808331A
:1034D0005B01D31819794020014319710121D97179
:1034E00003995318FF339A7A01210A439A7202E032
:1034F0000120404200E0201C05B0F0BDC0070020C4
:10350000B806002094060020BC060020D404002049
:1035100013B56C460734221C0123FFF78DFF0128E9
:1035200001D1207801E00120404216BDF0B51C1CFD
:103530003F4B85B01B680E1C0292002B6AD0802383
:10354000DB019C4266D83B4D2978C9B2002902D1E3
:103550001A20FFF77BF8642300222B700092002CC6
:1035600056D0354DF7B22B6801933B1C0833019AB6
:103570005B01D3189B79DB091AD0304B30491868AE
:1035800000F03AFC2F4B1721584300F035FC3B1C50
:103590000833019A5B01D318DB799A0708D42A4BC8
:1035A0009A5D002A38D1421E002835D0101CEEE763
:1035B000254B00229A55251E3F2D00D93F25234A31
:1035C000B301D318181C02992A1C039300F094FC31
:1035D000194A7B01D318039AA9045A619A69890C84
:1035E000920B92030A439A613B1C019A08335B01D8
:1035F000D3180222DA715979802252420A435A7151
:10360000009B029A5B1952190093641B0292A6E771
:1036100000980BE0012008E001229A557B01ED188B
:10362000AB69101C9B0B9B03AB61404205B0F0BD26
:10363000C0070020D0040020BC06002000000020AD
:1036400040420F0070110100080300201003002009
:1036500070B50E4D1C1C8B01ED18281C0E1C111C86
:10366000221C00F049FCF6B20949760189194D6126
:103670008A69084B201C13408B618B69A2049B0B49
:10368000920C9B0313438B6170BDC0461003002056
:10369000BC060020FF3F00F0F7B5114B01901B78EE
:1036A0000F1C141C002B19D10E4B1E78002E01D1BB
:1036B000151C08E00C4D0D482E888019361900F0B5
:1036C0001BFC2E800AE0002D08D0BA192B1C019893
:1036D0000021FFF7BDFF36182D1AF4E7201CFEBDB0
:1036E000B2060020B00600200603002005020020DC
:1036F000F8B50E1C00AF151E012D28D9D31DDB080F
:10370000DB006A46D21A9546081C00F06DFC0130B9
:103710006C4640000323207063700222AA420ED23E
:103720003378002B0BD0511CC9B20136A354A942E7
:1037300004D0002302326354D2B2EFE72A1C0548BA
:10374000211CFFF7A9FF431E9841C0B200E00020F2
:10375000BD46F8BDB306002008B5044B00221A7020
:10376000034B04491A88FFF797FF08BDB0060020F5
:103770000603002005020020F0B5204A87B001238F
:103780000026009102A91370051C0296FFF70AFC9F
:1037900003AC092701903A1C201C311C00F0B5FB3A
:1037A000022363708023E371FA232372029B0122B8
:1037B000DB196380019B62712371104A009B2770A3
:1037C0001670BB4205D1281C211C1A1CFFF764FF90
:1037D00011E00B4B01221A700A4B211C3A1C281CC9
:1037E0001E800296FFF758FF281C02A9FFF7DAFB9C
:1037F000281CFFF7B1FF012007B0F0BDB206002082
:10380000B00600200603002070B5CE788AB0051CF3
:103810000C1C022E08D1C9882348FFF7ADFF031CFA
:10382000581E8341D8B23DE000F0CAFA211C00F0D6
:1038300096FA002803D0C3171B1AD80F32E0012EC6
:1038400004D1E2881949112A27D823E0032E29D16F
:10385000A278002A05D11649E2880B78934219D83C
:103860001BE0022A03D1A279281C124904E0012A94
:1038700005D1A2791049281CFFF73AFF12E0032A6C
:1038800010D100F09DFA01A900F079FAA279281C64
:1038900001A9F1E7D2B2002A00D10A78281CFFF76B
:1038A000FBFE01200AB070BDB3060020C04400003A
:1038B000BC440000D2440000B044000073B5051CB5
:1038C00048780C1C0B2878D800F08CFA081C772854
:1038D000773E4306474B686F00206FE0097801AAE6
:1038E000002903D111705170281C09E000231370C6
:1038F0005370334B1B78012B00D11370281C00210F
:1039000002234FE08A780023012A04D101AA137010
:1039100053702C4BEEE72A4A137049E08E78012E43
:1039200007D1284B01AA00211E701170281C331CDE
:1039300038E0002E08D1224A01231370224A9169EF
:10394000890B8903916138E0A178281CFFF7F2FB0D
:1039500033E0281CFFF758FF30E0281C00211B4AE9
:103960001FE00A780020D30628D1281CFFF7BAFCF4
:10397000A2781549154B02241A600A682A23FF33DE
:10398000D05C2043D0544A20FF30145C01231C43F8
:1039900014548A69920B92038A610EE00C4A281C27
:1039A00000210123FFF754FE07E08A78084B1A60D4
:1039B000054B9A69920B92039A61012076BDC0462D
:1039C00004020020B1060020BC060020C007002031
:1039D000B4060020F8B54B4B071C1C78002C00D017
:1039E0008EE0494D2868838B19070DD5201CFFF701
:1039F000FDF82B6810201A1CFF32917A0143917256
:103A0000424A146008229A832B689A8B50071FD56C
:103A100004229A833E4B1A78002A0AD01A78013A77
:103A2000D2B21A701B78002B03D11A200121FEF7A5
:103A30000DFE384B1A78002A0AD01A78013AD2B211
:103A40001A701B78002B03D119200121FEF7FEFD0F
:103A50002B68FF331A7AD10626D510221A725A79AA
:103A600040210A432C495A710A786023381C1A42B3
:103A700002D1FFF723FF01E0FFF780FB002806D00B
:103A80002B688022FF33997952420A4301E0234B8D
:103A900020229A712B68FF331A7A500604D54022EF
:103AA0001A72597A0A435A722968FE230E8C00242E
:103AB0001E40E1B2002E23D0321C012322411A42C3
:103AC00016D0221C2868083252018218D079184278
:103AD00003D1D279DA401A4207D0114BA200D05854
:103AE000002809D003681B6898470123A3409E4320
:103AF0000134092CDDD103E0381CFFF769FAF4E743
:103B0000F8BDC046B0060020BC060020C00700205B
:103B1000D0040020B8060020D4040020FF5000414B
:103B20009406002008B50248FFF754FF08BDC046C0
:103B3000B3060020014A024B1A6070470050004152
:103B4000BC06002008B500F0CDF908BDF7B58A180D
:103B5000061C0D1C01920C1C019B671B9C4207D08C
:103B6000336821781B68301C984701340028F3D152
:103B7000381CFEBD10B500214022041C00F0C5F920
:103B80000023201C2364636410BD026C10B53F2326
:103B9000541C2340446CA34201D08154036410BDE3
:103BA0000023036443647047436C026C934206D065
:103BB000C25C3F2101330B404364101C01E0012033
:103BC00040427047026C436CD01A00D540307047B9
:103BD000436C026C934201D0C05C01E00120404282
:103BE00070473F20704713B502686B46D9710733A1
:103BF0005468191C0122A04716BD08B500690221AE
:103C0000FFF782FB08BD08B500690321FFF792FBAF
:103C100008BD38B50D1C041C131C006903212A1CA7
:103C2000FFF784FC002801D10123636038BD000048
:103C300010B5054C23685A1C04D10368DB6898470B
:103C40002060031C181C10BD80000020074A08B526
:103C50001368591C04D0012149421160181C03E06B
:103C600000690221FFF754FC08BDC0468000002017
:103C700008B5037803490233037042220248FFF774
:103C80000BFD08BD3C000020B306002010B50178F4
:103C9000031C42780020A12908D1212A2FD11848DD
:103CA00018490722FFF7F8FC012028E0212926D136
:103CB000202A05D1134907221148FFF781FB04E0B0
:103CC000222A10D19A780F4BDA710E4B962219687E
:103CD000D200914210D1DC7901231C400CD1FA2092
:103CE000FEF768FD0AE0232A09D1DA789B781202F0
:103CF0001A43054B1A6002E0FEF762FD002010BD7A
:103D0000B30600203000002038000020064BFA21C6
:103D100089009960054900220831196004495A60F8
:103D200019611A767047C046C4070020E0440000BD
:103D3000B306002070B544680E1C0025002C09D085
:103D40002368201C5B68311C9847002804DB2D1871
:103D5000E468F3E7281C01E00120404270BD38B55B
:103D600044680D1C002C08D02368201C9B68291C6B
:103D70009847002802D1E468F4E7201C38BD38B524
:103D800044680D1C002C07D02368201C291CDB680C
:103D90009847E4682D18F5E72C7038BD38B54468AD
:103DA0000D1C002C08D02368201C1B68291C984778
:103DB000002803D1E468F4E7201C00E0012038BDAE
:103DC000064B0122196810B51140054805D102249F
:103DD00004700424447041601A6010BDE80700209C
:103DE000E007002002B4714649084900095C490017
:103DF0008E4402BC7047C046002934D00123002203
:103E000010B488422CD301242407A14204D2814259
:103E100002D209011B01F8E7E400A14204D2814269
:103E200002D249005B00F8E7884201D3401A1A43E6
:103E30004C08A04202D3001B5C0822438C08A0421D
:103E400002D3001B9C082243CC08A04202D3001BD3
:103E5000DC082243002803D01B0901D00909E3E74D
:103E6000101C10BC7047002801D00020C04307B4CC
:103E7000024802A14018029003BDC046190000008C
:103E80000029F0D003B5FFF7B9FF0EBC4243891AF1
:103E90001847C0467047C04670B50E4B0E4D002403
:103EA000ED1AAD101E1CAC4204D0A300F358984785
:103EB0000134F8E700F0BAF8084B094D0024ED1A78
:103EC000AD101E1CAC4204D0A300F3589847013437
:103ED000F8E770BDE8000020E8000020E8000020BE
:103EE000F800002008B5034B011C186800F016F814
:103EF00008BDC046E400002010B50023934203D063
:103F0000CC5CC4540133F9E710BD031C8218934202
:103F100002D019700133FAE77047000070B503232F
:103F2000CD1C9D430835061C0C2D01D20C2501E04B
:103F3000002D3FDB8D423DD3204B1C681A1C211CF9
:103F4000002913D00868431B0DD40B2B02D90B603A
:103F5000CC181EE08C4202D1636813601AE04868F6
:103F600060600C1C16E00C1C4968E9E7144C2068E2
:103F7000002803D1301C00F025F82060301C291CDB
:103F800000F020F8431C15D0C41C03239C4384423A
:103F90000AD12560201C0B300722231D9043C31A31
:103FA0000BD05A42E25008E0211A301C00F00AF807
:103FB0000130EED10C233360002070BDF0070020EB
:103FC000EC07002038B5074C0023051C081C2360B3
:103FD00000F012F8431C03D12368002B00D02B60A3
:103FE00038BDC046F80700200023C25C0133002A18
:103FF000FBD1581E70470000094A1368002B0CD0F3
:1040000018186946884202D81060181C7047054B82
:104010000C2201201A604042F8E7034B1360EFE7DF
:10402000F4070020F8070020FC070020F8B5C04680
:10403000F8BC08BC9E467047F8B5C046F8BC08BC42
:104040009E467047000000000B00000002000000C8
:1040500004000000FF00FFFFFFFF0B000000000056
:104060000A0000000200000004000000FF00FFFF43
:10407000FFFF0A00000000000E0000000800000022
:1040800004000000FF00FFFFFFFF0E000000000023
:1040900009000000040000001C000000FF000100F7
:1040A00001000900000000000800000004000000FA
:1040B0001C000000FF0000000000100000000000D5
:1040C0000F000000040000001C000000FF000103BE
:1040D00001030F00000000001400000005000000B4
:1040E0002C000000FF00020002000400000000009D
:1040F000150000000800000004000000FF00FFFFA2
:10410000FFFF0500000000000600000004000000A2
:104110001C000000FF00000100010600000000007C
:1041200007000000040000001C000000FF00010167
:104130000101070000000000120000000400000060
:104140001C000000FF00000300030200000000004C
:1041500010000000040000001C000000FF0000022E
:104160000002000000000000130000000500000035
:104170002C000000FF00030003000300000000000B
:1041800011000000040000001C000000FF000102FC
:104190000102010000000000020000000100000018
:1041A000020000000000FFFFFFFF0200010000000E
:1041B00008000000010000001800000002000004D8
:1041C00000040800010000000900000001000000D8
:1041D00018000000030001040104090000000000B1
:1041E0000400000001000000000000000400FFFFC8
:1041F000FFFF0400000000000500000001000000B7
:10420000000000000500FFFFFFFF050001000000A7
:104210000200000001000000000000000A00FFFF93
:10422000FFFF020000000000160000000200000076
:1042300004000000FF00FFFFFFFF06000000000079
:10424000170000000200000004000000FF00FFFF54
:10425000FFFF0700000000000C000000030000004A
:1042600004000000FF00FFFFFFFF0C000100000042
:104270000A0000000300000004000000FF00FFFF30
:10428000FFFF0A00010000000B0000000300000017
:1042900004000000FF00FFFFFFFF0B000100000013
:1042A000030000000B00000004000000FF00FFFFFF
:1042B000FFFFFF00000000001B0000000B000000DB
:1042C00004000000FF00FFFFFFFFFF0000000000F0
:1042D0001C0000000600000000000000FF00FFFFBF
:1042E000FFFFFF00000000001800000006000000B3
:1042F00000000000FF00FFFFFFFFFF0000000000C4
:10430000190000000600000000000000FF00FFFF91
:10431000FFFFFF0001000000160000000300000086
:1043200000000000FF00FFFFFFFFFF000100000092
:10433000170000000300000000000000FF00FFFF66
:10434000FFFFFF0000000000160000000200000058
:1043500000000000FF00FFFFFFFFFF000000000063
:10436000170000000200000000000000FF00FFFF37
:10437000FFFFFF000000000013000000020000002B
:1043800000000000FF00FFFFFFFFFF000000000033
:10439000100000000200000000000000FF00FFFF0E
:1043A000FFFFFF00000000001200000002000000FC
:1043B00000000000FF00FFFFFFFFFF000000000003
:1043C000110000000200000000000000FF00FFFFDD
:1043D000FFFFFF00000000000D00000004000000CF
:1043E0000C000000FF000100FFFF0D0000000000B6
:1043F00015000000050000000C000000FF00030095
:10440000FFFFFF00000000000600000004000000A5
:104410000C000000FF000001FFFFFF000000000093
:1044200007000000040000000C000000FF00010174
:10443000FFFFFF000000000003000000010000007B
:1044400002000000FF00FFFFFFFFFF000000000070
:104450000200000001000000020000001400FFFF45
:10446000FFFF02000000000000000000000000004C
:10447000892A00004D3B00006B2A00007F2A0000C3
:10448000752A0000612A0000412A0000652B000007
:104490004D2A00003D2A000000000000000000003E
:1044A000E12E0000C52D00000D2D000000000000D1
:1044B00041726475696E6F204C4C4300040309041B
:1044C00012010002EF02014041234D800001010270
:1044D000030141726475696E6F205A65726F000046
:1044E0000000000000000000E73B0000133C00005B
:1044F000FB3B00004D3C0000313C0000073C00004D
:10450000E33B00000000000043000000000000004A
:1045100040420F00FFFFFFFF00000000830000008B
:104520000200000082000000000000000000000007
:10453000000000000000000000000000000000007B
:1045400000C2010000000800FFFFFFFF080B00028F
:10455000020200000904000001020200000524001C
:1045600010010424020605240600010524010101AE
:104570000705810310001009040100020A00000071
:10458000070502024000000705830240000000000A
:10459000FFFFFFFF0000000000000000000000001F
:1045A000000000000000000000000000000000000B
:1045B00000000000084500000000000000000000AE
:1045C00000000000000000000000000000000000EB
:1045D00000000000000000000000000000000000DB
:1045E00000000000000000000000000000000000CB
:1045F0000000000084000020DD2000007521000084
:10460000353B00000D3D0000B5200000000000001B
:0400000300002221B6
:00000001FF
