:100000000C946B000C9493000C9493000C9493004C
:100010000C9493000C9493000C9493000C94930014
:100020000C9493000C9493000C9493000C94A408EB
:100030000C9493000C9493000C9493000C949300F4
:100040000C94980A0C9493000C94D90D0C940B0EFC
:100050000C9493000C9493000C9493000C949300D4
:100060000C9493000C949300496E76616C69642043
:10007000656E747279000000000800020100000340
:100080000407000000000000000001020408102026
:10009000408001020408102001020408102004041A
:1000A0000404040404040202020202020303030320
:1000B00003030000000023002600290000000000C8
:1000C000250028002B0000000000240027002A0043
:1000D000710712083B0E11241FBECFEFD8E0DEBF20
:1000E000CDBF13E0A0E0B1E0EAE3F2E202C0059088
:1000F0000D92A634B107D9F724E0A6E4B3E001C01D
:100100001D92A536B207E1F710E0C6EDD0E004C0BD
:100110002297FE010E94EA10C03DD107C9F70E9454
:100120007F0E0C941B110C940000CF92DF92EF9283
:10013000FF920F931F93CF93DF93EC010E94E20A8B
:100140002A853B8521303105D9F40C851D852E8506
:100150003F856B017C01C01AD10AE20AF30A0A81C9
:100160001B812C813D81C016D106E206F30688F181
:100170001B861A866C877D878E879F8760E01EC0EE
:10018000232B39F50C851D852E853F856B017C0160
:10019000C01AD10AE20AF30A0E811F812885398527
:1001A000C016D106E206F306A0F021E030E03B875E
:1001B0002A876C877D878E879F8761E08881DF91A2
:1001C000CF911F910F91FF90EF90DF90CF900C9403
:1001D000350CDF91CF911F910F91FF90EF90DF9041
:1001E000CF900895809188038823A9F180916E03B0
:1001F00090916F03A0917003B091710340917603C9
:10020000509177036091780370917903841B950B6B
:10021000A60BB70B40912A0150912B0160912C0144
:1002200070912D0184179507A607B707A0F060E02D
:100230008FE00E94350C60E080E10E94350C109246
:10024000880360E088E00E94350C6EE271E088EC83
:1002500093E00C94100F0895809186038823A9F1F0
:1002600080916E0390916F03A0917003B091710320
:100270004091720350917303609174037091750300
:10028000841B950BA60BB70B4091260150912701BB
:10029000609128017091290184179507A607B70777
:1002A000A0F060E08FE00E94350C60E080E10E94E9
:1002B000350C1092860361E085E00E94350C6CE3FA
:1002C00071E088EC93E00C94100F089580918E03F8
:1002D00090918F038130910591F58091820388235D
:1002E00009F444C080916E0390916F03A091700354
:1002F000B091710340917603509177036091780338
:1003000070917903841B950BA60BB70B40912201CA
:100310005091230160912401709125018417950764
:10032000A607B70718F161E080E10E94350C109232
:10033000820369E471E088EC93E00C94100F02975B
:10034000A9F480918203882389F080916E039091B3
:100350006F03A0917003B0917103409172035091AB
:1003600073036091740370917503CCCF08958091ED
:100370008C0390918D038330910581F580918103E9
:10038000882309F49CC080916E0390916F03A09123
:100390007003B091710340916A0350916B036091B7
:1003A0006C0370916D03841B950BA60BB70B4091EA
:1003B0008A0350918B03662757FD6095762F84172B
:1003C0009507A607B70708F47AC060E081E10E94AC
:1003D000350C1092810364E571E06DC084309105A5
:1003E00081F580918103882309F469C080916E03AF
:1003F00090916F03A0917003B091710340916A03D3
:1004000050916B0360916C0370916D03841B950B8D
:10041000A60BB70B40918A0350918B03662757FDBB
:100420006095762F84179507A607B70708F447C08D
:1004300060E081E10E94350C60E082E10E94350CB1
:1004400036C00597E1F5809181038823C1F1809141
:100450006E0390916F03A0917003B091710340916E
:100460006A0350916B0360916C0370916D03841B60
:10047000950BA60BB70B40918A0350918B0366270F
:1004800057FD6095762F84179507A607B707B8F034
:1004900060E082E10E94350C8FEF90E090937B0347
:1004A00080937A0381E080937F038093800310928E
:1004B000810360E671E088EC93E00C94100F0895DE
:1004C00080918003882309F458C080917E0388239B
:1004D00041F160917A0370917B0386E00E94740B76
:1004E0006091040170910501882777FD8095982F10
:1004F0000E94110B80917A0390917B030196909357
:100500007B0380937A038F3F91055CF06FEF70E07F
:1005100086E00E94740B1092800310927E0310926A
:100520007F0380917F03882341F160917A0370916A
:100530007B0386E00E94740B6091040170910501B9
:10054000882777FD8095982F0E94110B80917A0360
:1005500090917B03019790937B0380937A03181605
:1005600019065CF060E070E086E00E94740B109267
:10057000800310927F0310927E0308950F931F93C0
:1005800087E00E946B0C892B29F4809188038823D3
:1005900009F4F9C01092890387E00E946B0C892B43
:1005A00031F08AE00E946B0C892B31F043C08091BE
:1005B0008803811112C1F5CF8091870381113CC05E
:1005C00060910C0170910D0180E993E00E94330A63
:1005D00060910A0170910B0180E090E00E94110B84
:1005E00060917C0370917D0380E993E00E94330A5F
:1005F00021E0209387032093860382E090E090938C
:100600008F0380938E03209382036BE771E088EC65
:1006100093E00E94100F61E08FE00E94350C0E9471
:10062000E20A609372037093730380937403909350
:10063000750302C01092870382E00E946B0C892B25
:1006400061F58091850381112AC021E02093850303
:1006500083E090E090938D0380938C03809116014A
:100660009091170190938B0380938A0320938103C9
:1006700061E081E10E94350C64E871E088EC93E070
:100680000E94100F0E94E20A60936A0370936B034A
:1006900080936C0390936D0302C01092850383E0F6
:1006A0000E946B0C892B81F58091840381112EC0EF
:1006B00021E02093840384E090E090938D03809365
:1006C0008C03809112019091130190938B0380937E
:1006D0008A032093810361E081E10E94350C61E08F
:1006E00082E10E94350C6BE871E088EC93E00E9497
:1006F000100F0E94E20A60936A0370936B03809369
:100700006C0390936D0302C01092840384E00E94F6
:100710006B0C892BA9F5809183038111A3C011E093
:100720001093830385E090E090938D0380938C0376
:1007300080910E0190910F0190938B0380938A0317
:100740001093810361E082E10E94350C10927B03DB
:1007500010927A0310937E03109380030E94E20AA2
:1007600060936A0370936B0380936C0390936D03A3
:1007700062E971E088EC93E01F910F910C94100FE7
:10078000109283036FC080918903811105CF21E00E
:10079000209389032093880381E090E090938F0356
:1007A00080938E03209382036EE671E088EC93E0E1
:1007B0000E94100F0E94E20A609376037093770301
:1007C000809378039093790361E08FE00E94350C69
:1007D00061E088E00E94350CDFCE0E94E20A60935F
:1007E0006E0370936F038093700390937103209155
:1007F0008803222309F4D5CE009176031091770364
:100800002091780330917903AB01BC01401B510B5F
:10081000620B730B80911A0190911B01A0911C0136
:10082000B0911D01481759076A077B0708F4B9CE34
:1008300060E08FE00E94350C60E080E10E94350CA2
:100840001092880360E088E00E94350C6EE271E04F
:1008500088EC93E00E94100F87E00E946B0C892BBC
:10086000D9F39FCE1F910F91089566E971E088EC4E
:1008700093E00E94F10E83E993E00E9420086093C8
:100880006603709367038093680390936903809174
:1008900093038823A9F065EA71E088EC93E00E9455
:1008A000F10E409166035091670360916803709167
:1008B00069032AE030E088EC93E00E94DD0F06C077
:1008C00063EB71E088EC93E00E94100F8091660367
:1008D000909167030895CF92DF92EF92FF926FECB1
:1008E00071E088EC93E00E94F10E60912A01709112
:1008F0002B0180912C0190912D0128EEC22E23E036
:10090000D22EE12CF12CA70196010E949C10BA0175
:10091000A9012AE030E088EC93E00E94121065EE15
:1009200071E088EC93E00E94F10E609126017091D5
:1009300027018091280190912901A70196010E9429
:100940009C10BA01A9012AE030E088EC93E00E94F3
:1009500012106BEF71E088EC93E00E94F10E609151
:100960002201709123018091240190912501A7011A
:1009700096010E949C10BA01A9012AE030E088EC9F
:1009800093E00E94121061E172E088EC93E00E9413
:10099000F10E60911E0170911F01809120019091D4
:1009A0002101A70196010E949C10BA01A9012AE029
:1009B00030E088EC93E00E9412106FE272E088EC65
:1009C00093E00E94F10E60911A0170911B018091D9
:1009D0001C0190911D01A70196010E949C10BA0173
:1009E000A9012AE030E088EC93E00E9412106DE447
:1009F00072E088EC93E00E94F10E60911601709114
:100A000017018091180190911901A70196010E9488
:100A10009C10BA01A9012AE030E088EC93E00E9422
:100A2000121061E672E088EC93E00E94F10E609192
:100A30001201709113018091140190911501A70189
:100A400096010E949C10BA01A9012AE030E088ECCE
:100A500093E00E94121065E772E088EC93E00E9438
:100A6000F10E60910E0170910F0180911001909133
:100A70001101A70196010E949C10BA01A9012AE068
:100A800030E088EC93E00E94121069E872E088EC94
:100A900093E00E94F10E60917C0370917D034AE027
:100AA00050E088EC93E00E94C50F6DE972E088EC9D
:100AB00093E00E94F10E60910C0170910D014AE0EB
:100AC00050E088EC93E00E94C50F61EB72E088EC87
:100AD00093E00E94F10E80910A0190910B0168EE63
:100AE00073E00E9488104AE050E088EC93E00E9496
:100AF000FC0F65EC72E088EC93E00E94F10E6091CF
:100B00000801709109014AE050E088EC93E00E94EE
:100B1000C50F69ED72E088EC93E00E94F10E6091E0
:100B20000601709107014AE050E088EC93E00E94D2
:100B3000C50F6DEE72E088EC93E00E94F10E6091BB
:100B40000401709105014AE050E088EC93E00E94B6
:100B5000C50F88EC93E0FF90EF90DF90CF900C945E
:100B6000FA0E61E073E088EC93E00E94100F6FECE6
:100B700071E088EC93E00E94F10E2AE030E04CE254
:100B800051E060E070E088EC93E00E94121065EEA6
:100B900071E088EC93E00E94F10E2AE030E044EB33
:100BA00050E060E070E088EC93E00E9412106BEF80
:100BB00071E088EC93E00E94F10E2AE030E042E020
:100BC00050E060E070E088EC93E00E94121061E178
:100BD00072E088EC93E00E94F10E2AE030E04CE3F2
:100BE00050E060E070E088EC93E00E9412106FE249
:100BF00072E088EC93E00E94F10E2AE030E042E0DF
:100C000050E060E070E088EC93E00E9412106DE428
:100C100072E088EC93E00E94F10E2AE030E04EE1B1
:100C200050E060E070E088EC93E00E94121061E612
:100C300072E088EC93E00E94F10E2AE030E04AE096
:100C400050E060E070E088EC93E00E94121065E7ED
:100C500072E088EC93E00E94F10E2AE030E04AE571
:100C600050E060E070E088EC93E00E94121069E8C8
:100C700072E088EC93E00E94F10E4AE050E060E000
:100C800070E088EC93E00E94C50F6DE972E088EC9B
:100C900093E00E94F10E4AE050E06EE170E088ECD3
:100CA00093E00E94C50F61EB72E088EC93E00E9434
:100CB000F10E4AE050E061E070E088EC93E00E94C1
:100CC000FC0F65EC72E088EC93E00E94F10E4AE0C4
:100CD00050E068EC70E088EC93E00E94C50F69ED8D
:100CE00072E088EC93E00E94F10E4AE050E068EC7C
:100CF00070E088EC93E00E94C50F6DEE72E088EC26
:100D000093E00E94F10E4AE050E064E170E088EC6C
:100D100093E00E94C50F88EC93E00C94FA0ECF93F9
:100D2000DF93C0E0D0E060E0CE010E940D1121967B
:100D3000C11582E0D807B9F7DF91CF91089563E03C
:100D400080E090E00C940D1126E040E855E260E070
:100D500070E088EC93E00E94770D61E08FE00E94E4
:100D6000FC0B61E080E10E94FC0B61E081E10E94EC
:100D7000FC0B61E082E10E94FC0B61E088E00E94D4
:100D8000FC0B61E085E00E94FC0B61E085E00E94C5
:100D9000350C60E087E00E94FC0B60E08AE00E9476
:100DA000FC0B61E087E00E94350C61E08AE00E9464
:100DB000350C60E082E00E94FC0B60E083E00E9462
:100DC000FC0B60E084E00E94FC0B61E082E00E948A
:100DD000350C61E083E00E94350C61E084E00E9404
:100DE000350C61E086E00E94FC0B60E086E00E942A
:100DF000350C69E070E080E993E00E94FA096091A7
:100E00007C0370917D0380E993E00E94330A80E0C7
:100E100090E00E9405118F3F21F40E948F060E94EE
:100E20009F066AE173E088EC93E00C94100F0F9337
:100E30001F930E94BE020E94E20A60936E037093A9
:100E40006F0380937003909371030E94F2000E94DD
:100E50002C010E9466010E94B7010E9460028091ED
:100E60008803882389F140916E0350916F0360914C
:100E70007003709171038091760390917703A09134
:100E80007803B0917903481B590B6A0B7B0B809157
:100E90002A0190912B01A0912C01B0912D0100917C
:100EA0001E0110911F012091200130912101801B12
:100EB000910BA20BB30B481759076A077B0720F069
:100EC00086E593E00E94950080918603882331F0A7
:100ED00086E493E01F910F910C9495001F910F9160
:100EE0000895CF92DF92EF92FF9280E993E00E9403
:100EF0006009C0900801D0900901EE24D7FCE0946D
:100F0000FE2C88E090E0909357038093560361E0B5
:100F10000E94FC0BC0925803D0925903E0925A03EE
:100F2000F0925B03C0925C03D0925D03E0925E039B
:100F3000F0925F03109261031092600310926203BB
:100F4000109263031092640310926503C09008012D
:100F5000D0900901EE24D7FCE094FE2C85E090E0CF
:100F6000909347038093460361E00E94FC0BC0927C
:100F70004803D0924903E0924A03F0924B03C09297
:100F80004C03D0924D03E0924E03F0924F03109227
:100F90005103109250031092520310925303109277
:100FA000540310925503FF90EF90DF90CF90089577
:100FB000CF9388EC93E00E94AD0C0E94FD10C82FE7
:100FC0006AE070E080E090E00E94110B88EC93E012
:100FD0000E94AD0C97FFF4CFC93619F4CF910C9451
:100FE0006B04C53719F4CF910C94B105C337C1F028
:100FF0008FE98C0F883050F40E9435044AE050E0AD
:10100000BC0188EC93E0CF910C94C50FCA56C63052
:1010100098F368E670E088EC93E0CF910C94FE0EB4
:10102000CF91089510929303109294031092950318
:10103000109296031092970381E08093980308958D
:101040008F929F92BF92CF92DF92EF92FF920F9377
:101050001F93CF93DF9300D000D0CDB7DEB74C0104
:10106000FC01108200E020E030E0A901BB24B39431
:1010700088EC93E029833A834B835C830E94940C31
:1010800029813A814B815C81892B91F388EC93E033
:101090000E94AD0C182FF401858129813A814B8182
:1010A0005C81882349F0612F88EC93E00E94F30E65
:1010B0005C814B813A81298180ED810F8A30B0F4C7
:1010C000AAE0B0E00E94DD109B01AC01C12EDD243E
:1010D000C7FCD094ED2CFD2C2C0D3D1D4E1D5F1D2D
:1010E0002053310941095109F401B0821D3231F414
:1010F000F40180818111BCCF01E0BACF1D3009F02D
:10110000B7CF002339F050954095309521953F4F4A
:101110004F4F5F4FF4018081811104C021813281E2
:1011200043815481CA01B9010F900F900F900F9025
:10113000DF91CF911F910F91FF90EF90DF90CF90B3
:10114000BF909F908F9008951F920F920FB60F92AD
:1011500011242F933F934F935F936F937F938F93BC
:101160009F93AF93BF93EF93FF9380919A0387FF71
:1011700005C010928500109284001AC020919A0335
:10118000332727FD30958091990390E02817390780
:101190007CF480919A03992787FD9095FC01EE0FCE
:1011A000FF1FE80FF91FE556FC4F808186FD15C033
:1011B00080919A038F5F80939A0320919A0333273B
:1011C00027FD30958091990390E028173907BCF4EA
:1011D00080919A038C305CF112C080919A03992718
:1011E00087FD9095FC01EE0FFF1FE80FF91FE556F4
:1011F000FC4F808160E08F730E94350CD9CF8091C5
:10120000840090918500049680349C4918F480E411
:101210009CE905C08091840090918500049690938C
:101220008900809388008FEF80939A0338C02091C3
:1012300084003091850080919A03992787FD9095CD
:10124000FC01EE0FFF1FE80FF91FE556FC4F8181EF
:101250009281820F931F90938900809388008091E0
:101260009A03992787FD9095FC01EE0FFF1FE80F69
:10127000F91FE556FC4F808186FF11C080919A03CB
:10128000992787FD9095FC01EE0FFF1FE80FF91FCE
:10129000E556FC4F808161E08F730E94350CFF9111
:1012A000EF91BF91AF919F918F917F916F915F91DE
:1012B0004F913F912F910F900FBE0F901F90189557
:1012C000209199032C30A0F431E0320F3093990330
:1012D000FC012083822F90E0FC01EE0FFF1FE80F3E
:1012E000F91FE556FC4F88EB9BE0928381830895BC
:1012F0002FEFFC0120830895DF92EF92FF920F936E
:101300001F93CF93DF93EC01D62E7A018901888158
:101310008C3008F066C061E08D2D0E94FC0B888146
:10132000A82FB0E0FD01EE0FFF1FEA0FFB1FE556EF
:10133000FC4F2D2D2F739081907C922B908360E237
:1013400072E06E197F0977FF02C06D5F7F4F759560
:10135000679575956795698340E659E0401B510B89
:1013600057FF02C04D5F5F4F55954795559547957F
:101370004A836CE00E947C109CE0899FB00111249C
:1013800020E030E0A901460F571FFA01EE0FFF1FC2
:10139000E40FF51FE556FC4F908196FD16C02F5FB8
:1013A0003F4F2C30310571F781110FC01092800032
:1013B00082E0809381001092850010928400B19A9F
:1013C00080916F00826080936F00888190E0FC01C3
:1013D000EE0FFF1FE80FF91FE556FC4F8081806478
:1013E00080838881DF91CF911F910F91FF90EF90C3
:1013F000DF90089520E639E040E252E00C947C0949
:10140000FC0180818C3070F5918128E830E0291B47
:10141000310997FD3395220F331F220F331F6217B7
:1014200073077CF0928128E532E0291B310997FD92
:101430003395220F331F220F331F621773070CF4EB
:101440009B0122503109220F331F4FB7F89490E0CF
:10145000FC01EE0FFF1FE80FF91FE556FC4F32832A
:1014600021834FBF08954F925F926F927F92AF9208
:10147000BF92CF92DF92EF92FF920F931F93CF9381
:10148000DF93EC01603282E078070CF040C077FD1A
:1014900006C0653B71052CF064EB70E002C060E0B3
:1014A00070E0898128E830E0281B310987FD3395F9
:1014B000220F331F220F331F5901CC24B7FCC094D5
:1014C000DC2C882777FD8095982F2A8148E552E00B
:1014D000421B510927FD5395440F551F440F551FBB
:1014E0002A01662457FC6094762C7F926F925F925B
:1014F0004F9214EBE12EF12C00E010E020E030E000
:10150000A9010E9424100F900F900F900F90CE0110
:10151000DF91CF911F910F91FF90EF90DF90CF90CF
:10152000BF90AF907F906F905F904F900C94000AA7
:101530001F920F920FB60F9211242F933F938F9308
:101540009F93AF93BF938091C0039091C103A091EB
:10155000C203B091C3033091BF0323E0230F2D37A3
:1015600020F40196A11DB11D05C026E8230F0296A7
:10157000A11DB11D2093BF038093C0039093C103AD
:10158000A093C203B093C3038091C4039091C50399
:10159000A091C603B091C7030196A11DB11D809310
:1015A000C4039093C503A093C603B093C703BF9130
:1015B000AF919F918F913F912F910F900FBE0F9000
:1015C0001F9018952FB7F8946091C0037091C103D4
:1015D0008091C2039091C3032FBF08953FB7F89441
:1015E0008091C4039091C503A091C603B091C70335
:1015F00026B5A89B05C02F3F19F00196A11DB11D6E
:101600003FBF6627782F892F9A2F620F711D811D8A
:10161000911D42E0660F771F881F991F4A95D1F7E9
:101620000895CF92DF92EF92FF92CF93DF936B01F9
:101630007C010E94EE0AEB01C114D104E104F10423
:1016400089F00E946B100E94EE0A6C1B7D0B683EB5
:10165000734090F381E0C81AD108E108F108C8513D
:10166000DC4FEACFDF91CF91FF90EF90DF90CF90EA
:101670000895789484B5826084BD84B5816084BD0A
:1016800085B5826085BD85B5816085BDEEE6F0E0FB
:10169000808181608083E1E8F0E010828081826057
:1016A0008083808181608083E0E8F0E080818160D8
:1016B0008083E1EBF0E0808184608083E0EBF0E008
:1016C000808181608083EAE7F0E0808184608083AC
:1016D0008081826080838081816080838081806856
:1016E00080831092C10008951F93CF93DF93182F2A
:1016F000EB0161E00E94FC0B209711F460E004C054
:10170000CF3FD10539F461E0812FDF91CF911F9157
:101710000C94350CE12FF0E0EA58FF4FE491E330F0
:10172000F9F048F4E130B9F0E230A1F584B5806217
:1017300084BDC8BD34C0E730E9F0E83019F1E430C9
:1017400049F580918000806280938000D0938B0067
:10175000C0938A0024C084B5806884BDC7BD1FC003
:1017600080918000806880938000D0938900C0932E
:10177000880015C08091B00080688093B000C0934D
:10178000B3000DC08091B00080628093B000C09320
:10179000B40005C0C038D1050CF0B5CFAFCFDF9194
:1017A000CF911F910895833081F028F4813099F012
:1017B0008230A1F008958730A9F08830B9F08430E4
:1017C000D1F4809180008F7D03C0809180008F775D
:1017D00080938000089584B58F7702C084B58F7D93
:1017E00084BD08958091B0008F7703C08091B000D0
:1017F0008F7D8093B0000895CF93DF9390E0FC013C
:10180000E657FF4F2491FC01E256FF4F8491882355
:1018100049F190E0880F991FFC01EA53FF4FA59111
:10182000B49184549F4FFC01C591D4919FB761112D
:1018300008C0F8948C91209582238C938881822310
:101840000AC0623051F4F8948C91322F3095832382
:101850008C938881822B888304C0F8948C91822B8E
:101860008C939FBFDF91CF9108950F931F93CF93D8
:10187000DF931F92CDB7DEB7282F30E0F901EA5889
:10188000FF4F8491F901E657FF4F1491F901E25699
:10189000FF4F04910023C9F0882321F069830E943F
:1018A000D30B6981E02FF0E0EE0FFF1FE454FF4FF0
:1018B000A591B4919FB7F8948C91611103C01095D4
:1018C000812301C0812B8C939FBF0F90DF91CF911B
:1018D0001F910F910895CF93DF93282F30E0F901E6
:1018E000EA58FF4F8491F901E657FF4FD491F9016F
:1018F000E256FF4FC491CC2391F081110E94D30B8B
:10190000EC2FF0E0EE0FFF1FEE54FF4FA591B491C6
:101910002C912D2381E090E021F480E002C080E052
:1019200090E0DF91CF910895FC01818D228D90E0B0
:10193000805C9F4F821B91098F7399270895FC014A
:10194000918D828D981731F0828DE80FF11D858D74
:1019500090E008958FEF9FEF0895FC01918D828DA7
:10196000981761F0828DDF01A80FB11D5D968C91F3
:10197000928D9F5F9F73928F90E008958FEF9FEFFE
:10198000089581E39EE0892B49F088ED97E0892B4B
:1019900029F00E94310E81110C94D8070895FC01A2
:1019A000848DDF01A80FB11DA35ABF4F2C91848DE8
:1019B00090E001968F739927848FA689B7892C931D
:1019C000A089B1898C9180648C93938D848D9813B8
:1019D00006C00288F389E02D80818F7D8083089581
:1019E000CF93DF93EC01888D8823C9F0EA89FB89C6
:1019F000808185FD05C0A889B9898C9186FD0FC0BD
:101A00000FB607FCF5CF808185FFF2CFA889B98991
:101A10008C9185FFEDCFCE010E94CF0CE7CFDF91F7
:101A2000CF910895CF92DF92FF920F931F93CF93A0
:101A3000DF931F92CDB7DEB76C0181E0D6015896D7
:101A40008C9358975B969C915B975C968C915C9776
:101A5000981307C05096ED91FC915197808185FDB8
:101A60002EC0F601038D10E00F5F1F4F0F7311277B
:101A7000F02EF601848DF81211C00FB607FCF9CFD5
:101A8000D6015096ED91FC915197808185FFF1CF61
:101A9000C60169830E94CF0C6981EBCF838DE80F6B
:101AA000F11DE35AFF4F6083D6015B960C935B9761
:101AB0005296ED91FC915397808180620CC0D601C3
:101AC0005696ED91FC91579760835096ED91FC915D
:101AD000519780818064808381E090E00F90DF9156
:101AE000CF911F910F91FF90DF90CF900895BF92FB
:101AF000CF92DF92EF92FF92CF93DF93EC016A01D6
:101B00007B01B22EE889F98982E08083411581EE5C
:101B1000580761057105A1F060E079E08DE390E080
:101B2000A70196010E949C102150310941095109D9
:101B30005695479537952795211580E1380798F0F8
:101B4000E889F989108260E874E88EE190E0A701E5
:101B500096010E949C102150310941095109569566
:101B6000479537952795EC85FD853083EE85FF8574
:101B70002083188EEC89FD89B082EA89FB898081F7
:101B800080618083EA89FB89808188608083EA891B
:101B9000FB89808180688083EA89FB8980818F7DD1
:101BA0008083DF91CF91FF90EF90DF90CF90BF9037
:101BB00008951F920F920FB60F9211242F938F93B7
:101BC0009F93EF93FF93E091D803F091D903808125
:101BD000E091DE03F091DF0382FD12C090818091DD
:101BE000E1038F5F8F732091E203821751F0E09140
:101BF000E103F0E0E853FC4F958F8093E10301C0CF
:101C00008081FF91EF919F918F912F910F900FBE47
:101C10000F901F9018951F920F920FB60F921124DC
:101C20002F933F934F935F936F937F938F939F93E4
:101C3000AF93BF93EF93FF9388EC93E00E94CF0C98
:101C4000FF91EF91BF91AF919F918F917F916F9194
:101C50005F914F913F912F910F900FBE0F901F906A
:101C6000189588EC93E00E94940C21E0892B09F4EC
:101C700020E0822F08951092CB031092CA0388EEC1
:101C800093E0A0E0B0E08093CC039093CD03A093C9
:101C9000CE03B093CF0388E293E09093C90380937F
:101CA000C80385EC90E09093D5038093D40384EC33
:101CB00090E09093D7038093D60380EC90E09093CC
:101CC000D9038093D80381EC90E09093DB03809359
:101CD000DA0382EC90E09093DD038093DC0386ECE2
:101CE00090E09093DF038093DE031092E103109263
:101CF000E2031092E3031092E403089508950E9412
:101D0000390B0E947E0E0E94A406C1ECDCE00E940A
:101D100017072097E1F30E94C10CF9CFCF92DF9211
:101D2000EF92FF920F931F93CF93DF936C017A0191
:101D3000EB01E60EF71E00E010E0CE15DF0561F0C6
:101D40006991D601ED91FC910190F081E02DC601E1
:101D50000995080F191FF1CFC801DF91CF911F918D
:101D60000F91FF90EF90DF90CF900895611571056E
:101D700081F0DB010D900020E9F7AD0141505109E0
:101D8000461B570BDC01ED91FC910280F381E02DA5
:101D9000099480E090E00895EF92FF920F931F93D3
:101DA000CF93DF938C01FB01C0E0D0E064917F0111
:101DB0008FEFE81AF80A662361F0D801ED91FC91E3
:101DC0000190F081E02DC8010995C80FD91FF701D6
:101DD000EDCFCE01DF91CF911F910F91FF90EF904A
:101DE00008950C94B60EDC01ED91FC910190F08108
:101DF000E02D099464E373E00C94B60E0F931F93E7
:101E0000CF93DF93EC010E94CC0E8C01CE010E9497
:101E1000FA0E800F911FDF91CF911F910F910895BE
:101E20000F931F93CF93DF93EC010E94B60E8C01AA
:101E3000CE010E94FA0E800F911FDF91CF911F916A
:101E40000F9108958F929F92AF92BF92CF92DF929F
:101E5000EF92FF920F931F93CF93DF93CDB7DEB72F
:101E6000A1970FB6F894DEBF0FBECDBF7C01C42E84
:101E7000E52FCB01D22E19A221E02D1510F02AE07A
:101E8000D22E8E010F5D1F4F8D2C912CA12CB12CC9
:101E90006C2D7E2FA50194010E949C108C2DD29E4A
:101EA00080191124015011098A3014F4805D01C099
:101EB000895CF8018083211531054105510521F028
:101EC000C22EE32FCA01E4CFB801C7010E94B60EAB
:101ED000A1960FB6F894DEBF0FBECDBFDF91CF91B4
:101EE0001F910F91FF90EF90DF90CF90BF90AF9038
:101EF0009F908F900895CF92DF92EF92FF920F9371
:101F00001F93CF93DF93EC016A017B01211531050B
:101F100079F4E881F9810190F081E02D642FDF915F
:101F2000CF911F910F91FF90EF90DF90CF90099488
:101F30002A303105E9F477FF1AC06DE20E94F30EF2
:101F40008C0144275527BA014C195D096E097F0998
:101F50002AE0CE010E94220F800F911FDF91CF91C6
:101F60001F910F91FF90EF90DF90CF9008952AE09E
:101F7000B701A601CE01DF91CF911F910F91FF9084
:101F8000EF90DF90CF900C94220F0F931F93CF937D
:101F9000DF93EC019A01AB01662757FD6095762F20
:101FA0000E947B0F8C01CE010E94FA0E800F911FC0
:101FB000DF91CF911F910F9108950F931F93CF93AE
:101FC000DF93EC010E947B0F8C01CE010E94FA0E80
:101FD000800F911FDF91CF911F910F9108952115CF
:101FE000310541F4DC01ED91FC910190F081E02D8F
:101FF000642F09940C94220F0F931F93CF93DF93B8
:10200000EC019A01AB0160E070E00E94EF0F8C01DF
:10201000CE010E94FA0E800F911FDF91CF911F9188
:102020000F9108950F931F93CF93DF93EC010E94BC
:10203000EF0F8C01CE010E94FA0E800F911FDF91ED
:10204000CF911F910F9108954F925F926F927F925F
:10205000AF92BF92CF92DF92EF92FF920F931F93B6
:10206000CF93DF93CDB7DEB729013A01621B730B23
:10207000840B950B29893A894B895C892A193B097C
:102080004C095D09298B3A8B4B8B5C8B9B01AC0116
:1020900069897A898B899C890E946C10E418F508FB
:1020A00006091709A80197010E94BE102A0D3B1DC1
:1020B0004C1D5D1DCA01B901DF91CF911F910F9198
:1020C000FF90EF90DF90CF90BF90AF907F906F9098
:1020D0005F904F9008950895DB018F939F930E9426
:1020E000DD10BF91AF91A29F800D911DA39F900D18
:1020F000B29F900D11240895991B79E004C0991F97
:10210000961708F0961B881F7A95C9F78095089551
:10211000AA1BBB1B51E107C0AA1FBB1FA617B7070D
:1021200010F0A61BB70B881F991F5A95A9F7809529
:102130009095BC01CD010895A1E21A2EAA1BBB1BEC
:10214000FD010DC0AA1FBB1FEE1FFF1FA217B30783
:10215000E407F50720F0A21BB30BE40BF50B661F99
:10216000771F881F991F1A9469F76095709580955D
:1021700090959B01AC01BD01CF010895052E97FB01
:102180001EF400940E94D51057FD07D00E949C10A9
:1021900007FC03D04EF40C94D51050954095309523
:1021A00021953F4F4F4F5F4F0895909580957095C3
:1021B00061957F4F8F4F9F4F08950E94EE10A59F0E
:1021C000900DB49F900DA49F800D911D1124089532
:1021D000EE0FFF1F0590F491E02D0994A29FB0012E
:1021E000B39FC001A39F700D811D1124911DB29F4B
:1021F000700D811D1124911D089591110895815430
:102200008A5108F4805E855A0895F999FECF92BDEF
:1022100081BDF89A992780B50895262FF999FECFA8
:102220001FBA92BD81BD20BD0FB6F894FA9AF99AF3
:0A2230000FBE01960895F894FFCF49
:10223A00010000001400C800C800D0071E001027C3
:10224A000000E8030000B80B0000D0070000D00728
:10225A000000F4010000102700001027000042755A
:10226A0074746F6E45434F204F66660042757474EE
:10227A006F6E5743204F66660052656C655F523237
:10228A00204F6E0052656C655F5233204F666600C0
:10229A0052656C655F52332C34204F666600427576
:1022AA0074746F6E45434F204F6E00427574746F9D
:1022BA006E574300535731204F6E00535732204F09
:1022CA006E0053573300456E746572206E756D62E9
:1022DA0065723A2000596F7520656E74657265647F
:1022EA003A2000596F75206469646E277420656E00
:1022FA00746572656420616E797468696E670041FD
:10230A00202074696D6545434F2020207365632E34
:10231A0020202D200042202074696D65574320201B
:10232A0020207365632E20202D2000432020526533
:10233A006C65325F74696D65207365632E202D208C
:10234A000044202074696D655F666C6173685F6C18
:10235A0065645F45434F207365632E202D20004539
:10236A00202074696D655F707573685F4275744586
:10237A00434F2020207365632E202D200046202005
:10238A005357315F74696D65207365632E202D2064
:10239A00004720205357325F74696D652073656367
:1023AA002E202D20004820205357335F74696D6515
:1023BA00207365632E202D20004A2020706F733011
:1023CA002020677261642E2020202D20004B2020BF
:1023DA00706F7335302020677261642E20202D20A3
:1023EA00004C2020706F735F74696D65207365639C
:1023FA002E202D20004D20206C6967685F73706560
:10240A00656445434F202D20004E20206C69676883
:10241A005F7370656564574320202D20004F20208C
:10242A006C6967685F7370656564202020202D20C1
:10243A00002A2A2A2044656661756C7420736574C3
:10244A0074696E6773202A2A2A005365747570208E
:10245A004F6B210000000000120D8E0E940CAD0C83
:10246A009F0CF00C0D0A006E616E00696E66006FBB
:06247A007666002E000052
:00000001FF
