:1020000000800020DD3B0000C53B0000C53B000018
:1020100000000000000000000000000000000000C0
:10202000000000000000000000000000C53B0000B0
:102030000000000000000000C53B0000313C000033
:10204000C53B0000C53B0000C53B0000C53B000090
:10205000C53B0000C53B0000C53B0000C93B00007C
:10206000C53B0000113B0000C53B0000C53B000024
:10207000E93A0000C53B0000213B00007D21000043
:10208000C53B0000C53B0000C53B0000C53B000050
:1020900000000000C53B0000C53B0000C53B000040
:1020A000C53B0000C53B0000C53B0000C53B000030
:1020B0000000000010B5064C2378002B07D1054B1B
:1020C000002B02D0044800E000BF0123237010BDA4
:1020D00060010020000000007CB4000008B5084B3F
:1020E000002B03D00748084900E000BF07480368F9
:1020F000002B03D0064B002B00D0984708BDC046EC
:10210000000000007CB400006401002050010020A9
:102110000000000008B50368C9B21B68984708BDF5
:1021200073B50F4C0E1C051C201C00F071FC301CFC
:1021300005F04CFE009001910021201C0A1C00F0CB
:102140002BFC0026AE4204D0012001F0B7FD013681
:10215000F8E7201C00F05CFC024B00221A7073BDF3
:10216000BC0300201004002013B500206C46E07171
:1021700006F0BAF80734201A16BD000073B51E4CDD
:102180000126E36A33422DD01C4B1E7001F05EFD28
:102190001B4B1C4D18602B68334216D01A4B186825
:1021A00005F0D6FD0090019100210A1C174800F0AF
:1021B000F3FB01F04BFD164E0A223368C11A154895
:1021C00002F09FF801F042FD3060134B29680126B0
:1021D0001868314001F044FFE36A1E43E6622B6851
:1021E00001332B60E26A044BD10304D5D96A802203
:1021F00052020A43DA6273BD00200042100400203C
:10220000CC030020E403002008000020BC030020D1
:102210007C010020540600200C0000200A4B022103
:102220001A688A431A609A689107FCD4064A1064B7
:102230009968054A0806FBD4116802200143116021
:102240009A689107FCD470470020004207B5042328
:10225000009303230193072106220523084800F079
:10226000F3FB0F230093122111221023054800F0E5
:102270001FFB05480A21092200F0B4FF07BDC04634
:1022800084010020BC030020E803002010B5094CA5
:102290002F21201C01F062FB201C072101F007FB0D
:1022A000054B201C197801F002FB201C01F094FB67
:1022B00010BDC046300400208001002038B50D4D0F
:1022C0002970012812D0022812D10B4C2F21201C7A
:1022D00001F044FB201C872101F0E9FA2978201C39
:1022E00001F0E5FA201C01F077FB01E0FFF7CEFFDB
:1022F00038BDC046800100203004002010B5104CCD
:102300002F21201C01F02AFB201C072101F0CFFA0D
:102310000021201CFFF7FEFE201C01F05DFB201CAD
:102320002F2101F01BFB201C872101F0C0FA0021A6
:10233000201CFFF7EFFE201C01F04EFB10BDC04635
:102340003004002000000000F0B5554B85B01A782D
:10235000544B554D1A70FFF799FF544C02202178C9
:10236000FFF7ACFF207805F0F3FC4A4B484A04F035
:1023700097FA494A494B04F0FDFE05F05BFD03F076
:1023800053FF4B4C4B4E071C311C201C2A1C0123B5
:1023900000F042FD201C01234749002200F03CFDD3
:1023A000391C01A80A2202F08BFC01A92822012372
:1023B000201C00F065FD01A802F006FC01A83F49C1
:1023C00002F049FC01A9201C3822012300F058FD2D
:1023D0003B4F01A802F0F8FB201C2A1C39490A23B4
:1023E00000F01AFD201C311C3A1C142300F014FDCF
:1023F000201C354900220A2300F00EFD334B01A8B2
:1024000019680A2202F05CFC01A9201C28220A2378
:1024100000F036FD01A802F0D7FB201C3A1C2C4925
:102420000A2300F0F9FC201C2A490022142300F0A2
:10243000F3FC294B01A819680A2202F041FC01A90A
:102440003A1C201C142300F01BFD01A802F0BCFB69
:10245000201C2A1C21491E2300F0DEFC201C311CFC
:102460002A1C282300F0D8FC1D4B01A819780A2249
:1024700002F015FC01A92A1C2823201C00F000FDF5
:1024800001A802F0A1FB201C00F07BFB05B0F0BD11
:102490000000000000C06F40000000000000594034
:1024A00000000020800100200E2700000100002015
:1024B00084010020DDA80000B8A80000BFA800002B
:1024C0000F270000DBA80000C1A8000004000020C6
:1024D000C6A80000C9A8000008000020D3A800007A
:1024E000D1030020C046C046F8B501F0AFFB3A4C1E
:1024F0002378002B46D0394B1A68821A312A41D9E9
:1025000019680A22411A364801F0FBFE354800F0EE
:102510007FFA354B0021186801F0A2FD00232370DB
:1025200030E0324C1022211C281C00F09EFE237843
:102530002F4A31781370A3782E4F2F4E281C012B71
:1025400029D1022300F05AFF01F086FB2B4B1860C3
:10255000FA239B01013BFDD138683168FFF7E0FDAC
:10256000FFF7F2FE237962791B0213433B60A379E4
:10257000E2791B0213433360227A214B1A70627A8C
:10258000204B1A70204D214E281C311C00F058FEA3
:102590000028C6D11EE0022B0AD100F02FFFFA233B
:1025A0005B01013BFDD18022194B12021A60D9E771
:1025B000032B0BD1022300F021FFFA235B01013B27
:1025C000FDD18022134B1202DA67CBE7022300F021
:1025D00015FFC7E7F8BDC04610040020CC0300205B
:1025E00054060020BC0300200C000020D103002072
:1025F0000004002004000020080000201404002033
:102600000000002001000020E8030020D00300208B
:1026100000E100E004E100E073B58D4CE121201CF5
:10262000490202F00DFCFA20800001F047FB8949C5
:10263000201C01F0F1FDFFF797FD0A22011C201C70
:1026400001F04BFE201C844901F0E6FD1022201C05
:10265000824901F042FE8249201C01F0EFFD8148D1
:1026600001F05CF9804E4621301C00F0B4FA7F4C3A
:102670000225201C00F038FF201C012100F0E8FE9C
:10268000201C00F0A1FE201C022100F0EAFE201C0C
:10269000002100F002FF201C0222002101F046F878
:1026A000201C102100F0B4FD644B634A201C00F094
:1026B000E6FD634A634B0121201C00F0F5FD201C60
:1026C00000F03EFE201C00F0A5FF694B201C1D7091
:1026D0005A4B594A00F0D3FD594A5A4B0121201C4C
:1026E00000F0E2FD201C00F02BFE201C00F096FD07
:1026F000301C00F065FA5F49301C00F0DBFB5E4CDB
:10270000201C00F025F9FA20400001F0D7FA201C27
:1027100000F07EF9642001F0D1FA4B4A4B4B0021C6
:10272000201C009201930A1C00F036F9FFF7E6FD29
:10273000524B1A78524B1A70FFF7A8FD514B281CC8
:102740001978FFF7BBFD0D20012101F02FFC281C9B
:10275000012101F02BFC01210D2001F081FC6420FE
:1027600001F0ACFA00210D2001F07AFC642001F0A8
:10277000A5FA01210D2001F073FC642001F09EFAFE
:102780000D20002101F06CFC0121281C01F068FCE7
:10279000201C00F03DF9FFF7D7FD3B4C01212068DC
:1027A00001F004FC2068002101F05AFC374A384B44
:1027B0001A80384B5B78DB09FBD1374D02222B683E
:1027C00093432B60AA68344B9107FBD41968C0224D
:1027D000D2000A431A60DA6BDA63AB685A06FCD49B
:1027E0002E4A2D4B1A64AB681906FCD42C4A2A4B8E
:1027F0005A64AA680123120A274C1A40F9D1A2622E
:10280000A26A28481343A362A26A80235B0213438F
:10281000A362FFF703FD244B802212021A60236893
:10282000022213432360AB689A07FCD41F4B80221B
:102830001202DA6773BDC0467C68524D5400000036
:1028400071CDABCDAB0000000000000000E89C4063
:1028500054060020E2A80000EAA80000A4A8000096
:10286000FBA800003004002084010020E8030020C1
:10287000020000202BA90000BC0300200000002063
:1028800080010020010000200C0000201A40000000
:10289000020C0040000C004000200042FFFF00003E
:1028A000FF0F0000A24A040000E100E004E100E0A4
:1028B00010B5041C02986260E3602160A0600121F1
:1028C00001F074FB6068012101F070FB20680121B8
:1028D00001F06CFBE068012101F068FBA0680021B9
:1028E00001F0BEFB6068002101F0BAFB2068002106
:1028F00001F0B6FBE068002101F0B2FB201C10BD26
:1029000010B50121041C006801F0AAFB2068002119
:1029100001F0A6FB10BD70B5051C0E1C0024311C77
:10292000012321411940E86801F09AFB0134281C79
:10293000FFF7E6FF082CF2D170BD10B50121041C91
:10294000406801F08DFB6068002101F089FB10BD3B
:1029500038B50021041C006801F082FB606800218A
:1029600001F07EFBA068012101F07AFB0525201C07
:10297000013DFFF7C5FF002DF9D1291CA06801F02A
:102980006FFB201CFFF7BCFF201CFFF7B9FF201CCA
:10299000FFF7D3FF38BD0000F8B5041C161C0D1C52
:1029A000184B174A0698079903F07AFF164A174BF7
:1029B00004F0E0FB05F098F9071C201CFFF7BDFFB1
:1029C000F9B2201CFFF7A7FF3912201CC9B2FFF78C
:1029D000A2FF3914201CC9B2FFF79DFF390E201C3D
:1029E000FFF799FFAD00F1002943C9B2201CFFF7A2
:1029F00092FF201CFFF7A1FFF8BDC046C046C046AD
:102A00000000000080842E41000000D04D62804113
:102A100010B5041CFFF791FF201C0021FFF77BFF7E
:102A2000201C0021FFF777FF201C0021FFF773FF18
:102A3000201C0021FFF76FFF201C0421FFF76BFF14
:102A4000201CFFF77AFF10BDF7B5019218220F1C6A
:102A5000111C79431E1C2F4B041CC8562E4D5918AF
:102A6000C0014968401901252060281C884001994F
:102A700060615143C8565918C001844626484968C8
:102A8000844460466060281C8840111C7143A0612A
:102A9000C8565918C00184461F4849688444604696
:102AA000A060281C88400899E0615143C856591815
:102AB000C00184461848496884446046E060281C88
:102AC0008840099920624A43D15613489A18C9018F
:102AD000536809182161291C9940381C6162291C1E
:102AE00001F064FA0198291C01F060FA301C291CDD
:102AF00001F05CFA0898291C01F058FA0998291C81
:102B000001F054FA089D231C28331F705D70201CAF
:102B1000FEBDC04668AD0000104400410369F0B539
:102B2000456A1C68AC431C608468002A03D1C569EF
:102B30002268AA4302E0C26925682A43226002682B
:102B400008254EB24468002E03DA866927683E43A2
:102B500002E087692668BE4326604669146849001A
:102B6000B443C9B21460C04644691668013D344399
:102B7000EDB21460002DE4D1426A19680A431A606C
:102B8000F0BD70B58C239B00C55C041C002D16D1D4
:102B90002A1C4021FFF7C2FF2A1C201C8021FFF7BE
:102BA000BDFFFC235B00251CE6182B1C383319786D
:102BB000201C01220135FFF7B1FFB542F5D170BDF0
:102BC0000023C2183832002111700133FC22520058
:102BD0009342F6D1704770B5041C0D1E7F2D03DCA7
:102BE000CB43DB171D4000E07F25A368E26919682D
:102BF000261C0A431A606368A269196829360A43C9
:102C00001A602368626919680A431A602369626A54
:102C100019680A431A603078002101F021FA3078EF
:102C2000012101F01DFA201C21210022FFF776FF6F
:102C3000802149422943201CC9B20022FFF76EFFC0
:102C4000201C06210022FFF769FF201C132100220F
:102C5000FFF764FF201C20210022FFF75FFF201CEC
:102C600040210022FFF75AFF201C80210022FFF79D
:102C700055FF0C210022201CFFF750FF201CFFF7FE
:102C80009FFF201CFFF77DFF8C2200239200E36250
:102C9000A3548D239B00E55070BD10B553290FD868
:102CA0002F2A0DD8D30854246343591807231A40F8
:102CB00041180123383193401A1C0B781A430A70CB
:102CC00010BD10B553290FD82F2A0DD8D30854247E
:102CD0006343591807231A404118012338319340A0
:102CE0001A1C0B7893430B7010BDF0B585B002939E
:102CF000031C03923133041C1B783230221C0078F1
:102D000007261F1C30323740091A1278002F42D193
:102D1000DB0853434B430093231C31331B78DB0800
:102D20009F4276DA0299FB005B189BB20193002662
:102D3000231C30331B789E422BDA0025231C3033B2
:102D40001A78E06A7A43009983195B189B181A79FC
:102D50000398231C34332A4131181B78D00707D538
:102D6000019889B2421992B2201C002B07D109E0C8
:102D7000019889B2421992B2201C002B02D1FFF7B0
:102D8000A0FF01E0FFF789FF0135082DD6D10136FC
:102D9000CEE70137C0E75343DB105943E26A043101
:102DA000525C019100920027231C30331B789F4214
:102DB0002FDA0025231C31331B789D4227DA009A35
:102DC000231C03983433324139181B78D00707D5B8
:102DD000029889B22A1892B2201C002B07D109E070
:102DE000029889B22A1892B2201C002B02D1FFF758
:102DF00068FF01E0FFF751FF013E06D50199E26A45
:102E00000131525C0191009207260135D2E701376A
:102E1000CAE705B0F0BD0000F7B5061C081C019319
:102E20000091151C05F044FA134B071C9D4205D177
:102E3000331C30331D78542345435D1B0F4B9D429B
:102E400008D1331C30331D7854237D435D1BEB0FB9
:102E50005D196D100024BC420CDA009B301C195D1A
:102E6000331C30331A78019B6243AA18FFF73DFFE9
:102E70000134F0E7F7BDC0460F2700000E27000021
:102E8000F8B51C1C8B68151C5A1C0833DB08061C83
:102E9000DB006846C01A00AF85460023081C69465F
:102EA00001F020FF301C69462A1C231CFFF7B4FFE9
:102EB000BD46F8BDC1620A78031C30331A704A78E7
:102EC00034305A708A789A70CA78DA7000230370A6
:102ED0007047000070B50F4C051C0E1C201C012112
:102EE00000F07AFC201C022100F080FC201C06214E
:102EF00000F094FC6888311C01F0B2F86B69002B7B
:102F000006D030205843032103F0A0F80138FDD14A
:102F100070BDC0462004002008B5031C5B880088F3
:102F2000834201D001F09CF808BD08B50021FFF7ED
:102F3000D1FF08BD08B50121FFF7CCFF08BD000097
:102F4000F7B50C1C171C051C0093FFF7EEFF0D4E88
:102F50001F212140301C00F069FC3C1C0190009BAB
:102F6000FA18D2B2E3B29A4206D0301CFF2100F028
:102F70005DFC20700134F2E7281CFFF7DBFF0198AD
:102F8000FEBDC0462004002070B50E1C041CFFF7D7
:102F9000CCFF084D1F213140281C00F047FCFF21C9
:102FA000281C00F043FC051C201CFFF7C3FF281C55
:102FB00070BDC04620040020F7B50C1C171C051C72
:102FC0000093FFF7B2FF0D4E1F210C40202121433B
:102FD000301C00F02BFC3C1C0190009BFA18D2B274
:102FE000E3B29A4205D02178301C00F01FFC013476
:102FF000F3E7281CFFF79EFF0198FEBD2004002088
:10300000F8B5171C041C0E1CFFF78FFF084D1F217D
:103010000E4020213143281C00F008FC391C061CFE
:10302000281C00F003FC201CFFF784FF301CF8BDB7
:1030300020040020F0B5C3790E1C85B0041C111CBF
:103040009A4200D9191CC9B2227A02910021019139
:103050008A4203D1029A9B1ADBB20193201CFFF72C
:1030600064FF124F6121381C00F0E0FB351C039017
:10307000029BF218D2B2EBB29A4206D0381CFF2162
:1030800000F0D4FB28700135F2E7019D002D06D039
:10309000381CFF21013D00F0C9FBEDB2F6E7201C12
:1030A000FFF748FF039805B0F0BDC046200400209C
:1030B00038B50D1C041CFFF738FF291C044800F02C
:1030C000B5FB051C201CFFF735FF281C38BDC0468A
:1030D0002004002008B5E221FFF7EAFF08BD08B58B
:1030E000E121FFF7E5FF08BD08B5FF21FFF7E0FF8D
:1030F00008BD00001FB501200C0904408A094B09D6
:1031000000940C0702400340640F084002900194B1
:10311000014805F021F81FBDDEAB0000F8B5061C24
:103120000C48141C1D1C05F017F86519EDB2AC42D3
:103130000BD0211C301CFFF727FF671C011CFFB2BE
:10314000054805F009F83C1CF1E7044805F080F853
:10315000F8BDC0464EAC000054AC00005CAC0000B2
:10316000F0B5141C1D1C85B0651900AF061CEDB22E
:10317000184804F0F1FF3D603A68944223D0B57BD3
:103180006B46FB60EB1DDB086A46DB00D21A631C52
:10319000DBB295467B60211CEBB2301CBA60FFF7B6
:1031A000CFFE0D4804F0D8FF6B465D19BA68013DAB
:1031B000954204D32978094804F0CEFFF6E7FB686E
:1031C0007C689D46D8E7064805F042F8BD4605B044
:1031D000F0BDC0464EAC00005EAC000057AC000035
:1031E0005CAC0000428020220023C27105220180D5
:1031F00083710372827342614372704708B50A1C7F
:103200007D2900D97D22D2B20521FFF7F9FE08BD44
:103210000B1C202900D92023C371704710B5002151
:10322000041CFFF7B1FE0222011C114007D102432A
:10323000D2B2201CFFF7E4FE052000F03FFD10BDD8
:1032400070B50D1C1721061CFFF79EFE01240023FC
:10325000204208D19D4205D0301CFFF745FF0007F2
:10326000400F2870231C181C70BD10B5041CFFF7FC
:10327000E1FE201C07217022FFF7C2FE10BD13B52E
:1032800000920193041C6A46837B0A21FFF794FE97
:10329000A37B6A46201C1021FFF78EFEE279201CDA
:1032A0001121FFF7ADFE13BD37B5041C0D1C0092B4
:1032B0000193002905D1827B6946093004F09EFE06
:1032C00003E0062921D8012905D1104B201C595DA6
:1032D0006A46A37B03E00D4B6A46595C0123FFF766
:1032E0006BFE0B4BE279595D201CFFF789FE022132
:1032F000201CFFF749FE074B01225B5D02219A402B
:103300000243D2B2201CFFF77BFE37BDD8AB0000D2
:1033100087AB000038AD000038B50D1C0221041C3D
:10332000FFF732FE054B01225B5D02219A4090437C
:10333000C2B2201CFFF764FE38BDC04638AD0000A5
:1033400038B5041CFFF76AFF0021201CFFF71CFEA4
:1033500001252843C2B20021201CFFF751FE07219E
:103360007022201CFFF74CFE291C201CFFF7D4FD07
:10337000617A002907D0221CA37B201C0A21093274
:10338000FFF71AFE02E0201CFFF7C6FF201C1D21DC
:10339000FFF7FAFD830702D5201CFFF7A0FE38BD1A
:1033A00038B5041CFFF7C1FD064D5021281C00F064
:1033B0003DFA281C732100F039FA201CFFF7BAFDF2
:1033C00038BDC0462004002010B51D21041CFFF7A5
:1033D000DBFD06220243D2B2201C1D21FFF710FEA6
:1033E000201C1C21FFF7D0FD03220243D2B2201C77
:1033F0001C21FFF705FE0123237210BDF7B5161C33
:10340000051C0C1C1A1C202B00D92022D2B2281C0F
:103410000192FFF78AFD07210C4F0C40A823211CC5
:103420001943381C00F002FA341C019BF218D2B286
:10343000E3B29A4205D02178381C00F0F7F9013444
:10344000F3E7281CFFF776FDF7BDC04620040020F7
:103450000A1C08B50121002A00D03F22FFF7D0FD49
:1034600008BD38B50D1C0621041CFFF78DFD072390
:10347000021C9A43D2B2032D02D86B000133DBB297
:103480001A43201C0621FFF7BBFD38BD08B50621F5
:10349000FFF77AFD4007800F08BD70B50E1C0621AE
:1034A000051CFFF771FDD723041C1C40022E04D11C
:1034B00020231C43E1235B0006E0012E01D0FA2308
:1034C00002E008231C43BE232B61221C281C06217A
:1034D000FFF796FD281C0621FFF756FD001B44420E
:1034E0006041C0B270BD000070B5041C63880088E4
:1034F000834202D0012100F059FD60882388834275
:1035000002D0012100F052FD2D4800F03DF9201CB1
:103510000021FFF701FD0121201CFFF7DBFC052046
:1035200000F0CCFB00210C22201CFFF769FD0421D8
:10353000201C5F22FFF764FD201C0221FFF7ADFF76
:10354000002801D00123A371201C0621FFF71CFDD8
:103550000021061C201CFFF7A0FF201CFFF720FF06
:10356000201C1D210022FFF74BFD0025201C1C21E3
:103570000022FFF745FD70222572201C0721FFF76E
:103580003FFD4C21201CFFF739FE201CFFF7A2FD58
:10359000201CFFF7A4FD201CFFF740FE291C201C67
:1035A000FFF7F2FCFE23021C1A40291C201C013EDE
:1035B000FFF726FDF6B2FD23B3426D41E8B270BDC0
:1035C0002004002008B50621FFF7DEFC2823034075
:1035D0000220202B04D0181C083843425841C0B2A6
:1035E00008BD38B50021051CFFF7CEFC0121041CE5
:1035F000281CFFF7C9FC0823021C234002D1181C19
:10360000002A05D004231C40634263410220C01AF3
:1036100038BD000010B5041CFFF766FD011C201C1E
:10362000FFF768FD201C2F490A220223FFF798FDAF
:10363000201C2D490C220423FFF770FD201C2B4970
:1036400010220123FFF78CFD201C2949112206239B
:10365000FFF764FD0122201C131C2649FFF75EFDC5
:10366000201C254902220123FFF758FD201C234975
:1036700005220123FFF752FD201C214906220123C8
:10368000FFF74CFD201C1F4900220123FFF746FDD8
:103690001C22201C1C490223FFF740FD201CFFF7C1
:1036A00091FF1A4B8000C158194804F055FDA279CA
:1036B000184B9200D158184804F04EFD201CFFF71B
:1036C00090FF164B8000C158154804F045FD201CA2
:1036D000FFF7DCFE134B8000C158134804F03CFD9B
:1036E00010BDC04662AC00006FAC00007CAC0000B6
:1036F00085AC000090AC000097AC0000A1AC0000CD
:10370000A8AC0000B1AC0000B9AC0000CCAB00002C
:10371000C7AC000030AD0000D9AC000074AB0000B5
:10372000E8AC0000ACAB0000FBAC000008B50F2318
:1037300009011A400A43D2B20421FFF761FC08BD17
:10374000437A002B04D18372C372C3600123437296
:10375000704730B585B0041C02AD00680291039239
:1037600000F01CFF6B79E179227A00932068002336
:1037700001F0C8F829792068029A00F0DFFE20687D
:1037800000F002FF05B030BD70B5041C1826FFF72D
:10379000D7FF2079331C43430D4D0821EB185956B0
:1037A00000F08EFCA079331C43430821EB185956D6
:1037B00000F086FC607908214643AD19695600F097
:1037C0007FFC044B201C06CBFFF7C3FF70BDC04637
:1037D00068AD00001804002008B50068002901D178
:1037E000012100E0002100F0E3FE08BD08B5031C44
:1037F000032912D8081C1B6802F01EFC050B0208E6
:10380000181C002107E0181C012104E0181C0221EB
:1038100001E0181C032100F0F7FE08BD08B50068A0
:10382000032900D8042100F0D7FE08BD08B50068C0
:1038300000F008FF08BD0000094B0A4A0A491A6057
:1038400000225A711A71094B196016211971182139
:1038500099711721597101215A72D9711A727047E1
:103860001804002000093D00440600202004002028
:1038700000207047F8B5051C0F1C161C0024B4422C
:1038800008D02B68395D1B68281C9847002801D098
:103890000134F4E7201CF8BD704708B5183000F07B
:1038A0009DFD08BD08B5183000F0A6FD08BD38B56F
:1038B000837D0D1C002B06D0041C6034201C00F0FE
:1038C000B4FD002801D0002004E0201C291C00F0D9
:1038D00076FD012038BD08B5183000F09DFD08BD0B
:1038E000F7B50193FA239B0083600B4B0025083347
:1038F000041C4560036018300F1C161C00F054FDBA
:10390000201C603000F050FD019B27612675A575D5
:10391000201C6375FEBDC04640AD000070B50D496A
:10392000041C006901F012F8206900F0A6FE1826B8
:10393000207D331C4343084D0821EB18595600F0F5
:10394000BFFB607D08214643AD19695600F0B8FB06
:1039500070BDC046A086010068AD000010B5031C14
:10396000A833041C1970603000F034FD0123A375E6
:1039700010BDF8B50022031C8275A833041C0F1C6F
:103980000069197800F0B6FE002805D120690321EE
:1039900000F09AFE02251DE0261C6036301C00F067
:1039A0002BFD00280FD0301C256900F017FDC1B297
:1039B000281C00F0CEFE0028EED12069032100F083
:1039C00083FE032506E0051C002F03D02069032198
:1039D00000F07AFE281CF8BD08B50121FFF7C9FFE9
:1039E00008BD38B5041C006900F0D1FE002879D06C
:1039F000206900F0DAFE00280ED1206900F0DFFE19
:103A000000281FD0206900F0D5FE00281AD02069B8
:103A100000F0DAFE002815D1206900F04BFE206985
:103A2000032100F051FE231CB0331D68002D04D08B
:103A30002368201C1B699847A847201C183000F0F9
:103A4000C9FC4FE0206900F0BAFE031C2069002B7E
:103A500016D000F02FFE2069032100F035FE20690A
:103A600000F0B2FE00283DD0201C603000F0B2FC17
:103A70000123A375AC342368002B33D0984731E081
:103A800000F08EFE00282DD0206900F09DFE251C40
:103A900000280FD06035281C00F0AEFCFF21002864
:103AA00003D0281C00F09AFCC1B2206900F062FE2D
:103AB000A07517E01835281C00F0B7FC031C20691E
:103AC000002B02D000F0EDFD08E000F082FE011CAA
:103AD000281C00F074FC206900F0ECFD2069032133
:103AE00000F0F2FD38BD000008B50248FFF779FF8D
:103AF00008BDC0463004002008B50348034914221D
:103B00001523FFF7EDFE08BD300400203406002029
:103B100008B5024800F0B8FF08BDC0468C0500207B
:103B200008B5024800F0B0FF08BDC046E40400201C
:103B3000F7B5164F1649381C00F081FC1549164898
:103B400000F07DFC1549164800F079FC154916482F
:103B500000F075FC1549164800F071FC154D032660
:103B60000124281C144900F06AFC391C0096231C0F
:103B700001940022114800F05FFF0096291C019477
:103B80001F221E230E4800F057FFF7BD3806002005
:103B900000080042000C00423C06002000100042D9
:103BA00040060020001400423406002000180042A5
:103BB0004406002048060020001C00428C0500201E
:103BC000E4040020FEE7000008B5034B1B68002B4F
:103BD00000D0984708BDC0464C06002038B50F49B4
:103BE0000F4CA14204D100F087F800F0CDFA0BE0B1
:103BF0000C4D8D42F7D00023CA18E818A24204D217
:103C0000006804331060F7E7FEE79042EBD0064B04
:103C1000064A9342E7D2002204C3F9E700000020DD
:103C20006001002080B40000600100204C0C0020E6
:103C300008B500F05EF8002801D100F04FF808BD8B
:103C4000014B18607047C0464C060020014B1868B5
:103C50007047C04650060020F7B5144D144CA968B3
:103C60001448626803685201D20F2E1C271C844638
:103C7000B0687D6801906D016046ED0F0468AA424E
:103C800003D02A1C231C0199F2E7A342FAD1019820
:103C90008142F7D30548D2184068FA23411A0648F2
:103CA0009B0048435343000DC018FEBD10E000E0E8
:103CB00000ED00E0500600205555000070B5041ED0
:103CC00008D0054B1D681E1C00F012F833685B1B02
:103CD000A342F9D370BDC0465006002008B5034B7F
:103CE0001A6801321A6000F025FB08BD500600205A
:103CF000704700207047000070B5494A1E21536884
:103D000002208B430343474953608B6908242343B4
:103D10008B61454C454B9C829C8A20439882101CA9
:103D2000DA689407FCD5424A012414701478E50738
:103D300004D53F4C647864B2002CF7DB0124946016
:103D4000547864B2002CFBDB3A4D394C65605478F2
:103D500064B2002CFBDB8225354CED016580547884
:103D600064B2002CFBDB02249C84DC68E606FCD5F4
:103D7000314D2E4CE562DD682C4CEE06FBD5A58C52
:103D80002E4E3543A584DD68284CEE06FBD5A58C68
:103D900002263543A584DC682506FCD5234CE4685F
:103DA0006606F8D5DC68E506FCD5002494605478F6
:103DB00064B2002CFBDB224D1D4C656055781C4C19
:103DC0006DB2002DFADB1E6A1E4D35401D621D6A64
:103DD0008026B5431D620323A3601B4B63605378A9
:103DE0005BB2002BFBDB00230B72184A4B728B7209
:103DF000CB72174BFF211A60164B174A1B681268CB
:103E00005C01D20E214011439A06520F12020B1C84
:103E10001343124A1385436880221343436070BDE5
:103E200000400041000400400C0600000008004073
:103E3000000C004001050100B805FF7D040A0000E8
:103E400000070300FFFCFFFF03060100006CDC021B
:103E500010000020246080002060800000400042AC
:103E6000314BFA21186810B5890002F0EFF82F4B9A
:103E70000138984224D82E4A2E4B5060186AC0212F
:103E80000002000A09060143196200240721946018
:103E90001160196A80220902090A12060A431A628D
:103EA000254BFC211A6A0A431A62196AFC22920104
:103EB0000A431A62196AA022D2020A431A6200E077
:103EC000FEE7201C0021013400F070F8142CF8D11A
:103ED0001A4C63785BB2002BFADB194B6380194BE9
:103EE0005A7ED209012AFAD0E422D2009A803F22D7
:103EF000DA70597E134AC9090129FAD0C0235B013F
:103F000000201361907000F023F863785BB2002BFF
:103F1000FBDB0D4A094B5A800C4BDA79D209012A96
:103F2000FAD041225A7010BD10000020FFFFFF00A0
:103F300010E000E000ED00E000040040000C004054
:103F40001E400000004000422140000000480042A6
:103F500000B5144A517E131CC9090129F9D0013852
:103F6000042813D81969104A0A401A615A780F2197
:103F70008A4302F061F8030509070300012102E00A
:103F8000032100E002210A435A700AE01169F0237C
:103F90001B050B43136153780F218B4302210B4305
:103FA000537000BD00400042FFFFFFF010B5182421
:103FB000021C201C5043274B1818007A40B20130D5
:103FC00046D0032944D8081C211C02F035F80233DE
:103FD0001121624398569A18C3011F4852681B1852
:103FE00099184031022008700121914059602FE05A
:103FF0006243985618499A185268C3015B18991879
:1040000040310620087001219140596099611FE0FC
:1040100051435A56104859184B68D2011118C81804
:104020004030062404700120984048600B49521823
:1040300050600DE0624398569A18C30106485268D2
:104040001B18991840310220087001219140996095
:1040500010BDC04668AD000000440041104400415E
:1040600018235843134AF0B5131808241C57013479
:104070001FD08256104ED2015D6801249019231C76
:104080008668AB401E420BD10E1C771EBE41401904
:1040900034404030A50004780426B4432C43047017
:1040A000002903D105495218536002E0024E9219CB
:1040B0009361F0BD68AD0000004400411044004130
:1040C00018224243F8B52D4D0824AA181457031C92
:1040D000621C50D0481C00240C284CD801F0ACFFC6
:1040E000071E1E1E1E1E1E1E1E0A0A0A0A0001248C
:1040F000644240E0092902D1181C002103E00A298A
:1041000004D1181C0221FFF751FF23E000240B29E2
:1041100031D1181C0121FFF749FF2CE0182253432D
:10412000EA185268EB560120141C04405508DB01C4
:10413000002C11D0124C1B195D1930352E780C0152
:104140000F21314021439A18C9B2297040321378A7
:104150001843107000240EE0094E0F279B195D19BB
:1041600030352E789A18BE433143C9B22970403297
:10417000137818431070201CF8BDC04668AD0000CD
:10418000004400417047000010B5FFF769FE03F0DE
:10419000FBFEFFF7F7FF0120FFF790FD084C201C06
:1041A00001F086F8201C01F0FBF8FEF735FAFEF767
:1041B0009BF9044B002BFAD000E000BFF7E7C046A4
:1041C0001F0B002000000000F7B58A18061C0D1C0C
:1041D00001920C1C019B671B9C4207D0336821781D
:1041E0001B68301C984701340028F3D1381CFEBDF1
:1041F00008B50368C9B21B68984708BD38B5051CE7
:104200000C1C081E07D004F053F82B68021C5B68D6
:10421000281C211C984738BD08B5FFF7EFFF08BDE3
:1042200008B503681B68984708BD000008B5024937
:10423000FFF7E4FF08BDC046E5AC000038B5041C3C
:10424000FFF7DCFF051C201CFFF7F0FF281838BD26
:10425000F0B58DB0161C0BAB002201900C1C1A702F
:10426000012E00D80A266D462B35201C311C01F08A
:1042700031FF201CCFB2311C01F0E8FE291C041CC8
:10428000092F01D8303700E03737FFB22F70013DDA
:10429000002CEAD10198FFF7B1FF0DB0F0BDF8B5E1
:1042A000041C0D1C161E04D10368C9B21B68984774
:1042B00012E00A2A0DD100290ADA2D21FFF7B0FFFA
:1042C0006942071C321C201CFFF7C2FFC01903E023
:1042D00000E0D2B2FFF7BCFFF8BD38B5041CFFF711
:1042E000DEFF051C201CFFF7A1FF281838BD08B50C
:1042F000002A02D1FFF77CFF02E0D2B2FFF7A8FF4D
:1043000008BD38B5041CFFF7F2FF051C201CFFF7A1
:104310008DFF401938BD0000014B18607047C04642
:1043200014000020024B012252421A607047C0461E
:1043300014000020154A1368581C25D0013B136057
:10434000002B21D172B6124A124B04329A4207D87E
:10435000BFF34F8F104A114BDA60BFF34F8F11E05C
:104360000F4B197DC807FBD5188B2021FF31920810
:10437000520001431983DA610A4A1A801A7DD10773
:10438000FCD5E5E7C046FDE77047C04614000020B5
:1043900000200000030200000400FA0500ED00E028
:1043A0000040004102A5FFFF10B500214022041C7F
:1043B00003F02DFE0023201C2364636410BD026CF7
:1043C00010B53F23541C2340446CA34201D08154B8
:1043D000036410BD0023036443647047436C026CA4
:1043E000934206D0C25C3F2101330B404364101C52
:1043F00001E0012040427047026C436CD01A00D5A6
:1044000040307047036C406C834202DBC01A3F307F
:1044100001E0C01A01387047436C026C934201D02E
:10442000C05C01E0012040427047026C3F23013232
:104430001A40436CD01A43425841C0B270470160E1
:104440007047F7B508AC267804689D1E27686C1E77
:10445000A541ECB2920705683A4327063A432A6021
:104460000268072529405068B501002C00D05C0384
:10447000294301430C435460F7BD30B50368C025A0
:104480001C68AD0312052A402243C024A40209047B
:1044900021401143196003685A6814435C6030BDC1
:1044A000036801211A680A431A600268116801232F
:1044B0001942FBD1D1691942F8D170470368022132
:1044C0001A680A431A600268D3699907FCD47047D6
:1044D00003681A7ED10702D41A7E9107FCD5704773
:1044E000036800225A8370470368187E4007C00F94
:1044F00070470368187EC009704703688022197EE0
:1045000052420A431A7670470368187E0123184006
:1045100070470368188DC0B2704703681A7E012087
:104520000242FBD019857047036801219A7D0A4336
:104530009A757047036801221A75704770B5036851
:1045400001268D07ED0F31401C686D0709072943CF
:104550002143196004685100034801F077FD0138D8
:10456000C0B2207370BDC046006CDC02036801213C
:104570001A680A431A600268116801231942FBD1C4
:10458000D1691942F8D17047036802211A680A43B9
:104590001A600268D3699907FCD470470368DA6926
:1045A0009107FCD41A6802218A431A607047000000
:1045B00038B5041C0D1CFFF7F1FF236801221540DC
:1045C000AA0704491D68201C0D4015431D60FFF714
:1045D000DBFF38BDFFFFFFBF70B5041C0D1E10D000
:1045E000FFF7DCFF291C074801F07EFD410005486C
:1045F00001F02CFD26680138C0B23073201CFFF793
:10460000C3FF70BD006CDC0270B50125041C0D40B9
:104610008907CE0FFFF7C2FF23687107074A1E689C
:10462000201C16400E431E6023682A0704491D689B
:104630000D4015431D60FFF7A7FF70BDFFFFFFDFB3
:10464000FFFFFFEF03689A6A520A52021143996210
:1046500003681A7E5107FCD5986AC0B27047036898
:1046600001211A680A431A6002681168012319427D
:10467000FBD1D1691942F8D17047036802211A6849
:104680000A431A600368DA699107FCD45A8B302117
:104690008A4310210A435A830268D3695907FCD41C
:1046A00070470368802219685968D2020A435A6029
:1046B000704700000368034A196859680A405A6045
:1046C0007047C046FFFFFBFF30B5036803241D6839
:1046D0000C40074A596824040A40ED0622436D0F36
:1046E0005A60052D03D10268D3695907FCD430BD47
:1046F000FFFFFCFF49001143036830B5CDB2598B71
:10470000032409092140012904D0598B09090C40CF
:10471000022CF4D1596AC90AC902294359620368B3
:10472000002A03D11A7ED107FCD50DE0187E0122A4
:104730004008104008D1197E1142F7D05968C022B4
:1047400092020A435A6003E05B8B01209B08984366
:1047500030BD0368283319700268107E01231840A9
:1047600003D1518B1942F8D003E0528B181C9208E8
:1047700090437047036828331970036800201A7E3D
:10478000510703D55B8B01209B0898437047036852
:104790001868C006400F043843425841C0B2704701
:1047A0000368187E4007C00F70470368187E012316
:1047B000184070470368588BC006C00F70470368E5
:1047C000187E8007C00F70470368588B0007C00F22
:1047D000704703681A68D206520F052A02D11A7E62
:1047E0009107FCD528331878C0B270470368224A75
:1047F00030B5934211D0214A934211D0204A9342BE
:1048000011D0204A934211D01F4A934211D01F4A1F
:10481000934230D10E2319220DE0092314220AE01D
:104820000A23152207E00B23162204E00C2317228B
:1048300001E00D231822DCB2154901209B08A0409D
:104840009B0008605B180320C021890004405D586C
:10485000E000FF248440A5432C1CC0258540281C73
:10486000204358508023DB011A430A4B5A805A7860
:1048700052B2002AFBDB30BD00080042000C0042AF
:10488000001000420014004200180042001C0042C8
:1048900000E100E0000C0040F8B5041C151C0E1CE3
:1048A0001F1CFFF7A3FF201CFFF7FAFDB1001C221D
:1048B0000A4069072368090C0A431A6022688423A6
:1048C0009375012E1AD10821012D00D110210C4B16
:1048D00079431868C00001F0B9FB236807219A8961
:1048E0000140D2044903D20C0A439A812368000490
:1048F000C20C9889400B400310439881F8BDC04614
:1049000010000020F7B5019308AB041C1F780D1CA4
:10491000161CFFF72BFE201CFFF768FFBF070C22B9
:104920001743C022920336051640C02292022D047E
:1049300023683E4301991540354307221D600A4014
:104940008021236889020A435A60F7BD38B5041CE8
:104950000D1CFFF74BFF201CFFF781FE236814227C
:104960001A60074B6900186801F070FB2468421E4A
:10497000E068FF231A4098431043E06038BDC0460A
:10498000100000200120704708B50368014A1B6A27
:10499000984708BD1304000010B5041C0069FFF718
:1049A0007FFD201C1430FFF715FD201C5C30FFF745
:1049B00011FD10BD08B51430FFF71EFD08BD10B580
:1049C000041C201C5C30FFF717FD0028F9D120697A
:1049D000FFF77EFD10BD08B51430FFF7FFFC08BDE2
:1049E00008B55C30FFF70EFD08BD08B51430FFF7C1
:1049F00013FD08BD70B5041C00690E1CFFF784FD93
:104A0000251C5C35002804D0281CFFF7F5FC002885
:104A10000CD0281CFFF709FD0028FAD1281C311CF6
:104A2000FFF7CDFC2069FFF77FFD03E02069311C13
:104A3000FFF773FD012070BDF7B51D1C08AB1B7897
:104A4000041C009309AB1B78161C019300234360E0
:104A5000FA239B0083600B4B0F1C08330360143058
:104A6000FFF7A2FC201C5C30FFF79EFC009A231C81
:104A7000A43327619A70019A1E705D70201CDA7051
:104A8000FEBDC04698B1000038B5041C0069FFF7B0
:104A90002BFD002807D02069FFF73BFD011C201CDF
:104AA0001430FFF78CFC2069FFF72EFD002811D091
:104AB000251C5C35281CFFF79FFC002807D0281C0C
:104AC000FFF78CFCC1B22069FFF727FD02E02069E7
:104AD000FFF730FD2069FFF70CFD002805D02069A5
:104AE000FFF70BFD2069FFF7FBFC38BDF023081C26
:104AF00018403038434258417047F0231B01194099
:104B000080239B0099420CD0C0239B00994206D081
:104B100080235B000520994204D0002002E007209A
:104B200000E0062070470F231940012905D0023903
:104B30004B424B410220C01A00E0002070470000A9
:104B4000F0B5031C85B00391A433041C1827187812
:104B50003B1C43431B4E0821F3185956151CFFF705
:104B6000AFFA231CA533187808214743F61971566C
:104B7000FFF7A6FA01210A1C039B2069FFF78CFEB0
:104B8000291C201CFFF7B9FF291C071C201CFFF75C
:104B9000CAFF291C061C201CFFF7A8FF391C009027
:104BA000331C20690122FFF74CFC231CA733197822
:104BB000013B1A782069FFF760FC2069FFF77EFC53
:104BC00005B0F0BD68AD000010B5041C006803F02E
:104BD0000BFA201C10BD10B5041C0068002801D081
:104BE00003F002FA00232360A360636010BD38B5B0
:104BF000041C0D1C0068013103F034FB002801D0B7
:104C000021C4012038BD036810B5041C002B02D05C
:104C100043688B4209D2201CFFF7E9FF002805D02A
:104C2000A368002B01D122681370012010BD70B55C
:104C30000E1C111C041C151CFFF7E5FF002803D1F6
:104C4000201CFFF7C8FF04E0A5602068311C03F0BA
:104C500027FB201C70BD38B50023041C0D1C03600D
:104C600043608360994207D0081C03F021FB291C94
:104C7000021C201CFFF7DBFF201C38BD38B5041CCC
:104C80000D1E08D0081C03F013FB291C021C201C5D
:104C9000FFF7CDFF01E0FFF79EFF201C38BD1FB5D9
:104CA0000023041C036043608360081C01A901F019
:104CB00032F9201C01A9FFF7E1FF201C04B010BD50
:104CC00010B500238AB0041C036043608360081C95
:104CD00001A901F0E8F8201C01A9FFF7CFFF201C73
:104CE0000AB010BD38B50D1C002A14D0002912D00E
:104CF00081688B4202D300232B700CE0541EC91A2A
:104D00008C4200D90C1C0168221CC918281C03F015
:104D1000D6FA00232B5538BD3F20704713B50268E3
:104D20006B46D97107335468191C0122A04716BD80
:104D300008B50069022100F037FC08BD08B500691C
:104D4000032100F047FC08BD38B50D1C041C131CE2
:104D5000006903212A1C00F039FD002801D101233C
:104D6000636038BD10B5054C23685A1C04D1036834
:104D70005B6998472060031C181C10BD6800002068
:104D8000074A08B51368591C04D001214942116033
:104D9000181C03E00069022100F00AFD08BDC046AE
:104DA0006800002008B503780349023303704222EB
:104DB000024800F0C1FD08BD240000201F0B0020A8
:104DC00010B50178031C42780020A12908D1212ABE
:104DD0002FD118481849072200F0AEFD012028E025
:104DE000212926D1202A05D113490722114800F094
:104DF00037FC04E0222A10D19A780F4BDA710E4B5F
:104E000096221968D200914210D1DC7901231C400E
:104E10000CD1FA20FFF780FA0AE0232A09D1DA78C8
:104E20009B7812021A43054B1A6002E0FFF77AFAE8
:104E3000002010BD1F0B00201800002020000020C3
:104E400070470000064BFA2189009960054900224D
:104E50000831196004495A6019611A767047C046D2
:104E600054060020D0B100001F0B002010B507230E
:104E70000F220240141C00093034092A00DD0734D7
:104E8000CC54013BF4D210BD70B5C2B219495301E4
:104E9000CB189E68184DC0242E40A40526439E6062
:104EA000164E800109683018083258605201505C73
:104EB0000726B0430126304350549E6935402C43A9
:104EC0009C610F4C5C61505C7024A0431024204313
:104ED00050549C680B488A18204080246403204367
:104EE000986098684021800B8003986053790B4349
:104EF000537170BD280B0020FFFFFF8F4009002079
:104F00007C070020FF3F00F038B5041C08CC0121CD
:104F10001A78051C0A431A708022201C00215200B6
:104F200003F075F82B689A78D107FCD45C6238BD21
:104F3000134BF0B51B6899035A029B01C90ED20EA0
:104F40005B0F1F2900D105211F2A00D11D22072B2D
:104F500000D1032304688E01278D0A491F2539409B
:104F60003143218501682A400C8DAC4322430A85D8
:104F700002681903108D044B03400B431385F0BDE9
:104F8000246080003FF8FFFFFF8FFFFFEFF31083E7
:104F900003600123436072B670470368002B02D19F
:104FA00062B6BFF36F8F704737B50569041C68465A
:104FB000002D12D1FFF7EAFF019B013B03D3621DD5
:104FC000D57FEDB2F9E768460193FFF7E6FF0020D1
:104FD000854217D0206AE36913E0FFF7D7FF019BF2
:104FE0000025013B04D3221C34321578EDB2F8E7DA
:104FF00068460193FFF7D1FF0020854202D0206B65
:10500000E36AC01A3EBD0000436810B51A68037A0F
:1050100001215B01D318FF339A7A0A439A72037A0B
:1050200042685B01D318C2689C6891040B4A090965
:1050300022400A439A60037A42685B01D3189A6857
:105040004021920B92039A6043681A68037A0833EE
:105050005B01D3181A790A431A7110BDFF3F00F0A3
:10506000F7B50569041C0E1C171C6846002D1FD1DE
:10507000FFF78CFF019B013B5A1C06D0621DD17FBC
:105080005A1E00293AD0131CF6E768460193FFF731
:1050900084FF0025E369BD4235D0226A934232D2B3
:1050A0005A1CE261A269D3181B7873550135F1E7E8
:1050B000FFF76CFF019B013B5A1C08D0221C3432C5
:1050C00015785A1EEDB2002D18D0131CF4E768466F
:1050D0000193FFF762FF0025E36ABD4226D0226BF1
:1050E000934241D322E0621D0021D17730321678FD
:1050F000581E8E4214D1031C5A1CF4D168460193E9
:10510000FFF74BFF38E0226A934235D10023E36179
:10511000012323616846FFF739FF019B013BEBE761
:105120001170201C0193FFF76FFFF6E7226B93428B
:1051300022D10023E36223616846FFF727FF019B2A
:10514000013B5A1CDAD0221C34320021117001328A
:105150001678581E8E4201D1031CF2E71170201CF4
:105160000193FFF751FFEAE75A1CE262A26AD318E3
:105170001B7873550135AFE7281CFEBD37B5436872
:10518000027A1B68083252019A18041CD079012354
:10519000FF21184255D0D371A0686569626801404B
:1051A000002D1FD14901521891688904890C216290
:1051B000216A002942D06361A36A68465360FFF701
:1051C000E5FE019B013B5D1C34D0621D0120D077C0
:1051D0002F3211785D1EC9B21218002915D1117035
:1051E0002B1CF0E74B01D3189A689204920C2263AF
:1051F000226B002A22D000226261A26968465A60AE
:10520000FFF7C4FE019B013B12E00193107068465A
:10521000FFF7C3FE15E0221C343201201070621D1E
:10522000D17F5D1EC9B230320029EED111702B1C26
:105230005D1CF0D168460193FFF7AFFE201CFFF71D
:10524000E3FE37BD37B500236C46E3710734201CFD
:105250000D1CFFF7A7FD2B681818286000F0AAFEA8
:10526000211C00F060FE2B681818286020783EBDD5
:1052700003290BD10D4BB2221B685200985C802190
:10528000494201439954022168220CE001290CD1C2
:10529000064B92221B685200985C802149420143D0
:1052A000995402212822FF3299547047280B00207C
:1052B00038B5304B00240121051C1A201C70FEF764
:1052C00075FE1A200121FEF7CBFE2B4B1920012180
:1052D0001C70FEF76BFE19200121FEF7C1FE274B63
:1052E0002021DA6901200A43DA61254B06241A7865
:1052F00002431A70234B0F221978914319701978C1
:105300002143197020490C782043087019780A400D
:105310001A701A7860210A431A701C4B1C4A5A8072
:105320005A78D209FCD11B48FEF78AFC1A4C201C83
:10533000FFF7EAFD201CFFF7FBFD23687F221978A9
:105340000A401A701A7804210A431A701A890C212B
:105350008A431A81C121114A890050580002000A6B
:105360005050802111601A7802210A431A700123DB
:105370002B7038BD3C090020240B002000040040A5
:10538000584400413C44004159440041000C004055
:1053900006400000FD5D0000280B002000E100E059
:1053A0000078002810D0094B01211B681A898A4314
:1053B0001A811A8B08210A431A831A8B04210A4383
:1053C0001A83034B00221A607047C046280B002046
:1053D0002C0C00200F4B9A69920B92039A611B6868
:1053E0000222FF331A7298798022524202439A7144
:1053F0001A7A9007FCD5084B081C997A7F22104036
:10540000914301439972997A802252420A439A72D7
:105410007047C046280B00200050004110B50B79A2
:105420000C1C002B0BD1081CFFF7CAFC002804D170
:10543000094B9A69920B92039A6101200BE000F0EC
:10544000B9FD211C00F0A3FD0028F6D1024B9A699A
:10545000920B92039A6110BD280B0020F8B50D1C29
:10546000832A16D1CAB242495301CB189C694148DC
:10547000AD012040C024A405204398613E48083275
:1054800045195D610B685201D15C70208143402059
:1054900065E0022A45D1382000F041FD374B344FFA
:1054A0008026036076000023421D0362036143618E
:1054B000C36147608560C660D3772F32041CC36226
:1054C00003631370301C537002F084FDA061301C24
:1054D00002F080FDFF232A1C1A405201A062BF186F
:1054E000B968244A07260A40C02189050A43BA60E0
:1054F000A16862681940126808314901885CAD00F2
:10550000B043032630438854A16862680B405B01B6
:10551000A169D3185960201CFFF776FD184BEC5099
:1055200025E0822A1ED1CAB211495301CB189C69C9
:105530001048AD012040C024A405204398610E48C6
:10554000083245195D610B68520199180C79802069
:10555000404220430871D15C7020814330200143D8
:10556000D15404E0002A02D1081CFFF78DFCF8BDDD
:10557000280B0020FFFFFF8F7C07002000B20000F7
:10558000000B002038B5051C0124064BA200D258A0
:10559000002A06D0211C281C0134FFF75FFFE4B26B
:1055A000F3E738BD6C00002008B5084B8A00D058DE
:1055B000002803D003689B68984706E0C9B2044BF3
:1055C0004901591888688004800C08BD000B002030
:1055D000280B002010B50C1CFFF7E6FF00280CD0AC
:1055E000064BE1B21B680831490159184A798023FA
:1055F0005B4213434B710223CB7110BD280B00207B
:1056000070B5CAB2134B14485401890159180319D3
:1056100059609D681149083229408025AD0229430F
:10562000996099684026890B890399600368510144
:1056300059180D7935430D715101591889794D0665
:10564000FAD551015918C979CD07FAD50419A068BE
:10565000C0B270BD40090020280B0020FF3F00F0C1
:1056600038B50C4B141C1B680D1CFF335A794021B4
:105670000A435A710021FFF7C3FFA04200D9201C42
:105680000023A34204D0044A9A5CEA540133F8E7A9
:1056900038BDC046280B00204009002010B5C9B213
:1056A0000C48490143189A689204920C3F2A08D981
:1056B000141C9A68403CA404920BA40C920322434D
:1056C00002E09A68920B92039A6041188868C0B20F
:1056D00010BDC046280B0020F0B51C1C2F4B85B018
:1056E0001B68061C0D1C0292002B51D02C4F3978E0
:1056F000C9B2002902D11920FEF7B2FC64233B7025
:10570000284BAA00D058002805D0036802995B688E
:10571000221C984740E0301C291CFFF745FFA0429F
:1057200004D2301C291CFFF73FFF041C291C301C2D
:10573000FFF7B4FF1C4FE9B24A01019139680392A7
:105740008B18FF335A7A01210A4318495A72AB0168
:10575000C9180298221C02F051FC002C1BD0301CEE
:10576000291CFFF721FF002815D1019B3A68083357
:105770005B01D31819794020014319710121D971B6
:1057800003995318FF339A7A01210A439A7202E06F
:105790000120404200E0201C05B0F0BD2C0C002090
:1057A000240B0020000B0020280B002040090020C3
:1057B00013B56C460734221C0123FFF78DFF012827
:1057C00001D1207801E00120404216BDF0B51C1C3B
:1057D0003F4B85B01B680E1C0292002B6AD08023C1
:1057E000DB019C4266D83B4D2978C9B2002902D121
:1057F0001A20FEF735FC642300222B700092002C47
:1058000056D0354DF7B22B6801933B1C0833019AF3
:105810005B01D3189B79DB091AD0304B30491868EB
:1058200000F014FC2F4B1721584300F00FFC3B1CD9
:105830000833019A5B01D318DB799A0708D42A4B05
:105840009A5D002A38D1421E002835D0101CEEE7A0
:10585000254B00229A55251E3F2D00D93F25234A6E
:10586000B301D318181C02992A1C039302F0C6FB3B
:10587000194A7B01D318039AA9045A619A69890CC1
:10588000920B92030A439A613B1C019A08335B0115
:10589000D3180222DA715979802252420A435A718E
:1058A000009B029A5B1952190093641B0292A6E7AF
:1058B00000980BE0012008E001229A557B01ED18C9
:1058C000AB69101C9B0B9B03AB61404205B0F0BD64
:1058D0002C0C00203C090020280B00201000002088
:1058E00040420F0070110100740700207C07002067
:1058F00070B50E4D1C1C8B01ED18281C0E1C111CC4
:10590000221C02F07BFBF6B20949760189194D6130
:105910008A69084B201C13408B618B69A2049B0B86
:10592000920C9B0313438B6170BDC0467C07002023
:10593000280B0020FF3F00F0F7B5114B01901B78BA
:105940000F1C141C002B19D10E4B1E78002E01D1F8
:10595000151C08E00C4D0D482E888019361902F0F0
:105960004DFB2E800AE0002D08D0BA192B1C01989F
:105970000021FFF7BDFF36182D1AF4E7201CFEBDED
:105980001E0B00201C0B0020720700207106002057
:10599000F8B50E1C00AF151E012D28D9D31DDB084C
:1059A000DB006A46D21A9546081C02F081FC0130E1
:1059B0006C4640000323207063700222AA420ED27C
:1059C0003378002B0BD0511CC9B20136A354A94225
:1059D00004D0002302326354D2B2EFE72A1C0548F8
:1059E000211CFFF7A9FF431E9841C0B200E0002030
:1059F000BD46F8BD1F0B002008B5044B00221A70ED
:105A0000034B04491A88FFF797FF08BD1C0B0020C1
:105A10007207002071060020F0B5204A87B00123EC
:105A20000026009102A91370051C0296FFF70AFCDC
:105A300003AC092701903A1C201C311C02F0E7FA44
:105A400002236370A023E371FA232372029B0122D5
:105A5000DB196380019B62712371104A009B2770E0
:105A60001670BB4205D1281C211C1A1CFFF764FFCD
:105A700011E00B4B01221A700A4B211C3A1C281C06
:105A80001E800296FFF758FF281C02A9FFF7DAFBD9
:105A9000281CFFF7B1FF012007B0F0BD1E0B00204E
:105AA0001C0B00207207002070B5CE7892B0051C48
:105AB0000C1C022E08D1C9882D48FFF7ADFF031C2E
:105AC000581E8341D8B251E000F074FA211C00F056
:105AD0003FFA002803D0C3171B1AD80F46E0012E47
:105AE00004D1E2882349112A3BD837E0032E3DD167
:105AF000A278002A05D12049E2880B7893422DD85C
:105B00002FE0022A03D1A279281C1C4904E0012AB3
:105B100005D1A2791A49281CFFF73AFF26E0032A8B
:105B200024D1184B01A91868FFF7A0F9164B03A957
:105B30001868FFF79BF9154B05A91868FFF796F948
:105B4000134B07A91868FFF791F900F033FA09A978
:105B500000F00EFAA279281C01A9DDE7D2B2002AD2
:105B600000D10A78281CFFF7E7FE012012B070BDB3
:105B70001F0B002020B200001CB2000032B2000057
:105B800010B200000CA0800040A0800044A0800063
:105B900048A0800073B5051C48780C1C0B2878D8E9
:105BA00000F04AFA081C7728773E4306474B686F97
:105BB00000206FE0097801AA002903D1117051700B
:105BC000281C09E0002313705370334B1B78012B02
:105BD00000D11370281C002102234FE08A78002393
:105BE000012A04D101AA137053702C4BEEE72A4A04
:105BF000137049E08E78012E07D1284B01AA0021AD
:105C00001E701170281C331C38E0002E08D1224A67
:105C100001231370224A9169890B8903916138E04D
:105C2000A178281CFFF7D6FB33E0281CFFF73CFFC8
:105C300030E0281C00211B4A1FE00A780020D30610
:105C400028D1281CFFF79EFCA2781549154B022489
:105C50001A600A682A23FF33D05C2043D0544A20BC
:105C6000FF30145C01231C4314548A69920B920385
:105C70008A610EE00C4A281C00210123FFF738FE40
:105C800007E08A78084B1A60054B9A69920B9203D9
:105C90009A61012076BDC046700600201D0B0020D1
:105CA000280B00202C0C0020200B0020F8B54B4BBB
:105CB000071C1C78002C00D08EE0494D2868838B8F
:105CC00019070DD5201CFFF7DFF82B6810201A1CD0
:105CD000FF32917A01439172424A146008229A83FA
:105CE0002B689A8B50071FD504229A833E4B1A7853
:105CF000002A0AD01A78013AD2B21A701B78002B07
:105D000003D11A200121FEF7ABF9384B1A78002A8B
:105D10000AD01A78013AD2B21A701B78002B03D13C
:105D200019200121FEF79CF92B68FF331A7AD1065E
:105D300026D510221A725A7940210A432C495A71E9
:105D40000A786023381C1A4202D1FFF723FF01E0D2
:105D5000FFF764FB002806D02B688022FF33997977
:105D600052420A4301E0234B20229A712B68FF33F1
:105D70001A7A500604D540221A72597A0A435A7286
:105D80002968FE230E8C00241E40E1B2002E23D091
:105D9000321C012322411A4216D0221C28680832E4
:105DA00052018218D079184203D1D279DA401A42CE
:105DB00007D0114BA200D058002809D003681B68F7
:105DC00098470123A3409E430134092CDDD103E011
:105DD000381CFFF74DFAF4E7F8BDC0461C0B002055
:105DE000280B00202C0C00203C090020240B002054
:105DF00040090020FF500041000B002008B5024878
:105E0000FFF754FF08BDC0461F0B0020014A024B9C
:105E10001A60704700500041280B0020F0B58FB089
:105E20000D1C029235D0131C023B222B33D80A2AB8
:105E300033D1002831DA01234642039305AC0194A3
:105E4000002E12D0301C029900F044F9301C0F1CB7
:105E5000029900F0FBF8631C061C092F01DC3037A7
:105E600000E0573727701C1CEAE7019A9442E9D0FA
:105E7000039A2B1C002A02D02D226B1C2A70019A37
:105E8000944204D9013C22781A700133F7E70022CA
:105E90001A70281C05E0002003E00022061C039273
:105EA000CCE70FB0F0BD08B5FFF7B8FF08BDF0B5FF
:105EB0008DB0061C0D1C019228D0131C023B222B16
:105EC00026D803AC0094002E12D0301C019900F0AB
:105ED00001F9301C0F1C019900F0B8F8631C061C76
:105EE000092F01DC303700E0573727701C1CEAE728
:105EF000009A9442E9D02B1C009A944204D9013CA8
:105F000022781A700133F7E700221A70281C00E08B
:105F100000200DB0F0BD08B5FFF7C9FF08BD08B5FA
:105F200002F058F808BD70B544680E1C0025002C1E
:105F300009D02368201C5B68311C9847002804DBCB
:105F40002D18E468F3E7281C01E00120404270BDF1
:105F500038B544680D1C002C08D02368201C9B68B1
:105F6000291C9847002802D1E468F4E7201C38BDBA
:105F700038B544680D1C002C07D02368201C291C50
:105F8000DB689847E4682D18F5E72C7038BD38B504
:105F900044680D1C002C08D02368201C1B68291C99
:105FA0009847002803D1E468F4E7201C00E00120B2
:105FB00038BD0000064B0122196810B51140054894
:105FC00005D1022404700424447041601A6010BD9D
:105FD000380C0020300C00200B1C011C021C30B5BA
:105FE00019430220002900D130BD802109068B42CF
:105FF00016D00D4904205C180C498C42F4D90C4D84
:106000005C198C42F0D90B4C590049080320A1427D
:10601000EAD9074C0020A142E6D150425041E3E7C3
:10602000002AE1D0EFE7C0460000F0FFFFFFDF7F6E
:106030000000F07FFFFF0F0002B4714649084900DD
:10604000095C49008E4402BC7047C046002934D028
:106050000123002210B488422CD301242407A1423A
:1060600004D2814202D209011B01F8E7E400A142F7
:1060700004D2814202D249005B00F8E7884201D392
:10608000401A1A434C08A04202D3001B5C0822436A
:106090008C08A04202D3001B9C082243CC08A042DB
:1060A00002D3001BDC082243002803D01B0901D0C7
:1060B0000909E3E7101C10BC7047002801D000203C
:1060C000C04307B4024802A14018029003BDC04675
:1060D000D90000000029F0D003B5FFF7B9FF0EBCCE
:1060E0004243891A1847C046002941D010B4041C05
:1060F0004C40A44601230022002900D54942002833
:1061000000D5404288422CD301242407A14204D266
:10611000814202D209011B01F8E7E400A14204D246
:10612000814202D249005B00F8E7884201D3401A5D
:106130001A434C08A04202D3001B5C0822438C087F
:10614000A04202D3001B9C082243CC08A04202D3E9
:10615000001BDC082243002803D01B0901D00909D9
:10616000E3E7101C6446002C00D5404210BC704789
:10617000002806D003DB0020C043400801E0802057
:10618000000607B4024802A14018029003BDC046B1
:10619000190000000029EBD003B5FFF7A7FF0EBCE4
:1061A0004243891A1847C0467047C0468446101CAF
:1061B00062468C46191C634600E0C0461FB500F0DD
:1061C0005BFF002801D40021C8421FBD10B500F0BC
:1061D0008BFE4042013010BD10B500F04DFF00288D
:1061E00001DB002010BD012010BDC04610B500F03D
:1061F00043FF002801DD002010BD012010BDC04676
:1062000010B500F0BBFE002801DC002010BD01200D
:1062100010BDC04610B500F0B1FE002801DA002024
:1062200010BD012010BDC0464302590A4300C20FF1
:106230001B0E00207E2B0DDD9D2B0CDC802000042E
:106240000143952B0ADC9620C31AD9404842002A04
:1062500000D1081C7047034BD018FBE7963B9940D0
:10626000F4E7C046FFFFFF7FF8B55F465646444659
:106270004D46F0B40C034D00CE0F610A440F21438C
:10628000C400180380465800400D8246D80F84464B
:106290004046400A530F0343D0006D0D371C834620
:1062A0005246664500D19DE0AF1A002F00DC03E1A5
:1062B000002A38D1184300D0E4E0630709D00F2347
:1062C0002340042B05D0231DA342A4416442091995
:1062D0001C1C080200D478E0CE4B6A1C9A4200D104
:1062E00005E1CD4BE4081940480752054902044333
:1062F0000B0B520D371C002000211B03201C1C0B14
:106300000B0D1B05C54D2343520552081D40154377
:106310006D006D08FF07291C39433CBC9046994627
:10632000A246AB46F8BDBB488542C6D080200004DB
:106330000343382F00DDECE01F2F00DD20E120209B
:10634000C01B1A1C814682405846F84002439446BE
:1063500058464A469040421E9041FB4062460243E6
:106360001F1CA21A9442A4416442C91B091B141C9D
:106370000B02A2D549024F0A002F00D1C4E0381CFD
:1063800001F0E4FD021C083A1F2A00DDB7E02821D5
:10639000091A201C9740C84007439440954200DDED
:1063A000A9E0551B691C1F2900DDD8E01F22551BE1
:1063B0003B1C221CAB40CA40AC40651EAC411343A1
:1063C000CF401C43391C002577E74807E4086A05DD
:1063D000C908520D371C04438E4B9D4248D0090317
:1063E0000B0B88E7AA1A9446002A00DC98E0504676
:1063F000002853D08748854200D15EE78020000402
:1064000003436246382A00DDFDE01F2A00DD4BE130
:1064100020226046101A1A1C824082469146584635
:106420006246D0404A460243904658465246904003
:10643000421E9041424602436046C3401219A242A6
:10644000A441644259180919141C080200D434E705
:10645000704B01359D4200D124E16F4B600819401B
:10646000012323401C1C0443CB071C43490824E799
:106470000B1C234300D1C7E180231B030B431B03E9
:106480001B0B38E7013F002F64D15846221A944273
:10649000A4416442C91A091B141C69E758461843F1
:1064A00000D10AE70122524294446046002800D0FD
:1064B000C5E058460219C2E7002F72D1681C40059A
:1064C000400D012800DCDEE05A46A21A9442BF418A
:1064D000C81A7F42C71B380200D488E05A46141BF2
:1064E000A3459241591A52428F1A664644E7371C17
:1064F00000230024FFE64849AD1A3940DDE6271C99
:1065000028388740002449E7201C01F01FFD203077
:1065100038E75A461A43531E9A41D2B2002720E761
:10652000002A00D0DDE0681C4205520D012A00DC83
:106530008EE0384DA84200D1B3E05D462A19A24250
:10654000A441644259180919CC0752081443490858
:10655000051CB2E62F48854200D0EAE6ADE62B1CCA
:106560001F3B3A1CDA40131C20296DD03F22551BDB
:10657000AF403C43601E84411C43002100259CE643
:10658000381C20381A1CC240101C202F5ED040221C
:10659000D71BBB405A461A43531E9A410243002759
:1065A000DFE6002D3CD01B4DAA4500D194E08025AC
:1065B0002D047F422943382F00DDADE01F2F00DD81
:1065C0002CE12025ED1B081C261CA840FE40AC40F9
:1065D0000643651EAC413443F9405D462C1BA34580
:1065E00092415B1A5242991A55466646C0E6131C00
:1065F0003B43141C002B00D0BEE6002700220025E0
:1066000000210024E8E65A461A43531E9A41D2B2AA
:10661000002313E7FF070000FFFF7FFFFFFF0F804E
:106620000D1C254358D0FF43002F51D1041BA34517
:106630009241591A5242891A5546664698E696483A
:10664000854200D0DDE638E6002792E70023A1E787
:10665000081C2043002D00D0C0E0002800D1FBE042
:106660005846184300D128E658460219A242A441D0
:10667000644259180919141C0A0200D41DE6874BFC
:106680000125194019E6081C2043002D39D10028A6
:106690006DD15946194300D1BDE0191C5C466646D0
:1066A0000BE6051C2A1CABE7604620381A1CC240CA
:1066B00060469146202800D1ABE04022121A934058
:1066C0005A461A43531E9A414B461A430023B5E6D5
:1066D000714DAA4500D06EE7191C5C4655466646CA
:1066E000EBE5002D1ED10D1C254373D0D543002DA5
:1066F0006DD15C445C459241591852428918554607
:10670000A3E6002849D15946194300D196E0191C47
:106710005C466646604DD0E50C43611E8C41E4B298
:1067200000215AE75C4DAA4554D0554280221004FE
:106730000143382D00DD85E01F2D00DD95E020228E
:10674000501B0A1C84468240201CE84002439046AD
:1067500062469440601E844142461443E9405C44D2
:106760005C459241CB185242991855466DE6584601
:10677000184300D1A1E55846271ABC429241C81AD5
:106780005242801A02026AD55846041BA345924120
:10679000591A5242891A66468FE55846184336D030
:1067A0004807E40804438020C9080003014208D0D8
:1067B000DD08054205D15946CA085C071443291C67
:1067C0006646630FC9001943E400334D75E5324A4C
:1067D0009245AED1191C5C4655466EE5002837D06F
:1067E0005846184313D080254807E408C9082D03EC
:1067F00004432942E5D0D8082842E2D15D46EA08A0
:106800005C071443011CDCE70023002473E5224DE0
:1068100053E5002354E700270022F1E63D1C203D0C
:106820000A1CEA40151C202F31D04026F71BB94026
:106830000C43611E8C412C430021CEE6164A0027F2
:10684000151CDDE60C43611E8C41E4B2002186E795
:10685000191C5C46104D30E5191C5C462DE5031CE7
:106860003B43D8D0011C3C1C27E520204042401966
:106870000A1CC2409046202D0BD04020451BA94049
:106880000C43611E8C4145462C43002167E70021E3
:10689000CEE70021F4E7C046FF070000FFFF7FFFBF
:1068A000F0B5564644465F464D46F0B41F1C0B03F8
:1068B0001B0B98464B0087B0041C81465B0DC80F2C
:1068C000161C9A460090002B51D06A4B9A4531D045
:1068D0008022414652030A43630FD2001A43664B9B
:1068E00090460025E20091469A44002402953B031D
:1068F0001B0B9B46FD0F7B00311C5B0D019560D08F
:106900005C4A934254D08021584649030143720F98
:10691000C9001143584A8B469B18F1000020009A89
:1069200004436A4003920F2C00D9ADE0534EA400FB
:106930003459A746404604436ED10021022508245D
:10694000884689460295D2E7009C0298C34649468C
:106950000194022864D0032800D1ABE2012800D0C2
:1069600038E2019A002402400025A14660E0434637
:1069700023434AD04046002800D1C0E101F0E6FAA6
:10698000031E272B00DDB3E128210D1A211C083B33
:106990004246E9409A400D1C1543221C9A40A846E5
:1069A0009146374B00251B1A9A46002402959EE714
:1069B0005A4616430320002EB1D1B34600210220CF
:1069C000ADE75A4632431BD05B46002B00D18AE12B
:1069D000584601F0BBFA272800DD7DE12822171A6E
:1069E000011C321C08395B46FA408B40171C1F43C0
:1069F000331C8B40BB46191C214B1B1A00208EE711
:106A00000027BB460021012089E70020012504243E
:106A10008046814602956AE703250C24029566E7C5
:106A2000019C0394039D01222A400024114DA1469C
:106A3000002000212403260B0C0D2405114B3443A8
:106A40002D0523402B435B005B08D207191C4846E9
:106A5000114307B03CBC90469946A246AB46F0BDF8
:106A60000022802424039146024DE1E70024002502
:106A7000A146DDE7FF07000001FCFFFF40B2000078
:106A80000DFCFFFFFFFF0F805546ED1A0495D8451A
:106A900000D953E100D14EE1049C0025013C4E4653
:106AA00004944746A946584603020C0E1C430902AB
:106AB000250C23041B0C0091381C291C0193FFF7A3
:106AC000C5FA019983464143381C8A46291CFFF7C1
:106AD00001FB330C090419438A450CD95B4609199B
:106AE000013B8C4200D947E18A4500D844E10222AB
:106AF0005242934409195346CB1A181C291C984634
:106B0000FFF7A4FA071C0198291C784382464046E7
:106B1000FFF7E0FA36040B04360C33439A4509D9E3
:106B20001B197A1E9C4200D924E19A4500D821E124
:106B3000023F1B195E4632041743380CBB46009EC9
:106B4000009F51463F0C32045B1A5946BA46120C5C
:106B50000F043F0C904651467A434F434146414310
:106B600056467043CF19160CBE19B14202D9802780
:106B70007F02C019310C12043604120C4018B618EA
:106B8000834200D2C4E000D1BEE0191A4846861BF9
:106B9000B145BF417F42CF1BA74200D113E1291C61
:106BA000381CFFF753FA019902904143381C89467B
:106BB000291CFFF78FFA330C0904194389450CD9B6
:106BC000029B0919013B8C4200D9FFE0894500D89E
:106BD000FCE0029F0919023F02974F46CF1B381C69
:106BE000291C0597FFF732FA071C0198291C7843E6
:106BF00081460598FFF76EFA36040904360C0E43F9
:106C0000B14509D936197B1EB44200D9E0E0B1453F
:106C100000D8DDE0023F3619029D4946761A290464
:106C200039430B0457460A0C1B0C40464546584353
:106C300055437B437A43EB18070CDB199D4202D97D
:106C400080256D0252191D0C00041B04000C521902
:106C50001B18964235D300D1FCE001231943049E52
:106C6000994FF519002D00DCA1E0480709D00F234A
:106C70000B40042B05D00B1D8B42894149428B44AC
:106C8000191C5A46D20107D5904B5C46049E8027BA
:106C90001C40FF00A346F5198D4B9D427ADD039CF5
:106CA0000122224000248B4DA146C1E6802424030A
:106CB000474627424CD13C432403240B009A854D80
:106CC000B6E63619481EB4425ED9011C9642C4D1BC
:106CD000009E9E42C1D1C2E7031C283B311C994053
:106CE0008B46002188E6301C01F030F9203072E636
:106CF000283B211C994000228846914651E6201CE1
:106D000001F024F920303BE60021B14500D33DE7F6
:106D1000009F5A46B944B945BF417F423F19FB180D
:106D2000013A9C421ED2984200D97EE000D1B5E0E3
:106D3000191A93462AE7894500D8ADE648464646E3
:106D400042467708D3074608C0071E438146AAE695
:106D50005846204212D1044324032A1C240B89469E
:106D60005C4D65E6A342E3D1009F4F45DBD9211A74
:106D700093460BE7171CDDE69B46BCE63C43240329
:106D8000240B009A534D53E6B24259D800D18AE001
:106D9000011C62E75F46C9087B07039E0B437C0228
:106DA0006D0501229946240B6D0D324040E64A4B99
:106DB000049FDB1B382B10DD039C012222400024A2
:106DC0000025A14634E60121494248E7029304E741
:106DD0001F1C21E7019C039441E71F2B40DC3F4827
:106DE000049F0C1C3A1858469140DC4090402043C8
:106DF0000A1C511E8A41011C11435A46DA40131CD9
:106E0000480709D00F220A40042A05D00A1D8A42E9
:106E1000894149425B18111C1A0234D5039C012296
:106E2000224000240125A14602E6009F022149429A
:106E3000B9448B44B945894149420919CB18A4E6A4
:106E4000009D881E6900A942AD416D422C1936197A
:106E500000913AE7002B00D033E70024009437E795
:106E60001F4A049C5D46121BD5402A1C202B1FD0B4
:106E70001C4E5F46A3199F403B1C19434B1E994172
:106E800011430023BCE75A07C9080A43039F9146F0
:106E90005B0201221C0B3A400025C9E54E45C4D8CF
:106EA0009346002172E6009F9F42C9D3011C0FE761
:106EB0000023E2E7802424035F463C432403240BA1
:106EC000019A8946034DB3E5FF030000FFFFFFFE73
:106ED000FE070000FF07000002FCFFFF1E04000089
:106EE000E2FBFFFF3E040000F0B55F4656464D460C
:106EF0004446F0B40D1C041C8046E80F814618037C
:106F00000F03000B3F0B83B084461B4800974900DA
:106F10005E00DF0F490D9246760DBB4681420CD0D4
:106F20001548864210D00120B14215D003B03CBCB8
:106F300090469946A246AB46F0BD009F01202743EC
:106F4000F4D10D488642EED1604602430120002A6A
:106F5000ECD10120B142E9D1009B6345E6D1D04597
:106F6000E4D1D94506D00029E0D11C43201C441EA1
:106F7000A041DBE70020D9E7FF070000F0B55F463E
:106F800056464D464446F0B4CD0FDE0FAC461D03C9
:106F90002D0BB146374E0F034C00AB465D008046CB
:106FA0003F0B640D92466D0DB44232D0314EB54266
:106FB00035D0002C0ED1384341424141081C002DF0
:106FC0000BD0002919D1CC452DD06546684201234C
:106FD000184318E0002DF6D1281C59460A435342A5
:106FE0005341002806D1002BEDD0634658420123BF
:106FF000184308E00020002B05D14A46504250417A
:107000004042012318433CBC90469946A246AB46F9
:10701000F0BD3E1C0643C9D002204042F3E75E4665
:107020001643C6D0F8E7AC4207DC0BDA61464842AB
:107030004841404201231843E5E766467042012378
:107040001843E0E75F450AD80ED000205F45DAD24A
:10705000654668426841404201231843D3E76246CF
:10706000504201231843CEE7D045F8D80020D04540
:10707000EED3C8E7FF070000F0B556464D4644463C
:107080005F46F0B40D1C83B0041C0190E80F8146EC
:1070900018030F03000B3F0B844635480097490047
:1070A0005E00DF0F490D9246760DB846814234D01E
:1070B0002F48864236D0002918D0002E1FD1341C0C
:1070C00067463A4353425341002C1FD00020002B07
:1070D00005D142465042504140420123184303B07B
:1070E0003CBC90469946A246AB46F0BD009804438E
:1070F00060426041041C002EE2D00028E9D1C14565
:1071000015D04F46784201231843E8E7002BF6D00C
:107110004B46584201231843E1E7009F02202743D2
:10712000DDD1C5E7674602201743D8D1C3E7B14296
:1071300004DD4A46504201231843D0E7B14207DB41
:1071400000986045E4D80AD0009F00206745C6D269
:107150004F4678427841404201231843BFE7019AE5
:107160005245D5D8019A00205245F1D3B7E7C04621
:10717000FF070000F0B5564644465F464D46F0B462
:107180001F1C0B031B0B9A464B0087B0041C804648
:107190005B0DC80F161C02938146002B68D0694B0B
:1071A0000299994232D08022534652031A43D200A8
:1071B000630F1A439246644AE000891880460291A0
:1071C000002400253B031B0B9B467800FB0F321C61
:1071D000400D039300D175E05A4B984269D080224C
:1071E000594652030A43730FD2001A43564B934633
:1071F000C018F200002303994E4671401C430F2C27
:1072000000D9A9E0514EA4003459A74653461C4367
:1072100000D087E00025AA46A84608240225D1E729
:107220004946022D6CD0032D00D117E2012D00D06C
:1072300058E10D40EDB20024A9460023A0460020ED
:10724000002125030A0D1C052D0B1205404B2A4376
:10725000134023435B004C465B08E207191C404681
:10726000114307B03CBC90469946A246AB46F0BDE0
:107270005346234350D05346002B00D184E150465F
:1072800000F064FE031E272B00DD76E128210D1A95
:10729000211C083B5246E9409A400D1C1543221C14
:1072A0009A40AA4690462B4B00241B1A02930025B5
:1072B00088E75B461E430323002E9CD1B346002281
:1072C000022398E75B46334321D05846002800D17B
:1072D0004EE100F03BFE272800DD42E128210F1A95
:1072E000021C311C083A5B46F94093400F1C1F43B7
:1072F000331C9340BB461A1C164B181A00237AE71E
:1073000001230B4000249946A0460E4B97E7002727
:10731000BB46002201236EE7002104248A468846EA
:1073200001254FE70C2403254CE700258024A946BE
:107330002403A846034B82E7DA46904603991D1CB6
:107340006FE7C046FF07000001FCFFFF80B20000AE
:10735000FFFF0F800DFCFFFF029F160C38180490F2
:107360004046070C0004000C1204120C031C53438B
:10737000041C3D1C7443554398463B1C73436419DD
:10738000A44644460293230C63449D4204D9029DC3
:10739000802464022D1902951D0C039545462C048A
:1073A0001B04240C1C1905945C46230C051C584333
:1073B0002404240C8446381C604365435F438146A3
:1073C000CC44280C6044BB46814502D980277F020B
:1073D000BB442D04070C2D0C000440195546BC4637
:1073E0002F04E3448446280C3D0C2F1C5743B84619
:1073F0002F1C77434243B94647463F0C9144BA4657
:10740000D14446434A4502D980225202B6184F461B
:107410003A0CB6183A0447463F043F0CB8462F1CB6
:1074200067435D434443584365190190380C2D1858
:107430004244B846AC4204D9019880235B02C0188C
:107440000190039C029F201C6044C0196045A44128
:1074500047466442A4462B043C049946240C4C4401
:10746000A046D8448018C246E24490429241574612
:1074700052429146F219E245BF417F424B46BC461B
:10748000D845BF41D4187F4263461F432D0C7F1956
:10749000B24292414C45AD4152426D421543019E6C
:1074A0007D19AB19E20D5B02059F134342023A437B
:1074B0009A46531E9A41C30D101C18436402204380
:1074C00080465046C0010DD5454601225646049CD3
:1074D0006B082A401A43F30701341A4376080494D0
:1074E0009046B246049E634FF319002B61DD40467F
:1074F00040070BD00F2244462240042A06D04246C1
:107500000432424580414042824490465546ED0156
:1075100007D5594B5646049F80201E40C000B246F6
:107520003B18564A934200DDEAE644465546E208D7
:107530006807104301226C025B050A408046240B59
:107540005B0D91467BE6DA4690461D1C69E6802479
:107550002403574627421CD13C432403240B484BA9
:107560006DE6031C283B311C99408B460022C3E684
:10757000301C00F0EBFC2030ADE6283B211C99408C
:1075800000228A4690468EE6201C00F0DFFC203068
:1075900078E65846204207D1044303992403240B7C
:1075A00089469046364B4AE63C432403240B344B31
:1075B00045E6344B049E9B1B382B06DD01230B4014
:1075C00000249946A046002339E61F2B25DC049CA5
:1075D0002D4D46466019524644468640DC40824066
:1075E0005746301C2243DF40441EA04102433B1C4F
:1075F000540709D00F201040042805D0101D9042D8
:10760000924152429B18021C1D021AD501230B40C5
:1076100000249946A046012311E61C48049C5546C7
:10762000001BC540281C202B16D0194E5746A21906
:1076300097403A1C43461A43531E9A410243002383
:10764000D6E758075B02D2081C0B01230B401043FE
:10765000994680460023F2E50022EBE780242403CC
:1076600050460123044319402403240B8946044B4C
:10767000E5E5C046FF030000FFFFFFFEFE07000038
:10768000FF07000002FCFFFF1E040000E2FBFFFFFB
:107690003E040000F8B55F46564644464D46F0B4F9
:1076A0000C034D00CF0F610A440F2143C40018039F
:1076B000DE0F8046B44646465800760A530F3343E1
:1076C000D600C94A6D0DBA46400DB346904200D16E
:1076D000EBE06246012672409446674500D1A1E086
:1076E0002F1A002F00DC08E100283BD15846184330
:1076F00000D0E8E0600709D00F232340042B05D019
:10770000231DA342A441644209191C1C0A0200D48F
:1077100079E0B54B6A1C9A4200D109E1B34BE40809
:1077200019404807044349025205012750460B0BF4
:10773000520D0740002000211B03201C1C0B0B0DC9
:107740001B05AB4D2343520552081D4015436D00E8
:107750006D08FF07291C39433CBC90469946A24658
:10776000AB46F8BDA0488542C4D080200004034346
:10777000382F00DDF0E01F2F00DD24E12020C01BAA
:107780001A1C5E468240FE40324394465A4682406E
:10779000101C421E9041FB40624602431F1CA21A6D
:1077A0009442A4416442C91B091B141C0A02A1D5BE
:1077B00049024F0A002F00D1C9E0381C00F0C6FB77
:1077C000021C083A1F2A00DDBCE02821231C091AEC
:1077D0009740CB401F439440954200DDAEE0551BDF
:1077E000691C1F2900DDDDE01F22551B3B1C221CEC
:1077F000AB40CA40AC40651EAC411343CF401C4374
:10780000391C002576E74807E4086A050127564633
:10781000C908520D37400443734B9D4249D00903B8
:107820000B0B87E72A1A9446002A00DC9BE000280D
:1078300055D06D48854200D15CE7802000040343A9
:107840006046382800DD09E11F2800DD50E162466E
:107850002020801A1E1C8640B1465E46D6404A460D
:1078600032435E4686409046301C421E904142465E
:1078700002436046C3401219A242A441644259180F
:107880000919141C080200D434E7574B01359D42F6
:1078900000D142E1554B60081940012323401C1CD4
:1078A0000443CB071C43490824E71E4300D014E7D8
:1078B0000FE70B1C234300D1CFE180231B030B43B5
:1078C0001B031B0B36E7013F002F66D15E46A21B50
:1078D0009442A4416442C91A091B141C66E7584625
:1078E000184300D106E701267642B44460460028DA
:1078F00000D0CAE05E463219BEE7002F7AD1681C7C
:107900004005400D012800DCE3E05A46A21A9442EB
:10791000BF41C81A7F42C71B3E0200D492E05846BE
:10792000041BA3459241591A52428F1AE24641E77D
:10793000534601271F4000240023FBE62B49AD1AC4
:107940003940D7E6271C28388740002444E7201C0C
:1079500000F0FCFA203033E75A461A43531E9A418E
:10796000D2B200271BE7002A00D0E1E0681C4605E0
:10797000760D012E00DC91E01B4DA84200D1F7E00E
:107980005E463219A242A441644259180919CC0733
:10799000520814434908051CACE61348854200D040
:1079A000E6E6A7E62B1C1F3B3E1CDE40331C2029CD
:1079B00070D03F22551BAF403C43601E84411C43A6
:1079C0000021002596E6381C20381E1CC640301CBD
:1079D000202F61D04022D71BBB405A461A43531E6A
:1079E0009A4102430027DAE6FF070000FFFF7FFF0E
:1079F000FFFF0F80002D38D0B94DA84200D192E092
:107A000080252D047F422943382F00DDAAE01F2F57
:107A100000DD2CE12025ED1B0E1CAE40B046261CDF
:107A2000FE404246AC401643651EAC413443F9402B
:107A30005A46141BA34592415B1A5242991A051CDF
:107A4000E246B3E6131C3B43141C002B00D0B1E606
:107A500000270022002500210024DDE65A461A43B3
:107A6000531E9A41D2B2002305E70D1C25435AD07C
:107A7000FF43002F53D15A46141BA3459241591A74
:107A80005242891A051CE24690E69548854200D08C
:107A9000D6E62FE600278FE700239EE7081C204349
:107AA000002D00D0C3E0002800D1F6E0584618436E
:107AB00000D11FE658460219A242A4416442591857
:107AC0000919141C0A0200D414E6864B012519403A
:107AD00010E6081C2043002D3AD1002800D089E090
