:1020000000800020C93E0000B13E0000B13E00004B
:1020100000000000000000000000000000000000C0
:10202000000000000000000000000000B13E0000C1
:102030000000000000000000B13E00001D3F000055
:10204000B13E0000B13E0000B13E0000B13E0000D4
:10205000B13E0000B13E0000B13E0000B53E0000C0
:10206000B13E0000FD3D0000B13E0000B13E000069
:10207000D53D0000B13E00000D3E0000B13E000025
:10208000B13E0000B13E0000B13E0000B13E000094
:1020900000000000B13E0000B13E0000B13E000073
:1020A000B13E0000B13E0000B13E0000B13E000074
:1020B0000000000010B5064C2378002B07D1054B1B
:1020C000002B02D0044800E000BF0123237010BDA4
:1020D00010010020000000003479000008B5084B12
:1020E000002B03D00748084900E000BF07480368F9
:1020F000002B03D0064B002B00D0984708BDC046EC
:1021000000000000347900001401002008010020C4
:102110000000000038B50D4D281C01F061FD2C1C9D
:10212000002803D0281C01F0F3FCF4E7201C01F088
:1021300057FD0028FAD0201C01F052FD002803D0E2
:10214000201C01F0E5FCF6E738BDC0460C0200207B
:102150000C4B30221A7078225A7055229A724C22F7
:10216000DA7200221A7309220F210140092901D9CC
:10217000373100E030319954013A0009012AF3D196
:102180007047C0464002002038B5264C2649201C26
:1021900000F013FF201C022100F00AFF201CB422D3
:1021A0000A2100F002FF201C204902F087F9201CC0
:1021B000C8220A2100F0F9FE201C1D4902F07EF918
:1021C000201CDC220A2100F0F0FE201C194902F03C
:1021D00075F9B422201C4B2100F0E7FE164B18685D
:1021E000FFF7B6FF154D201C291C02F067F9C82225
:1021F000201C4B2100F0D9FE114B1868FFF7A8FFF7
:10220000291C201C02F05AF9DC22201C4B2100F072
:10221000CCFE0C4B1868FFF79BFF291C201C02F01A
:102220004DF938BD90010020FFFF0000446D000013
:102230004A6D0000506D00002C010020400200207B
:1022400030010020540200201FB5182300930823FA
:102250000193162302930A2109221723074800F04D
:1022600055FF032300930223019306210522042333
:10227000034801F0C9FB05B000BDC0469001002035
:102280000C02002038B5174C9621201C890102F061
:10229000EDFC154801F050FE201C144902F01AF91B
:1022A000134D0021281C00F0DDFF124C0021201CE2
:1022B00001F0B6FB201C012101F0A4FC0E4BF02222
:1022C0000E4C1A60A0235B00281C0021236000F044
:1022D000E6FB2368DA0FD3185B10094A063B13604C
:1022E00038BDC04604040020B80B0000566D000045
:1022F000900100200C020020340100203801002051
:1023000000020020F7B585B28CB2124E124F291C84
:10231000221C14230A390A3A301C0093019709B28F
:1023200012B200F00BFC22B2691F6B1D301C009230
:10233000019709B21BB200F0BFFB621F05342BB23C
:1023400024B20197301C12B20094191C00F0B4FBA7
:10235000F7BDC04690010020FFFF0000F7B585B231
:102360008CB2124E291C221CF8273F0214230A3972
:102370000A3A301C0093019709B212B200F0DEFB5A
:1023800022B2691F6B1D301C0092019709B21BB26B
:1023900000F092FB621F05342BB224B20197301C6F
:1023A00012B20094191C00F087FBF7BD90010020C9
:1023B000F7B52F4C7821201CA02200F0F6FD6421F7
:1023C0000023962200910193201C142300F053FE59
:1023D000201C284900F0F1FD201C012100F0E8FD3F
:1023E000201C254902F06AF8244E301C01F0F8FB4D
:1023F0000028F9D0201C7821A02200F0D6FD00256D
:102400006421201C009196221423019500F033FED4
:10241000201C1B4902F052F82C1C2F1C301C01F010
:10242000DFFB184B002802D09D4203DD10E09D42E7
:10243000BFDD0DE0301C01F06BFB32880D4B9A4282
:10244000ECD071889942E9D0BF1864180135E5E7EE
:10245000FA21381CC90003F031FC0B4BFA2118603B
:10246000C900201C03F02AFC084B1860F7BDC046C9
:1024700090010020FFFF0000636D00000C020020AF
:102480006F6D0000CF0700003C0200208C0100208F
:10249000F8B5171C061C0D1CFFF760FFFFF788FF3F
:1024A000144C1549201C00F088FD201C012100F06F
:1024B0007FFD6422201C5A2100F077FD0F49201C6B
:1024C00001F0FCFF291C301CFFF71CFF0C4BBA006D
:1024D00019680C4BD1500C4B19680C4BD1500C4C5B
:1024E000201C01F07DFB002803D0201C01F010FB14
:1024F000F5E7F8BD90010020FFFF00007B6D0000B4
:102500003C0200203C0100208C01002064010020DE
:102510000C02002037B5224D0D222B68214C009271
:10252000214A0021013B0192201C0A1C1BB200F031
:10253000A2FD2B68FC210E221C4DC900013B1BB2E1
:1025400000920191201C002100F0B6FA291C201CE9
:1025500000F033FD201C012100F02AFD5022201C38
:10256000282100F022FD201C114901F0A7FF291CA1
:10257000201C00F022FD201C012100F019FD642226
:10258000201C0A2100F011FD0A49201C01F096FFD1
:10259000FFF7C0FD201C002100F081FA37BDC046C6
:1025A0003401002090010020E0FF0000FFFF000048
:1025B000876D00009A6D0000F7B5FFF7ABFFB04DD7
:1025C0000A2128680B38FFF79DFE2B680A21D80FD7
:1025D000C3185810FFF796FE0A20011CFFF792FE61
:1025E000A84C286823680B38D90FCB185910FFF76F
:1025F00089FE23680A20D90FCB185910FFF782FEF5
:10260000286821680B380B39FFF77CFE2B6821689E
:10261000D80FC31858100B39FFF774FE21680A2031
:102620000B39FFF76FFE0A20011C0022FFF730FF75
:1026300023680A20D90FCB1859100122FFF728FF71
:1026400021680A200B390222FFF722FF2B680A219A
:10265000D80FC31858100322FFF71AFF2B68216800
:10266000D80FC31858100B390422FFF711FF286840
:102670000A210B380522FFF70BFF23682868D90FC2
:10268000CB1859100B380622FFF702FF2868216883
:102690000B380B390722FFF7FBFE24682D68621EFA
:1026A0002B1C013B1203D218774B00951A60774B15
:1026B00018699968DA6945181968D868AD185B69AE
:1026C0004618281CF61804F0F9F9714903F0FCFCCF
:1026D000071C301C04F0F2F96D4903F0F5FC011CF5
:1026E000381C03F0FFFF071C201C143804F08AF983
:1026F000011C381C03F0E8FC0021041C03F054FB0F
:10270000002802D180221206A418624B301C1C60E3
:10271000032103F0D3FA0321071C281C03F0CEFA8F
:102720005D4D061C5D49201CB74216D203F0B0FE79
:10273000041C381C04F0C2F9211C03F0D3FF03F081
:1027400047FB2860301C04F0B9F9211C03F058FB4A
:1027500003F03EFB524B186015E003F099FE041C99
:10276000381C04F0ABF9211C03F04AFB03F030FBEA
:102770002860301C04F0A2F9211C03F0B3FF03F021
:1027800027FB47490860474B9A695869D969161869
:102790007618586819689B684218301CD71804F0DE
:1027A0008DF93B4903F090FC041C381C04F086F9B9
:1027B000374903F089FC011C201C03F093FF041C23
:1027C0000098143804F01EF9011C201C03F07CFC56
:1027D0000021041C03F0E8FA002802D1802212062E
:1027E000A418314B301C1C60032103F067FA03214D
:1027F0000090381C03F062FA009B01902B4F2C4E86
:10280000834214D22549201C03F042FE041C009888
:1028100004F054F9211C03F065FF03F0D9FA30608D
:10282000019804F04BF9211C03F0EAFA13E01B496C
:10283000201C03F02DFE041C009804F03FF9211C1D
:1028400003F0DEFA03F0C4FA3060019804F036F9C0
:10285000211C03F047FF03F0BBFA386010482A68D8
:1028600003689203D218134B1A60104B32681B682E
:102870009203D218104B1A60FFF786FCFEE7C046A1
:102880003401002038010020540200203C010020C7
:102890000000404050020020F401002000002041D0
:1028A0000802002064010020FC010020F801002043
:1028B000040200202C01002030010020F0B587B078
:1028C0001E1C0CAB071C151C00201B5E0DAA1288D9
:1028D0000C1C591B0492CA1789185140321BD0177F
:1028E00012184240914208DD321C01211E1C131CAB
:1028F000221C01912C1C151C01E000220192B44203
:1029000005DD2A1C1D1C131C221C341C161C321B2A
:1029100092B202925A1BD117501848400590029863
:1029200002B2D10F8A18521092B200929D4202DA7E
:10293000012103911FE0154A03921CE001983B68B6
:1029400000281BD01969381C8C46221C291C049BAA
:10295000E04700980599431A9BB29AB2009212B2CE
:10296000002A06DA029903985B182D189BB22DB243
:102970000093013424B2B442E0DD05E01A69381C4A
:102980009446211C2A1CE2E707B0F0BDFFFF0000BF
:10299000704710B50468A468A04710BD37B506ACF1
:1029A000258804680095246BA04737BD37B506AC71
:1029B000258804680095646BA04737BD73B506ACE5
:1029C0000025665F07AC2588046800960195A46B16
:1029D000A04773BD7047F0B585B01F1C0AAB1B88BC
:1029E000161C03930368013FDB68041C0D1CBF1910
:1029F0009847039A23683FB2019200971F6A201CF0
:102A0000291C321C2B1CB8472368201C5B6A984782
:102A100005B0F0BDF0B585B01F1C0AAB1B88041CC7
:102A2000039303680E1CDB68151C98470399226802
:102A30007B1E019100959B19176A201C311C2A1CD2
:102A40001BB2B8472368201C5B6A984705B0F0BDED
:102A5000F0B587B003930CAB0E1C171C0022995ED7
:102A60000DAB1B88049105930368041CDB68984731
:102A7000351C039BF218236895420BDA0599201C3C
:102A800000919A69291C9446049B3A1C0135E04741
:102A90002DB2EEE75B6A201C984707B0F0BD37B552
:102AA0000C24035F0E25445F02680191009400210D
:102AB000946B0A1CA04737BDF0B585B002930AABF2
:102AC0000E1C00215F5E0BAB1B88151C0393029B41
:102AD000041C02689E420BD1BD4202DD2B1C3D1C32
:102AE0001F1C03997B1C5B1B00911BB2176B0EE034
:102AF000BD4211D1029B9E4202DD331C029E029315
:102B0000029B0399013300919B1B576B1BB2201C46
:102B1000311C2A1CB8470FE0D3689847039A2368F2
:102B2000019200971F6A201C029B311C2A1CB84787
:102B30002368201C5B6A984705B0F0BDF0B585B0EE
:102B40001F1C0AAB151C0E1C0022995E0BAB1B88C8
:102B5000039102930368041CDB6898470299236879
:102B60000091DA69201C9446311C2A1C3B1CE0476A
:102B700002992368039A0091D969013A52198C4647
:102B8000201C311C3B1C12B2E047029A23680092C1
:102B90009969201C8C462A1C311C039BE047029A31
:102BA0002368013F0092BE1931B29F69201C2A1C84
:102BB000039BB8472368201C5B6A984705B0F0BDAB
:102BC000704703231940417603894289012904D0C3
:102BD000032902D08381C28101E08281C3817047D1
:102BE00010B50A4C4281C2810122002308340181C0
:102BF00081815142436004604376038243820276BE
:102C0000C18281828276C376C36110BDB86D000037
:102C1000F0B595B01E1C1AAB1B88041C0A931BABA5
:102C20001B88069104931CAB1D78C3690992002B85
:102C300000D0B1E00C20235E8B4200DC36E10E2197
:102C4000635E934200DC31E106236B43069AD3189E
:102C5000002B00DC2AE10998EB00C318002B00DCF4
:102C600024E1E37E002B03D1AF2E01D90136F6B269
:102C70002368201CDB68984705235E4300210F96DC
:102C80000D930891089A0F9853B2894A0699121821
:102C9000D25C9BB207936B4389B20B92099ACB1813
:102CA00096B29BB20E93331C08339BB205911093DE
:102CB000371C0C960B9BDB0714D52068012D09D11E
:102CC000079A059BD118036909B29C463AB2201CA9
:102CD0000A9B17E00E9A33B211932BB211B20093F4
:102CE0000A9A19E0049B0A9883421BD02068012DA0
:102CF0000AD1079A059BD118036909B29C46049B27
:102D00003AB2201CE0470DE00C9B0E9A1BB211B2A8
:102D10001193049A2BB2009301924269201C9446AD
:102D2000119AE0470B9B0C985B080B9301374319F2
:102D3000109976199BB2BFB2B6B20C938F42B9D13B
:102D4000089B0133DBB208930D9B013BDBB20D9373
:102D5000002B97D1049A0A9B9A4200D1A2E02268E4
:102D6000012D0AD10498059900900531956909B2A1
:102D7000201C099A0823A84794E005216943059B74
:102D8000049859182BB2ED0001900095556909B2CD
:102D9000201C099AA84785E01A7A5968B61AF6B233
:102DA0001B68F60076183288F07871791193B37841
:102DB000B67905920C9312900D910E96012D06D9BD
:102DC0000E9A4EB253B29BB2B6B2079302E0002302
:102DD00007931E1C2368201CDB686E4398470698E7
:102DE00080B28619B6B2109600260B90069604960D
:102DF000129AF3B2934255D2099B07989BB20F9354
:102E000033186B430F99109ACB189BB21393089207
:102E100000270698FBB20C991A18D2B28B423BD20B
:102E2000510707D1059B0598119A0133125C9BB29B
:102E300004920593049843B2002B22DA2068012DF6
:102E400011D10D9A0B9B51B259180E9B79185AB299
:102E50000F9B09B29A180369B2189C4612B2201C43
:102E60000A9BE0470DE0089A139B11B21BB20A9A25
:102E700003932BB2009301924269201C9446039A5B
:102E8000E047049808994300DBB204934B199BB2C6
:102E900001370893BFB2BCE74318DBB20136069393
:102EA000B6B2A5E72368201C5B6A984715B0F0BD51
:102EB000086E0000F0B5C26987B0041C0B1C002A24
:102EC00028D10A2903D1037E0282DB0029E00D29E3
:102ED00068D0817E007E00290DD01025615F062517
:102EE00045434D190C26A15F8D4204DD618A228283
:102EF000C200521862821225625FA58A0290009574
:102F0000E58A1027E15F0195201CFFF781FE227EF4
:102F1000062343E00A2908D100230382927A037E24
:102F20005343628A9B1863823CE00D293AD0157A9C
:102F3000A94237D3517A994234D35D1B5668ED00CC
:102F4000AD19A978E878002926D0002824D06F7917
:102F5000A67E0597207E002E12D01027E65FB4468D
:102F6000059E77B2791841430C27E65F6144B14270
:102F700006DD00212182927A618A424352186282E0
:102F80001022A15E1226A25FA68A02900096E68A0F
:102F9000201C0196FFF73CFE2A79237E5343228AA8
:102FA0009B182382012007B0F0BD01824282704746
:102FB000002900D1012101767047C18281827047CA
:102FC00037B506AC25880468009301956469012330
:102FD000A04737BD73B506AC258801260468009666
:102FE00001956469A04773BDF8B51D1C0368041CF6
:102FF000DB68161C0F1C98472368391C1A69201CB3
:1030000094462B1C321CE0472368201C5B6A9847BF
:10301000F8BDF0B585B003930AAB1F880368041CA4
:10302000DB680E1C151C9847236800979F69201CBD
:10303000311C2A1C039BB8472368201C5B6A9847F5
:1030400005B0F0BDF0B585B003930AAB1F880368E7
:10305000041CDB680E1C151C984723680097DF6969
:10306000201C311C2A1C039BB8472368201C5B6A68
:10307000984705B0F0BDF0B585B003930AAB029256
:1030800000229F5E0BAB1E880368041CDB680D1CCE
:1030900098472368009701965E69201C291C029AB4
:1030A000039BB0472368201C5B6A984705B0F0BDBE
:1030B00008B5C36CC16D1A680A431A60036B002B14
:1030C00002DA024800F06CFC08BDC0466002002035
:1030D000026B13B5041C002A0DDA016A094B9942F0
:1030E00000D9191C6A460023537113710648019ACE
:1030F000009100F039FCE36CE16D1A688A431A60B4
:1031000013BDC046001BB70060020020F0B585B0BB
:1031100001930AAB1B7800275BB202930BABDF571E
:103120000CAB1B78151CA0220E1C5BB2F0215200C8
:10313000041C0093FFF754FD18212C4B66624E438C
:10314000083323602A4BE762F256029FD2012763BD
:10315000019F9446274A6763009F9444A562A76332
:103160004D43674600202062E7649F197E68012274
:10317000171CB740EE56E765F6011E4F5D196D68E6
:10318000B446BC44171CAF40029D66464D43A6643E
:10319000EE562766F601B4465D19164E6D68B444C6
:1031A000161CAE40019DA6654D43EE566746F601DE
:1031B00067645D190F4F6D68B446BC44171CAF407F
:1031C000009D6646E663276585420ADB6943C8566B
:1031D00059184B68084EC00180199A4020646265F6
:1031E00001E020646065201C05B0F0BD087300009C
:1031F000787300001044004120440041F8B5036B8F
:10320000002B03DA0E4800F0DDFB18E0436C0824C5
:103210008025C26B066D1768294201D03E4301E04C
:10322000B7433E1C16601A68866D013CB2431A60B3
:103230001A68866D6D0832431A60002CE9D1F8BD1A
:1032400060020020836C10B51A68041C006E824373
:103250001A60201CFFF7D2FFA36C226E19680A4384
:103260001A6010BD38B5041C002900D1E84921625C
:10327000A06A012100F0DAFFA06A002101F030F815
:10328000606A012100F0D2FF606A012101F028F894
:10329000236B002B15DB606B012100F0C7FF606B17
:1032A000002101F01DF8206B012100F0BFFF206B11
:1032B000012101F015F8A06B002802DB002100F0CD
:1032C000B5FF236B002B02DAD24800F025FBE06A41
:1032D000002817DB012100F0A9FF0121E06A00F0BE
:1032E000FFFF642000F028FE0021E06A00F0F8FFF4
:1032F000642000F021FEE06A012100F0F1FFC82007
:1033000000F01AFE2368201CDB689847201CEF2180
:10331000FFF798FF201C0321FFF770FF201C80217E
:10332000FFF76CFF201C0221FFF768FF201CCF2154
:10333000FFF788FF201C0021FFF760FF201CC12140
:10334000FFF75CFF201C3021FFF758FF201CED2108
:10335000FFF778FF201C6421FFF750FF201C03219A
:10336000FFF74CFF201C1221FFF748FF201C812192
:10337000FFF744FF201CE821FFF764FF201C852194
:10338000FFF73CFF201C0021FFF738FF201C7821AD
:10339000FFF734FF201CCB21FFF754FF201C3921FD
:1033A000FFF72CFF201C2C21FFF728FF201C0021F9
:1033B000FFF724FF201C3421FFF720FF201C0221EF
:1033C000FFF71CFF201CF721FFF73CFF201C2021EA
:1033D000FFF714FF201CEA21FFF734FF201C002117
:1033E000FFF70CFF201C0021FFF708FF201CC02165
:1033F000FFF728FF201C2321FFF700FF201CC1211D
:10340000FFF720FF201C1021FFF7F8FE201CC5212C
:10341000FFF718FF201C3E21FFF7F0FE201C28219B
:10342000FFF7ECFE201CC721FFF70CFF201C8621B4
:10343000FFF7E4FE201C3621FFF704FF201C482183
:10344000FFF7DCFE201C3721FFF7FCFE236B002B6F
:1034500009DA704D0021281C00F0B4FA281C002164
:1034600000F0B0FA07E0201C0021FFF7C7FE201C87
:103470000021FFF7C3FE201C3A21FFF7E3FE201CCA
:103480005521FFF7BBFE201CB121FFF7DBFE201CFE
:103490000021FFF7B3FE201C1821FFF7AFFE201C10
:1034A000B621FFF7CFFE201C0821FFF7A7FE201C46
:1034B0008221FFF7A3FE201C2721FFF79FFE201C7F
:1034C000F221FFF7BFFE201C0021FFF797FE201C12
:1034D0002621FFF7B7FE201C0121FFF78FFE201CDD
:1034E000E021FFF7AFFE201C0F21FFF787FE201C15
:1034F0003121FFF783FE201C2B21FFF77FFE201CCC
:103500000C21FFF77BFE201C0E21FFF777FE201C0D
:103510000821FFF773FE201C4E21FFF76FFE201CD1
:10352000F121FFF76BFE201C3721FFF767FE201CFF
:103530000721FFF763FE201C1021FFF75FFE201C10
:103540000321FFF75BFE201C0E21FFF757FE201C16
:103550000921FFF753FE201C0021FFF74FFE201C1E
:10356000E121FFF76FFE201C0021FFF747FE201C22
:103570000E21FFF743FE201C1421FFF73FFE201C05
:103580000321FFF73BFE201C1121FFF737FE201C13
:103590000721FFF733FE201C3121FFF72FFE201CEF
:1035A000C121FFF72BFE201C4821FFF727FE201C1E
:1035B0000821FFF723FE201C0F21FFF71FFE201C10
:1035C0000C21FFF71BFE201C3121FFF717FE201CEA
:1035D0003621FFF713FE201C0F21FFF70FFE1121EC
:1035E000201CFFF72FFE782000F0A6FC2921201CCC
:1035F000FFF728FE782000F09FFC2368201C5B6A00
:103600009847F023A381A0235B00E38138BDC04627
:1036100000366E016002002038B503231940A02255
:10362000041C4176F023520002290BD003290DD04F
:10363000012903D08381C28148250AE08281C381A8
:10364000282506E08381C281882502E08281C3812A
:10365000E8252368201CDB689847201C3621FFF7EB
:10366000F1FD291C201CFFF7C9FD2368201C5B6AA3
:10367000984738BD38B503680D1CDB68041C9847B3
:103680006B426B412121C91A201CFFF7DBFD236827
:10369000201C5B6A984738BDF7B5041C08A805884C
:1036A000CF1855190904013F0F4312042A21013D87
:1036B000201C1543FFF7C6FD3B0C00933B0A01930A
:1036C000236B390EFFB2002B13DA2D4EC9B2301C1A
:1036D00000F078F9009B301CD9B200F073F9019B1F
:1036E000301CD9B200F06EF9301C391C00F06AF9B8
:1036F00011E0C9B2201CFFF781FD009B201CD9B24C
:10370000FFF77CFD019B201CD9B2FFF777FD201C41
:10371000391CFFF773FD2B21201CFFF793FD2B0AAB
:103720000093236B290E2F0CEDB2002B12DA144EEE
:10373000C9B2301C00F046F9F9B2301C00F042F971
:10374000009B301CD9B200F03DF9301C291C00F060
:1037500039F910E0C9B2201CFFF750FDF9B2201C66
:10376000FFF74CFD009B201CD9B2FFF747FD201C42
:10377000291CFFF743FD201C2C21FFF763FDF7BD3B
:1037800060020020026B38B5041C0B12CDB2002A77
:1037900009DA094CD9B2201C00F014F9201C291CAC
:1037A00000F010F906E0D9B2FFF728FD201C291C13
:1037B000FFF724FD38BDC0466002002037B5041C69
:1037C0001D1C002914DB0C20235E8B4210DD002A17
:1037D0000EDB0E20235E93420ADD012389B2201CFA
:1037E00092B20093FFF758FF201C291CFFF7CAFF75
:1037F00037BD0000F8B5036B051C141C0E0ACFB2D0
:10380000002B0CDA002C16D00B4D311C281C00F0BC
:10381000D9F8281C391C00F0D5F8013CF2E7002C3F
:1038200009D0281C311CFFF7E9FC281C391CFFF7C4
:10383000E5FC013CF3E7F8BD60020020F0B589B07B
:10384000041C0EA8A6890025405F0FAD2D8837B255
:10385000079503960597B94238DAE5892EB20495A3
:103860000696B24232DACD18ADB22E1C1718013EC0
:10387000BFB2AC4636B27D1EADB2002E26DB2DB2F5
:10388000002D23DB002902DA61460BB20021002A59
:1038900001DA38B20022059FBE4202DB039E731A92
:1038A0001BB2069FBD4202DB049DA81A00B2051C94
:1038B0005D4380B289B292B200909BB2201CFFF7A8
:1038C000EBFE201C07992A1CFFF794FF09B0F0BDFE
:1038D000437A002B04D18372C372C3600123437205
:1038E000704730B585B0041C02AD006802910392A8
:1038F00000F024FF6B79E179227A0093206800239D
:1039000001F022F829792068029A00F0E7FE206889
:1039100000F00AFF05B030BD70B5041C1826FFF793
:10392000D7FF2079331C43430D4D0821EB1859561E
:1039300000F01EFDA079331C43430821EB185956B3
:1039400000F016FD607908214643AD19695600F074
:103950000FFD044B201C06CBFFF7C3FF70BDC04614
:10396000787300005802002007B5837A0091019215
:10397000002B0DD09A0706D5EFF310835A4253411E
:10398000C37272B604E0DA0702D58289034B9A60EB
:103990000099019AFFF7A5FF07BDC0460018004037
:1039A000837A002B0BD09A0704D5C37A002B06D05C
:1039B00062B604E0DA0702D58289014BDA6070470B
:1039C0000018004008B5006800F0C1FE08BD000006
:1039D000094B0A4A0A491A6000225A711A71094BA6
:1039E0001960162119711821997117215971012136
:1039F0005A72D9711A7270475802002000093D00AE
:103A0000F40300206002002030B503AC257804AC3C
:103A10002478C571017142718371047230BD000058
:103A200038B59F2303621B4B002543621A4B041CCD
:103A30008362DF23C3624023FF334361EF2383614B
:103A40000A234374C56001740079012100F0EEFB84
:103A50006079012100F0EAFBA079012100F0E6FB8A
:103A6000291CE07900F0E2FB207A012100F0DEFB66
:103A70006079012100F034FC2079012100F030FC54
:103A8000A079012100F02CFC2079012100F028FC14
:103A900038BDC046630E0000030F000070B5041C63
:103AA0000E1C0079002100F01BFC082573B2A079E0
:103AB0000121002B00DB002100F012FC013D2079E8
:103AC000002100F00DFC760020790121EDB2F6B264
:103AD00000F006FC002DE9D170BD70B5061C0C2568
:103AE00000243079012100F0FBFB307900216400D3
:103AF00000F0F6FBF079A4B200F022FC002801D01F
:103B00000134A4B2013DEDB2002DEAD1201C70BDFC
:103B1000F7B50026041C0021407900F0E1FB351CBC
:103B2000371C0196637C9E4239DA201C9021FFF7F6
:103B3000B5FF2079012100F0D3FB0021207900F0AE
:103B4000CFFB201CFFF7C9FFD0210090201CFFF7FE
:103B5000A5FF2079012100F0C3FB2079002100F0AE
:103B6000BFFB201CFFF7B9FF226A636A9A4200DD9F
:103B7000131C009A9A4210D8002A0ED0A26AE36A57
:103B80009A4200DD131C984207D8002805D0019AFC
:103B9000009B1218FF18019201350136C2E76079C7
:103BA000012100F09DFB002D15D0237CE26893429B
:103BB00006D10198291C02F081F82080381C05E00C
:103BC000381C291C02F07AF820800198291C02F088
:103BD00075F8608003E001235B4223806380F7BDBA
:103BE00038B50021041C007A00F020FB207A00F098
:103BF000A7FB0121051C207A00F018FB68426841F0
:103C0000C0B238BD031C481E00B5032809D802F015
:103C10004BF802080406012204E0192202E06422A3
:103C200000E00A225A7400BDF8B5051C0F1C161CD2
:103C30000024B44208D02B68395D1B68281C9847C3
:103C4000002801D00134F4E7201CF8BD704708B506
:103C5000183000F0ABFC08BD08B5183000F0B4FC1B
:103C600008BD38B5837D0D1C002B06D0041C6034C4
:103C7000201C00F0B8FC002801D0002004E0201C2B
:103C8000291C00F084FC012038BD08B5183000F074
:103C9000A1FC08BDF7B50193FA239B0083600B4B91
:103CA00000250833041C4560036018300F1C161CE7
:103CB00000F062FC201C603000F05EFC019B27617C
:103CC0002675A575201C6375FEBDC046587300009F
:103CD00038B5041C006900F07CFD002879D020690B
:103CE00000F085FD00280ED1206900F08AFD002833
:103CF0001FD0206900F080FD00281AD0206900F054
:103D000085FD002815D1206900F036FD20690321CA
:103D100000F03CFD231CB0331D68002D04D0236847
:103D2000201C9B689847A847201C183000F03AFCDC
:103D30004FE0206900F065FD031C2069002B16D0C0
:103D400000F01AFD2069032100F020FD206900F039
:103D50005DFD00283DD0201C603000F023FC0123D5
:103D6000A375AC342368002B33D0984731E000F0C2
:103D700039FD00282DD0206900F048FD251C0028C1
:103D80000FD06035281C00F01FFCFF21002803D055
:103D9000281C00F00BFCC1B2206900F00DFDA075DD
:103DA00017E01835281C00F01EFC031C2069002BAE
:103DB00002D000F0D9FC08E000F02DFD011C281C09
:103DC00000F0E5FB206900F0D7FC2069032100F03A
:103DD000DDFC38BD08B50248FFF77AFF08BDC046D4
:103DE0007002002008B50348034914221523FFF789
:103DF00051FF08BD70020020E403002008B502480E
:103E000000F018FE08BDC0468403002008B5024833
:103E100000F010FE08BDC04624030020F7B5164F81
:103E20001649381C00F0E9FB1549164800F0E5FB7F
:103E30001549164800F0E1FB1549164800F0DDFB76
:103E40001549164800F0D9FB154D03260124281CFE
:103E5000144900F0D2FB391C0096231C0194002267
:103E6000114800F0C3FD0096291C01941F221E2357
:103E70000E4800F0BBFDF7BDE8030020000800423B
:103E8000000C0042EC03002000100042F003002070
:103E900000140042E403002000180042F403002054
:103EA000F8030020001C00428403002024030020AB
:103EB000FEE7000008B5034B1B68002B00D09847B5
:103EC00008BDC046FC03002038B50F490F4CA14285
:103ED00004D100F04FF800F0AFFA0BE00C4D8D422A
:103EE000F7D00023CA18E818A24204D200680433AD
:103EF0001060F7E7FEE79042EBD0064B064A93428C
:103F0000E7D2002204C3F9E70000002010010020DE
:103F10003879000010010020FC09002008B500F0ED
:103F200026F8002801D100F017F808BD014B1860F1
:103F30007047C046FC03002070B5041E08D0054B36
:103F40001D681E1C00F012F833685B1BA342F9D3F6
:103F500070BDC0460004002008B5034B1A6801324A
:103F60001A6000F0CFFA08BD00040020704700205E
:103F70007047000070B54A4A1E21536802208B43E7
:103F80000343484953608B69082423438B61464CA3
:103F9000464B9C829C8A20439882101CDA689407C6
:103FA000FCD5434A012414701478E50704D5404C2D
:103FB000647864B2002CF7DB01249460547864B216
:103FC000002CFBDB3B4D3A4C6560547864B2002C0E
:103FD000FBDB8225364CED016580547864B2002C01
:103FE000FBDB9C8C8025AC439C84DC68E606FCD51E
:103FF000314D2E4CE562DD682C4CEE06FBD5A58CD0
:104000002E4E3543A584DD68284CEE06FBD5A58CE5
:1040100002263543A584DC682506FCD5234CE468DC
:104020006606F8D5DC68E506FCD500249460547873
:1040300064B2002CFBDB224D1D4C656055781C4C96
:104040006DB2002DFADB1E6A1E4D35401D621D6AE1
:104050008026B5431D620323A3601B4B6360537826
:104060005BB2002BFBDB00230B72184A4B728B7286
:10407000CB72174BFF211A60164B174A1B68126848
:104080005C01D20E214011439A06520F12020B1C02
:104090001343124A1385436880221343436070BD63
:1040A00000400041000400400C06000000080040F1
:1040B000000C004001050100B805FF7D040A000066
:1040C00000070300FFFCFFFF03060100006CDC0299
:1040D000000000202460800020608000004000423A
:1040E000314BFA21186810B5890001F0E7FD2F4B1C
:1040F0000138984224D82E4A2E4B5060186AC021AD
:104100000002000A09060143196200240721946095
:104110001160196A80220902090A12060A431A620A
:10412000254BFC211A6A0A431A62196AFC22920181
:104130000A431A62196AA022D2020A431A6200E0F4
:10414000FEE7201C0021013400F070F8142CF8D197
:104150001A4C63785BB2002BFADB194B6380194B66
:104160005A7ED209012AFAD0E422D2009A803F2254
:10417000DA70597E134AC9090129FAD0C0235B01BC
:1041800000201361907000F023F863785BB2002B7D
:10419000FBDB0D4A094B5A800C4BDA79D209012A14
:1041A000FAD041225A7010BD00000020FFFFFF002E
:1041B00010E000E000ED00E000040040000C0040D2
:1041C0001E40000000400042214000000048004224
:1041D00000B5144A517E131CC9090129F9D00138D0
:1041E000042813D81969104A0A401A615A780F2115
:1041F0008A4301F059FD030509070300012102E08C
:10420000032100E002210A435A700AE01169F023F9
:104210001B050B43136153780F218B4302210B4382
:10422000537000BD00400042FFFFFFF010B518249E
:10423000021C201C5043274B1818007A40B2013052
:1042400046D0032944D8081C211C01F02DFD02335F
:104250001121624398569A18C3011F4852681B18CF
:1042600099184031022008700121914059602FE0D7
:104270006243985618499A185268C3015B189918F6
:1042800040310620087001219140596099611FE07A
:1042900051435A56104859184B68D2011118C81882
:1042A0004030062404700120984048600B495218A1
:1042B00050600DE0624398569A18C3010648526850
:1042C0001B18991840310220087001219140996013
:1042D00010BDC04678730000004400411044004106
:1042E00018235843134AF0B5131808241C570134F7
:1042F0001FD08256104ED2015D6801249019231CF4
:104300008668AB401E420BD10E1C771EBE41401981
:1043100034404030A50004780426B4432C43047094
:10432000002903D105495218536002E0024E921948
:104330009361F0BD787300000044004110440041D7
:1043400018235843084A082113185956013109D037
:1043500082560649D20152185B68106AD840012380
:10436000184000E0002070477873000000440041CE
:1043700018224243F8B52D4D0824AA181457031CDF
:10438000621C50D0481C00240C284CD801F08CFC36
:10439000071E1E1E1E1E1E1E1E0A0A0A0A000124D9
:1043A000644240E0092902D1181C002103E00A29D7
:1043B00004D1181C0221FFF739FF23E000240B2948
:1043C00031D1181C0121FFF731FF2CE01822534393
:1043D000EA185268EB560120141C04405508DB0112
:1043E000002C11D0124C1B195D1930352E780C01A0
:1043F0000F21314021439A18C9B2297040321378F5
:104400001843107000240EE0094E0F279B195D1908
:1044100030352E789A18BE433143C9B229704032E4
:10442000137818431070201CF8BDC0467873000044
:1044300000440041FEE7704710B5FFF751FE02F05F
:10444000ABFBFFF7F8FF0120FFF776FD084C201CBF
:1044500000F034FE201C00F0A9FEFDF713FFFEF76C
:10446000ABF8044B002BFAD000E000BFF7E7C046E2
:10447000CF08002000000000F7B58A18061C0D1CAC
:1044800001920C1C019B671B9C4207D0336821786A
:104490001B68301C984701340028F3D1381CFEBD3E
:1044A00038B5051C0C1C081E07D002F01DFC2B683B
:1044B000021C5B68281C211C984738BD08B5FFF713
:1044C000EFFF08BD08B50249FFF7EAFF08BDC04687
:1044D0009877000038B5041CFFF7E2FF051C201C8C
:1044E000FFF7F0FF281838BD014B18607047C04631
:1044F00004000020024B012252421A607047C0465D
:1045000004000020154A1368581C25D0013B136095
:10451000002B21D172B6124A124B04329A4207D8AC
:10452000BFF34F8F104A114BDA60BFF34F8F11E08A
:104530000F4B197DC807FBD5188B2021FF3192083E
:10454000520001431983DA610A4A1A801A7DD107A1
:10455000FCD5E5E7C046FDE77047C04604000020F3
:1045600000200000030200000400FA0500ED00E056
:104570000040004102A5FFFF10B500214022041CAD
:1045800002F043FB0023201C2364636410BD026C13
:1045900010B53F23541C2340446CA34201D08154E6
:1045A000036410BD0023036443647047436C026CD2
:1045B000934206D0C25C3F2101330B404364101C80
:1045C00001E0012040427047026C436CD01A00D5D4
:1045D00040307047436C026C934201D0C05C01E0F4
:1045E000012040427047026C3F2301321A40436C65
:1045F000D01A43425841C0B2704701607047F7B5C6
:1046000008AC267804689D1E27686C1EA541ECB294
:10461000920705683A4327063A432A60026807254D
:1046200029405068B501002C00D05C0329430143A8
:104630000C435460F7BD30B50368C0251C68AD035A
:1046400012052A402243C024A40209042140114338
:10465000196003685A6814435C6030BD0368012127
:104660001A680A431A600268116801231942FBD1D3
:10467000D1691942F8D17047036802211A680A43C8
:104680001A600268D3699907FCD4704703681A7EE0
:10469000D10702D41A7E9107FCD570470368002227
:1046A0005A8370470368187E4007C00F704703683D
:1046B000187EC009704703688022197E52420A435F
:1046C0001A7670470368188DC0B2704703681A7E67
:1046D00001200242FBD019857047000070B50368C5
:1046E00001268D07ED0F31401C686D07090729432E
:1046F0002143196004685100034801F0DFFA0138D2
:10470000C0B2207370BDC046006CDC02036801219A
:104710001A680A431A600268116801231942FBD122
:10472000D1691942F8D17047036802211A680A4317
:104730001A600268D3699907FCD470470368DA6984
:104740009107FCD41A6802218A431A6070470368F3
:104750009A6A520A52021143996203681A7E5107FB
:10476000FCD5986AC0B270470368802219685968FE
:10477000D2020A435A6070470368034A19685968AD
:104780000A405A607047C046FFFFFBFF30B5036820
:1047900003241D680C40074A596824040A40ED06AA
:1047A00022436D0F5A60052D03D10268D369590762
:1047B000FCD430BDFFFFFCFF036828331970036889
:1047C00000201A7E510703D55B8B01209B0898437C
:1047D000704703681868C006400F043843425841C8
:1047E000C0B270470368187E4007C00F7047036867
:1047F000187E0123184070470368588BC006C00F0D
:1048000070470368187E8007C00F70470368588B95
:104810000007C00F704703681A68D206520F052AB6
:1048200002D11A7E9107FCD528331878C0B27047A0
:104830000368224A30B5934211D0214A934211D0E5
:10484000204A934211D0204A934211D01F4A9342EA
:1048500011D01F4A934230D10E2319220DE00923B3
:1048600014220AE00A23152207E00B23162204E093
:104870000C23172201E00D231822DCB21549012078
:104880009B08A0409B0008605B180320C0218900A2
:1048900004405D58E000FF248440A5432C1CC02543
:1048A0008540281C204358508023DB011A430A4BC3
:1048B0005A805A7852B2002AFBDB30BD0008004211
:1048C000000C004200100042001400420018004298
:1048D000001C004200E100E0000C0040F8B5041CA0
:1048E000151C0E1C1F1CFFF7A3FF201CFFF7B6FEB4
:1048F000B1001C220A4069072368090C0A431A60A8
:10490000226884239375012E1AD10821012D00D12C
:1049100010210C4B79431868C00001F0CFF92368CF
:1049200007219A890140D2044903D20C0A439A8193
:1049300023680004C20C9889400B400310439881FF
:10494000F8BDC04600000020F7B5019308AB041C79
:104950001F780D1C161CFFF7D9FE201CFFF768FFFF
:10496000BF070C221743C022920336051640C0220F
:1049700092022D0423683E430199154035430722D6
:104980001D600A408021236889020A435A60F7BDEE
:104990000120704708B50368014ADB69984708BDE4
:1049A0001304000010B5041C0069FFF757FE201C1B
:1049B0001430FFF7F7FD10BD08B50069FFF766FE7C
:1049C00008BD08B51430FFF7FFFD08BD08B5143069
:1049D000FFF700FE08BD08B51430FFF7E7FD08BD7E
:1049E00008B50069FFF772FE012008BDF7B51D1C70
:1049F00008AB1B78041C009309AB1B78161C0193B1
:104A000000234360FA239B008360094B0F1C08338B
:104A100003601430FFF7B0FD009A231C5C3327615C
:104A20009A70019A1E705D70201CDA70FEBDC0463F
:104A3000B077000010B5041C0069FFF733FE0028B2
:104A400007D02069FFF73EFE011C201C1430FFF741
:104A50009EFD2069FFF72BFE002805D02069FFF797
:104A60002AFE2069FFF71AFE10BDF023081C18402B
:104A70003038434258417047F0231B0119408023CE
:104A80009B0099420CD0C0239B00994206D0802302
:104A90005B000520994204D0002002E0072000E0DE
:104AA000062070470F231940012905D002394B42D7
:104AB0004B410220C01A00E000207047F0B5031CF3
:104AC00085B003915C33041C182718783B1C4343C2
:104AD0001B4E0821F3185956151CFFF749FC231CDF
:104AE0005D33187808214743F6197156FFF740FCEB
:104AF00001210A1C039B2069FFF7F0FE291C201CE2
:104B0000FFF7BAFF291C071C201CFFF7CBFF291C4D
:104B1000061C201CFFF7A9FF391C0090331C2069DC
:104B20000122FFF76CFD231C5F331978013B1A78D3
:104B30002069FFF780FD2069FFF79EFD05B0F0BDFD
:104B4000787300003F20704713B502686B46D97137
:104B500007335468191C0122A04716BD08B5006927
:104B6000022100F027FC08BD08B50069032100F010
:104B700037FC08BD38B50D1C041C131C006903214B
:104B80002A1C00F029FD002801D10123636038BDF3
:104B900010B5054C23685A1C04D10368DB6898479C
:104BA0002060031C181C10BD58000020074A08B5DF
:104BB0001368591C04D0012149421160181C03E0FC
:104BC0000069022100F0FAFC08BDC0465800002030
:104BD00008B503780349023303704222024800F00B
:104BE000B1FD08BD14000020CF08002010B50178E9
:104BF000031C42780020A12908D1212A2FD118486E
:104C00001849072200F09EFD012028E0212926D125
:104C1000202A05D113490722114800F027FC04E09F
:104C2000222A10D19A780F4BDA710E4B962219680E
:104C3000D200914210D1DC7901231C400CD1FA2022
:104C4000FFF752FC0AE0232A09D1DA789B78120296
:104C50001A43054B1A6002E0FFF74CFC002010BD20
:104C6000CF0800200800002010000020704700003E
:104C7000064BFA2189009960054900220831196024
:104C800004495A6019611A767047C046040400202E
:104C9000E0770000CF08002070B5C2B21949530177
:104CA000CB189E68184DC0242E40A40526439E6054
:104CB000164E800109683018083258605201505C65
:104CC0000726B0430126304350549E6935402C439B
:104CD0009C610F4C5C61505C7024A0431024204305
:104CE00050549C680B488A18204080246403204359
:104CF000986098684021800B8003986053790B433B
:104D0000537170BDD8080020FFFFFF8FF006002010
:104D10002C050020FF3F00F038B5041C08CC012111
:104D20001A78051C0A431A708022201C00215200A8
:104D300001F06BFF2B689A78D107FCD45C6238BD18
:104D4000134BF0B51B6899035A029B01C90ED20E92
:104D50005B0F1F2900D105211F2A00D11D22072B1F
:104D600000D1032304688E01278D0A491F2539408D
:104D70003143218501682A400C8DAC4322430A85CA
:104D800002681903108D044B03400B431385F0BDDB
:104D9000246080003FF8FFFFFF8FFFFFEFF31083D9
:104DA00003600123436072B670470368002B02D191
:104DB00062B6BFF36F8F704737B50569041C68464C
:104DC000002D12D1FFF7EAFF019B013B03D3621DC7
:104DD000D57FEDB2F9E768460193FFF7E6FF0020C3
:104DE000854217D0206AE36913E0FFF7D7FF019BE4
:104DF0000025013B04D3221C34321578EDB2F8E7CC
:104E000068460193FFF7D1FF0020854202D0206B56
:104E1000E36AC01A3EBD0000436810B51A68037A01
:104E200001215B01D318FF339A7A0A439A72037AFD
:104E300042685B01D318C2689C6891040B4A090957
:104E400022400A439A60037A42685B01D3189A6849
:104E50004021920B92039A6043681A68037A0833E0
:104E60005B01D3181A790A431A7110BDFF3F00F095
:104E7000F7B50569041C0E1C171C6846002D1FD1D0
:104E8000FFF78CFF019B013B5A1C06D0621DD17FAE
:104E90005A1E00293AD0131CF6E768460193FFF723
:104EA00084FF0025E369BD4235D0226A934232D2A5
:104EB0005A1CE261A269D3181B7873550135F1E7DA
:104EC000FFF76CFF019B013B5A1C08D0221C3432B7
:104ED00015785A1EEDB2002D18D0131CF4E7684661
:104EE0000193FFF762FF0025E36ABD4226D0226BE3
:104EF000934241D322E0621D0021D17730321678EF
:104F0000581E8E4214D1031C5A1CF4D168460193DA
:104F1000FFF74BFF38E0226A934235D10023E3616B
:104F2000012323616846FFF739FF019B013BEBE753
:104F30001170201C0193FFF76FFFF6E7226B93427D
:104F400022D10023E36223616846FFF727FF019B1C
:104F5000013B5A1CDAD0221C34320021117001327C
:104F60001678581E8E4201D1031CF2E71170201CE6
:104F70000193FFF751FFEAE75A1CE262A26AD318D5
:104F80001B7873550135AFE7281CFEBD37B5436864
:104F9000027A1B68083252019A18041CD079012346
:104FA000FF21184253D0D371A0686569626801403F
:104FB000002D20D149015218916863618904890C40
:104FC0002162A16A68465160621DD377FFF7E6FE51
:104FD000019B013B5A1C33D0221C34321178581EDD
:104FE000C9B20132002903D001930123137023E0D9
:104FF0001170031CEEE74B01D3189A68A56992045F
:10500000920C22630022626168465D60FFF7C6FE73
:10501000019B013B01E011702B1C591C10D0221C7C
:10502000343201201070621DD17F5D1EC9B2303252
:105030000029F0D0019310706846FFF7B6FE06E035
:1050400068460193FFF7B1FE201CFFF7E5FE37BD70
:1050500037B500236C46E3710734201C0D1CFFF7A5
:10506000B7FD2B681818286000F00CFE211C00F01A
:10507000C3FD2B681818286020783EBD03290BD18A
:105080000D4BB2221B685200985C802149420143BB
:105090009954022168220CE001290CD1064B92227E
:1050A0001B685200985C80214942014399540221B7
:1050B0002822FF3299547047D808002038B5304B69
:1050C00000240121051C1A201C70FFF7AFF81A20DC
:1050D0000121FFF705F92B4B192001211C70FFF767
:1050E000A5F819200121FFF7FBF8274B2021DA69E9
:1050F00001200A43DA61254B06241A7802431A700C
:10510000234B0F2219789143197019782143197094
:1051100020490C782043087019780A401A701A78D0
:1051200060210A431A701C4B1C4A5A805A78D209D3
:10513000FCD11B48FEF7FAFE1A4C201CFFF7ECFDD1
:10514000201CFFF7FDFD23687F2219780A401A70A2
:105150001A7804210A431A701A890C218A431A8189
:10516000C121114A890050580002000A5050802184
:1051700011601A7802210A431A7001232B7038BD7E
:10518000EC060020D40800200004004058440041F0
:105190003C44004159440041000C004006400000DE
:1051A000D15B0000D808002000E100E00078002872
:1051B00010D0094B01211B681A898A431A811A8B66
:1051C00008210A431A831A8B04210A431A83034BCA
:1051D00000221A607047C046D8080020DC09002071
:1051E0000F4B9A69920B92039A611B680222FF335C
:1051F0001A7298798022524202439A711A7A900761
:10520000FCD5084B081C997A7F221040914301433A
:105210009972997A802252420A439A727047C04624
:10522000D80800200050004110B50B790C1C002B51
:105230000BD1081CFFF7DAFC002804D1094B9A694E
:10524000920B92039A6101200BE000F01BFD211CE0
:1052500000F006FD0028F6D1024B9A69920B9203EA
:105260009A6110BDD8080020F8B50D1C832A16D10C
:10527000CAB242495301CB189C694148AD01204054
:10528000C024A405204398613E48083245195D6159
:105290000B685201D15C70208143402065E0022AF6
:1052A00045D1382000F0A4FC374B344F80260360F2
:1052B00076000023421D036203614361C3614760BE
:1052C0008560C660D3772F32041CC36203631370FA
:1052D000301C537001F086FCA061301C01F082FC90
:1052E000FF232A1C1A405201A062BF18B968244A41
:1052F00007260A40C02189050A43BA60A16862688E
:105300001940126808314901885CAD00B04303269A
:1053100030438854A16862680B405B01A169D318CF
:105320005960201CFFF778FD184BEC5025E0822ACD
:105330001ED1CAB211495301CB189C691048AD0166
:105340002040C024A405204398610E480832451926
:105350005D610B68520199180C798020404220430E
:105360000871D15C7020814330200143D15404E0A6
:10537000002A02D1081CFFF78FFCF8BDD8080020D6
:10538000FFFFFF8F2C05002010780000B0080020E0
:1053900038B5051C0124064BA200D258002A06D0BD
:1053A000211C281C0134FFF75FFFE4B2F3E738BD8E
:1053B0005C00002008B5084B8A00D058002803D0B4
:1053C00003689B68984706E0C9B2044B4901591825
:1053D00088688004800C08BDB0080020D808002030
:1053E00010B50C1CFFF7E6FF00280CD0064BE1B20D
:1053F0001B680831490159184A7980235B421343DD
:105400004B710223CB7110BDD808002070B5CAB211
:10541000134B1448540189015918031959609D68A8
:105420001149083229408025AD02294399609968C5
:105430004026890B890399600368510159180D7939
:1054400035430D715101591889794D06FAD551012D
:105450005918C979CD07FAD50419A068C0B270BD32
:10546000F0060020D8080020FF3F00F038B50C4BB4
:10547000141C1B680D1CFF335A7940210A435A71D2
:105480000021FFF7C3FFA04200D9201C0023A34244
:1054900004D0044A9A5CEA540133F8E738BDC046A8
:1054A000D8080020F006002010B5C9B20C48490108
:1054B00043189A689204920C3F2A08D9141C9A68DF
:1054C000403CA404920BA40C9203224302E09A688D
:1054D000920B92039A6041188868C0B210BDC04612
:1054E000D8080020F0B51C1C2F4B85B01B68061C8B
:1054F0000D1C0292002B51D02C4F3978C9B20029D3
:1055000002D11920FEF7ECFE64233B70284BAA0061
:10551000D058002805D0036802995B68221C984780
:1055200040E0301C291CFFF745FFA04204D2301C8C
:10553000291CFFF73FFF041C291C301CFFF7B4FF98
:105540001C4FE9B24A010191396803928B18FF336D
:105550005A7A01210A4318495A72AB01C9180298B4
:10556000221C01F049FB002C1BD0301C291CFFF72A
:1055700021FF002815D1019B3A6808335B01D3183D
:1055800019794020014319710121D97103995318E8
:10559000FF339A7A01210A439A7202E001204042C5
:1055A00000E0201C05B0F0BDDC090020D40800207C
:1055B000B0080020D8080020F006002013B56C4683
:1055C0000734221C0123FFF78DFF012801D1207829
:1055D00001E00120404216BDF0B51C1C3F4B85B0D8
:1055E0001B680E1C0292002B6AD08023DB019C42B8
:1055F00066D83B4D2978C9B2002902D11A20FEF79E
:105600006FFE642300222B700092002C56D0354D83
:10561000F7B22B6801933B1C0833019A5B01D31846
:105620009B79DB091AD0304B3049186800F046FBF3
:105630002F4B1721584300F041FB3B1C0833019AC4
:105640005B01D318DB799A0708D42A4B9A5D002AAC
:1056500038D1421E002835D0101CEEE7254B002221
:105660009A55251E3F2D00D93F25234AB301D31853
:10567000181C02992A1C039301F0BEFA194A7B01F7
:10568000D318039AA9045A619A69890C920B920360
:105690000A439A613B1C019A08335B01D31802222A
:1056A000DA715979802252420A435A71009B029A58
:1056B0005B1952190093641B0292A6E700980BE055
:1056C000012008E001229A557B01ED18AB69101CFE
:1056D0009B0B9B03AB61404205B0F0BDDC09002091
:1056E000EC060020D80800200000002040420F00F7
:1056F00070110100240500202C05002070B50E4D0E
:105700001C1C8B01ED18281C0E1C111C221C01F006
:1057100073FAF6B20949760189194D618A69084B15
:10572000201C13408B618B69A2049B0B920C9B0382
:1057300013438B6170BDC0462C050020D8080020A3
:10574000FF3F00F0F7B5114B01901B780F1C141CA4
:10575000002B19D10E4B1E78002E01D1151C08E02C
:105760000C4D0D482E888019361901F045FA2E800F
:105770000AE0002D08D0BA192B1C01980021FFF770
:10578000BDFF36182D1AF4E7201CFEBDCE08002000
:10579000CC0800202205002021040020F8B50E1CB2
:1057A00000AF151E012D28D9D31DDB08DB006A468A
:1057B000D21A9546081C01F097FA01306C46400059
:1057C0000323207063700222AA420ED23378002B8A
:1057D0000BD0511CC9B20136A354A94204D00023F6
:1057E00002326354D2B2EFE72A1C0548211CFFF7AE
:1057F000A9FF431E9841C0B200E00020BD46F8BD9D
:10580000CF08002008B5044B00221A70034B04494E
:105810001A88FFF797FF08BDCC080020220500205A
:1058200021040020F0B5204A87B001230026009112
:1058300002A91370051C0296FFF70AFC03AC0927A6
:1058400001903A1C201C311C01F0DFF90223637027
:10585000A023E371FA232372029B0122DB196380E8
:10586000019B62712371104A009B27701670BB4226
:1058700005D1281C211C1A1CFFF764FF11E00B4BFB
:1058800001221A700A4B211C3A1C281C1E80029609
:10589000FFF758FF281C02A9FFF7DAFB281CFFF7C7
:1058A000B1FF012007B0F0BDCE080020CC080020D9
:1058B0002205002070B5CE788AB0051C0C1C022E83
:1058C00008D1C9882348FFF7ADFF031C581E834148
:1058D000D8B23DE000F0D6F9211C00F0A2F9002872
:1058E00003D0C3171B1AD80F32E0012E04D1E2886F
:1058F0001949112A27D823E0032E29D1A278002A9A
:1059000005D11649E2880B78934219D81BE0022A88
:1059100003D1A279281C124904E0012A05D1A279F9
:105920001049281CFFF73AFF12E0032A10D100F0BB
:10593000A9F901A900F085F9A279281C01A9F1E7CC
:10594000D2B2002A00D10A78281CFFF7FBFE012002
:105950000AB070BDCF080020307800002C7800001D
:10596000427800002078000073B5051C48780C1CB4
:105970000B2878D800F098F9081C7728773E430662
:10598000474B686F00206FE0097801AA002903D116
:1059900011705170281C09E0002313705370334BB1
:1059A0001B78012B00D11370281C002102234FE02B
:1059B0008A780023012A04D101AA137053702C4B5A
:1059C000EEE72A4A137049E08E78012E07D1284B62
:1059D00001AA00211E701170281C331C38E0002E13
:1059E00008D1224A01231370224A9169890B890345
:1059F000916138E0A178281CFFF7F2FB33E0281C06
:105A0000FFF758FF30E0281C00211B4A1FE00A78EE
:105A10000020D30628D1281CFFF7BAFCA27815492C
:105A2000154B02241A600A682A23FF33D05C2043F6
:105A3000D0544A20FF30145C01231C4314548A695B
:105A4000920B92038A610EE00C4A281C002101236C
:105A5000FFF754FE07E08A78084B1A60054B9A69F5
:105A6000920B92039A61012076BDC046200400206B
:105A7000CD080020D8080020DC090020D008002034
:105A8000F8B54B4B071C1C78002C00D08EE0494D1C
:105A90002868838B19070DD5201CFFF7FDF82B68AC
:105AA00010201A1CFF32917A01439172424A14600D
:105AB00008229A832B689A8B50071FD504229A8359
:105AC0003E4B1A78002A0AD01A78013AD2B21A70DC
:105AD0001B78002B03D11A200121FEF701FC384B63
:105AE0001A78002A0AD01A78013AD2B21A701B78B2
:105AF000002B03D119200121FEF7F2FB2B68FF33A5
:105B00001A7AD10626D510221A725A7940210A43F0
:105B10002C495A710A786023381C1A4202D1FFF7C7
:105B200023FF01E0FFF780FB002806D02B688022CE
:105B3000FF33997952420A4301E0234B20229A71A4
:105B40002B68FF331A7A500604D540221A72597A0C
:105B50000A435A722968FE230E8C00241E40E1B2CB
:105B6000002E23D0321C012322411A4216D0221CBF
:105B70002868083252018218D079184203D1D279AC
:105B8000DA401A4207D0114BA200D058002809D0A1
:105B900003681B6898470123A3409E430134092CE6
:105BA000DDD103E0381CFFF769FAF4E7F8BDC04621
:105BB000CC080020D8080020DC090020EC060020DA
:105BC000D4080020F0060020FF500041B00800205B
:105BD00008B50248FFF754FF08BDC046CF080020B3
:105BE000014A024B1A60704700500041D80800205B
:105BF00008B500F0F7FF08BD70B544680E1C00251D
:105C0000002C09D02368201C5B68311C98470028B1
:105C100004DB2D18E468F3E7281C01E00120404272
:105C200070BD38B544680D1C002C08D02368201CBA
:105C30009B68291C9847002802D1E468F4E7201CDF
:105C400038BD38B544680D1C002C07D02368201CD3
:105C5000291CDB689847E4682D18F5E72C7038BDDF
:105C600038B544680D1C002C08D02368201C1B6824
:105C7000291C9847002803D1E468F4E7201C00E0C1
:105C8000012038BD064B0122196810B511400548A6
:105C900005D1022404700424447041601A6010BDD0
:105CA000E8090020E009002002B4714649084900D3
:105CB000095C49008E4402BC7047C046002934D0BC
:105CC0000123002210B488422CD301242407A142CE
:105CD00004D2814202D209011B01F8E7E400A1428B
:105CE00004D2814202D249005B00F8E7884201D326
:105CF000401A1A434C08A04202D3001B5C082243FE
:105D00008C08A04202D3001B9C082243CC08A0426E
:105D100002D3001BDC082243002803D01B0901D05A
:105D20000909E3E7101C10BC7047002801D00020CF
:105D3000C04307B4024802A14018029003BDC04608
:105D4000190000000029F0D003B5FFF7B9FF0EBC21
:105D50004243891A1847C0467047C0468446081C0B
:105D60006146FFE71FB500F047FB002801D4002182
:105D7000C8421FBD10B500F0CDFA4042013010BD41
:105D800010B500F039FB002801DB002010BD012018
:105D900010BDC04610B500F02FFB002801DD00202B
:105DA00010BD012010BDC04610B500F0DDFA00287E
:105DB00001DC002010BD012010BDC04610B500F070
:105DC000D3FA002801DA002010BD012010BDC04622
:105DD0009E2110B5C905041CFFF7F0FF002803D170
:105DE000201C00F0EFFD10BD9E21C905201C00F015
:105DF00079FC00F0E7FD80231B06C018F3E7C046DE
:105E0000F8B543024400C50F4E024800240E2A1C78
:105E10009B09000EC90FB6098D4256D0221A002ADE
:105E200000DC83E000281AD1002E00D06FE0580774
:105E300004D00F221A40042A00D00433590137D568
:105E40000134FF2C00D17DE09B015B0AE0B22A1CEB
:105E50005B02C405580AD20720431043F8BDFF2C4B
:105E6000E5D08021C9040E431B2A00DD27E1311C47
:105E70002020D140821A9640721E96410E439B1BF1
:105E80005801D4D59B019F09381C00F067FE421FC2
:105E9000974094425ADC141B1F231B1B3A1C9F4043
:105EA000611C3B1CCA405F1EBB4113430024BEE77C
:105EB000DB08E0B22A1CFF2C04D1002B79D0802112
:105EC000C9030B435B025B0AC2E7211A002941DDCB
:105ED000002822D0FF2CAAD08020C00406431B2912
:105EE00000DDEAE0301C2027C840791A8E40711E80
:105EF0008E4106439B19590199D50134FF2C57D087
:105F0000704901221A400B405B0813438FE7013AA6
:105F1000002AB4D0FF2CA7D189E7002E00D186E754
:105F200001390029E6D0FF2CD9D180E7002A1DD104
:105F3000621CD2B2012A4DDD9F1B7A0125D5F71ACA
:105F40000D1CA1E72A1CFF20002381E75D4BA41A4A
:105F50003B406CE7002946D1611CC8B201282ADD0C
:105F6000FF2925D0F3185B080C1C60E7002C13D028
:105F7000FF2818D08024E404524223431B2A4DDD1D
:105F80000123F31A041C0D1C7AE7002F00D07BE7D5
:105F900000220020002395E7002B3BD0D243002AAB
:105FA000EFD0FF28EAD1331CFF240D1C3FE700226D
:105FB000FF2000234CE7002C5AD1002B77D0002E75
:105FC00000D134E79B19580100D430E73D4A012441
:105FD00013402CE7002C15D1002B2FD1002ED7D049
:105FE000331C0D1C23E7002C21D1002B53D0C943B7
:105FF000002904D0FF284BD01B294FDD01239B191A
:10600000041C78E7002B22D1002ED0D0331C0D1CAD
:10601000FF240CE7331C041C0D1C08E71C1C202566
:10602000D440AA1A93405A1E93412343A9E7FF285C
:106030002ED08024E40449422343DDE7002E00D122
:10604000F5E69A1B500134D5F31A0D1CEFE6FF2438
:10605000002E00D1EBE68022DB08D203134204D0ED
:10606000F608164201D1331C0D1CDB00FF24DEE6CE
:10607000002B0DD0FF24002E00D1D8E68022DB08B3
:10608000D2031342F1D0F6081642EED1331CECE7EE
:10609000331CFF24CBE6331C041CC8E61C1C202741
:1060A000CC40791A8B40591E8B412343A7E7331C00
:1060B000BDE6131E00D0BAE66AE701261AE70126FC
:1060C000DDE6C046FFFFFFFBF0B55F4656464D4696
:1060D0004446F0B446024500C00F85B00F1C760A56
:1060E0002D0E804641D0FF2D26D08024240400218F
:1060F0002643F6007F3D89468B46F90F7C027800E7
:10610000640A000E00918A463CD0FF2834D08023D8
:106110001B041C430023E4007F380193009F434687
:10612000019A7B4049469C4611430F2900D971E0F2
:10613000764F89007F58BF46002E3ED108220223A9
:1061400091469B46D9E75A46341CC24601920199B2
:10615000022937D0032900D1CFE0012900D0ABE0DC
:1061600053460B400022002632E0002E19D10421B4
:10617000012289469346C0E7221C531E9A410232EF
:106180000192CBE701270197002CC7D0201C00F01B
:10619000E5FC431F9C4076235B420021181A0191C5
:1061A000BCE7301C00F0DAFC7625431F9E406D42B0
:1061B00000232D1A99469B469FE70C2303219946FD
:1061C0008B469AE7D446012367463B40FF220026D0
:1061D0007602D205700ADB071043184305B03CBCB9
:1061E00090469946A246AB46F0BD80260023F603B2
:1061F000FF22EDE700220026EAE78020C0030642E6
:106200003BD0044239D1061C26437602760A009B15
:10621000FF22DDE7281A039076016401A64239D3F4
:10622000361B1A2201230120311C5B007600002955
:1062300001DBB44201D8361B0343013A002AF3DCE8
:10624000741EA641341C1C43039A7F32002A27DDAA
:10625000630704D00F232340042B00D0043427010C
:1062600003D52B4B039A1C408032FE2A0BDD012301
:1062700061460B40FF220026AAE706437602760A13
:106280004346FF22A4E7A40101236746660AD2B26F
:106290003B409DE7039F1B22013F03970023C2E77A
:1062A0007E23039F5B42DB1B1B2B07DD0123614623
:1062B0000B40002200268BE7D446C5E7221CDA40BB
:1062C000039B9E339C40231C5C1EA34113435A072F
:1062D00004D00F221A40042A00D004335F0105D5F0
:1062E000012361460B400122002671E79E016246B0
:1062F00001231340760A00226AE78026F60326432C
:106300007602760A5346FF2262E7C04650780000C4
:10631000FFFFFFF74A02430270B55C0A550A4300CB
:106320004A001B0EC60F120EC90FFF2B05D0FF2A05
:1063300008D0012093420BD070BD0120002CFBD16E
:10634000FF2AF6D10120002DF6D101209342F3D18E
:10635000AC42F1D18E4205D0002BEDD1201C441E61
:10636000A041E9E70020E7E74A024302F0B55C0AF2
:10637000550A43004A001B0EC60F120EC90FFF2B11
:1063800031D0FF2A34D0002B16D1604260418446C0
:10639000002A14D0002820D18E4217D1934215DC58
:1063A00004DBAC4212D80020AC4212D270427041E1
:1063B0004042012318430CE0002AEDD194466F427D
:1063C0006F416046002805D1002FE5D070420123BF
:1063D0001843F0BD0020002FFBD148424841404205
:1063E00001231843F5E7002CCBD002204042F0E710
:1063F000002DC8D0F9E7C0464A024302F0B55C0A56
:10640000550A43004A001B0EC60F120EC90FFF2B80
:1064100027D0FF2A29D0002B10D0002A15D194466E
:106420006F426F416046002815D00020002F04D134
:1064300048424841404201231843F0BD6042604158
:106440008446002AECD00028F2D18E4211D070424E
:1064500001231843F1E7002FF7D0704201231843BE
:10646000EBE70220002CE8D1D3E70220002DE4D195
:10647000D1E79342EBDC04DBAC42E8D80020AC422D
:10648000DBD270427041404201231843D5E7C04639
:10649000F0B55F4656464D464446F0B444024600C9
:1064A00083B00F1C640A360EC50F002E41D0FF2E9C
:1064B00022D080231B0400201C43E4007F3E824640
:1064C0008046391C4B007F02C90F7F0A1B0E8B468A
:1064D0003BD0FF2B34D0802212041743FF007F3BB8
:1064E00000215A466A40019252460A430F2A63D855
:1064F0007A48920082589746002C3FD10822022306
:1065000092469846DDE70195404602282AD1019A35
:1065100001251540FF2300246402DB05600AED0716
:106520001843284303B03CBC90469946A246AB466C
:10653000F0BD002C27D10420012282469046C0E7FE
:10654000391C4A1E91410231CBE70121002FC8D0EE
:10655000381C00F003FB431F9F4076235B421B1A4D
:106560000021BEE7032800D1AEE001284FD10198F9
:1065700042461040C5B200230024CDE70C2303207F
:106580009A4680469DE7201C00F0E8FA7626431FD5
:106590009C4076420023361A9A46984691E780241A
:1065A0000025E403FF23B7E75B463C1C01938846C4
:1065B000AAE73C1C8846A7E7250C24043A0C240CC7
:1065C0003F04F6183F0C211C231C794353436F43AF
:1065D0005543FB180A0C9B18B1469F4202D98022F2
:1065E0005202AD1809041A04090C521894011B0C2C
:1065F000611E8C41920EED181443AD012C43230112
:1066000005D5012263080120144081441C434B46F8
:106610007F33002B2DDD600704D00F222240042A97
:1066200000D00434220103D52D4B1C404B4680334F
:10663000FE2B17DD019B01251D400024FF236BE786
:106640008020C003044208D0074206D1041C3C430A
:106650006402640A5D46FF235EE704436402640A41
:10666000FF2359E70198A4010125640ADBB2054024
:1066700052E77E235B424A469B1A1B2B05DD019B9A
:1066800001251D400024002346E7221CDA404B462A
:106690009E339C40231C5C1EA3411343580704D027
:1066A0000F221A40042A00D004335A0105D5019B59
:1066B00001251D40002401232EE701989C0101259E
:1066C000640A0540002327E78027FF03019B3C4322
:1066D000640201251D40640AFF231DE79078000035
:1066E000FFFFFFF7F8B5C20F430244004D02480018
:1066F000240E161C9B09000EC90FAD09FF2800D1FE
:106700007EE0012779408A4258D0221A002A00DC14
:1067100089E000281BD1002D00D075E0580704D077
:106720000F221A40042A00D00433590138D501340D
:10673000FF2C00D183E09B0101225B0AE0B23240D2
:106740005B02C405580AD20720431043F8BDFF2C52
:10675000E4D08021C9040D431B2A00DD2DE1291C52
:106760002020D140821A95406A1E95410D435B1B43
:106770005801D3D59B019F09381C00F0EFF9421F47
:106780009740944260DC141B1F231B1B3A1C9F4044
:10679000611C3B1CCA405F1EBB4113430024BDE784
:1067A0000122DB08E0B23240FF2C04D1002B7ED066
:1067B0008021C9030B435B025B0AC1E7211A002950
:1067C00046DD002826D0FF2CA8D08020C004054339
:1067D0001B2900DDEFE0281C2027C840791A8D40D6
:1067E000691E8D4105435B19590197D50134FF2C72
:1067F0005CD0734901221A400B405B0813438DE7BC
:10680000002D00D07FE77CE7013A002AAFD0FF2CB3
:10681000A2D183E7002D00D180E701390029E2D021
:10682000FF2CD5D17AE7002A1ED1621CD2B2012AF0
:106830004EDD5F1B7A0126D5EF1A0E1C9CE7012264
:106840003240FF2000237BE75D4BA41A3B4065E705
:10685000002946D1611CC8B201282ADDFF2925D0B4
:10686000EB185B080C1C59E7002C13D0FF2818D03C
:106870008024E404524223431B2A4DDD0123EB1AFA
:10688000041C0E1C74E7002F00D075E700220020C6
:10689000002390E7002B3BD0D243002AEFD0FF2803
:1068A000EAD12B1CFF240E1C38E70022FF20002316
:1068B00046E7002C5AD1002B77D0002D00D12DE7D0
:1068C0005B19580100D429E73D4A0124134025E70C
:1068D000002C15D1002B2FD1002DD7D02B1C0E1C36
:1068E0001CE7002C21D1002B53D0C943002904D030
:1068F000FF284BD01B294FDD01235B19041C73E7D4
:10690000002B22D1002DD0D02B1C0E1CFF2405E71C
:106910002B1C041C0E1C01E71C1C2026D440B21AA0
:1069200093405A1E93412343A9E7FF282ED0802489
:10693000E40449422343DDE7002D00D1EEE65A1B73
:10694000500134D5EB1A0E1CE8E6FF24002D00D1CF
:10695000E4E68022DB08D203134204D0ED0815429E
:1069600001D12B1C0E1CDB00FF24D7E6002B0DD021
:10697000FF24002D00D1D1E68022DB08D203134290
:10698000F1D0ED081542EED12B1CECE72B1CFF24B7
:10699000C4E62B1C041CC1E61C1C2027CC40791A21
:1069A0008B40591E8B412343A7E72B1CB6E6131ED1
:1069B00000D0B3E66AE7012515E70125D7E6C04612
:1069C000FFFFFFFB4302590A4300C20F1B0E0020CA
:1069D0007E2B0DDD9D2B0CDC802000040143952BCC
:1069E0000ADC9620C31AD9404842002A00D1081C6C
:1069F0007047034BD018FBE7963B9940F4E7C0463D
:106A0000FFFFFF7F70B5041E3CD0C60F00D044428C
:106A1000201C00F0A3F89E23251C1B1A962B0CDCCF
:106A2000083884406402640ADBB2321C6402DB056D
:106A3000600AD2071843104370BD992B0ADD052266
:106A4000121A211CD1400A1C011C1B318D40691EE9
:106A50008D411543052801DD421F9540164C2C4001
:106A60006A0704D00F221540042D00D004346101C0
:106A70000CD59F23181AFF281AD0A401640AC3B2A8
:106A8000321CD3E7002200230024CFE7E408FF2BC9
:106A900004D06402640ADBB2321CC7E7002C04D0C5
:106AA0008020C00304436402640A321CFF23BDE754
:106AB000321CFF230024B9E7FFFFFFFB10B5041EC3
:106AC00033D000F04BF89E231B1A962B09DC0838B4
:106AD00084406402640ADBB26402DB05600A184386
:106AE00010BD992B0ADD0522121A211CD1400A1C67
:106AF000011C1B318C40611E8C411443052801DDB3
:106B0000421F9440144A2240610704D00F210C40D8
:106B1000042C00D0043251010AD59F23181AFF28F3
:106B200016D09401640AC3B2D6E700230024D3E749
:106B3000D208FF2B03D05402640ADBB2CCE7002A50
:106B400006D08024E40314436402640AFF23C3E7ED
:106B5000FF230024C0E7C046FFFFFFFB1C210123E9
:106B60001B04984201D3000C10391B0A984201D330
:106B7000000A08391B09984201D30009043902A20E
:106B8000105C40187047C046040302020101010175
:106B9000000000000000000070B50E4B0E4D0024F8
:106BA000ED1AAD101E1CAC4204D0A300F358984758
:106BB0000134F8E700F0BAF8084B094D0024ED1A4B
:106BC000AD101E1CAC4204D0A300F358984701340A
:106BD000F8E770BDE8000020E8000020E800002091
:106BE0000401002008B5034B011C186800F016F8DA
:106BF00008BDC046E400002010B50023934203D036
:106C0000CC5CC4540133F9E710BD031C82189342D5
:106C100002D019700133FAE77047000070B5032302
:106C2000CD1C9D430835061C0C2D01D20C2501E01E
:106C3000002D3FDB8D423DD3204B1C681A1C211CCC
:106C4000002913D00868431B0DD40B2B02D90B600D
:106C5000CC181EE08C4202D1636813601AE04868C9
:106C600060600C1C16E00C1C4968E9E7144C2068B5
:106C7000002803D1301C00F025F82060301C291CAE
:106C800000F020F8431C15D0C41C03239C4384420D
:106C90000AD12560201C0B300722231D9043C31A04
:106CA0000BD05A42E25008E0211A301C00F00AF8DA
:106CB0000130EED10C233360002070BDF0090020BC
:106CC000EC09002038B5074C0023051C081C236084
:106CD00000F012F8431C03D12368002B00D02B6076
:106CE00038BDC046F80900200023C25C0133002AE9
:106CF000FBD1581E70470000094A1368002B0CD0C6
:106D000018186946884202D81060181C7047054B55
:106D10000C2201201A604042F8E7034B1360EFE7B2
:106D2000F4090020F8090020FC090020F8B5C0464D
:106D3000F8BC08BC9E467047F8B5C046F8BC08BC15
:106D40009E46704743414C5F580043414C5F590099
:106D500043414C5F5300546F756368205061696E06
:106D60007421002A2020505245535320202A002A03
:106D70002020484F4C442120202A002A2052454CF4
:106D800045415345202A0055546F7563682043617F
:106D90006C6962726174696F6E00546F756368200C
:106DA00073637265656E20746F20636F6E74696EB5
:106DB00075650000000000000000000000000000F9
:106DC000B52E0000794400003544000091290000F0
:106DD00093290000BD2900009D290000AD29000075
:106DE000BD280000D5290000C32B0000C12B0000E6
:106DF000D7290000152A0000512A00009F2A000010
:106E0000B92A00003D2B000000000000003E5B4F4F
:106E10005B3E3E6B4F6B3E1C3E7C3E1C183C7E3CFA
:106E2000181C577D571C1C5E7F5E1C00183C180008
:106E3000FFE7C3E7FF0018241800FFE7DBE7FF3098
:106E4000483A060E2629792926407F050507407F06
:106E500005253F5A3CE73C5A7F3E1C1C08081C1C79
:106E60003E7F14227F22145F5F005F5F06097F016F
:106E70007F006689956A606060606094A2FFA2945A
:106E800008047E040810207E201008082A1C080828
:106E90001C2A08081E101010100C1E0C1E0C303876
:106EA0003E3830060E3E0E06000000000000005F77
:106EB00000000007000700147F147F14242A7F2A93
:106EC0001223130864623649562050000807030055
:106ED000001C2241000041221C002A1C7F1C2A08A1
:106EE000083E080800807030000808080808000004
:106EF00060600020100804023E5149453E00427F78
:106F0000400072494949462141494D331814127FC6
:106F10001027454545393C4A494931412111090766
:106F20003649494936464949291E000014000000E7
:106F300040340000000814224114141414140041B9
:106F400022140802015909063E415D594E7C121176
:106F5000127C7F494949363E414141227F414141AE
:106F60003E7F494949417F090909013E4141517329
:106F70007F0808087F00417F41002040413F017F9A
:106F8000081422417F404040407F021C027F7F0462
:106F900008107F3E4141413E7F090909063E4151AB
:106FA000215E7F09192946264949493203017F019B
:106FB000033F4040403F1F2040201F3F4038403F9C
:106FC000631408146303047804036159494D4300B2
:106FD0007F4141410204081020004141417F0402E9
:106FE0000102044040404040000307080020545480
:106FF00078407F284444383844444428384444285E
:107000007F385454541800087E090218A4A49C78B0
:107010007F0804047800447D40002040403D007F0C
:107020001028440000417F40007C047804787C08EC
:107030000404783844444438FC18242418182424C0
:1070400018FC7C08040408485454542404043F44A5
:10705000243C4040207C1C2040201C3C4030403CD4
:1070600044281028444C9090907C4464544C440034
:107070000836410000007700000041360800020198
:107080000204023C2623263C1EA1A161123A404084
:10709000207A385454555921555579412254547801
:1070A00042215554784020545579400C1E5272129A
:1070B0003955555559395454545939555454580023
:1070C00000457C410002457D420001457C407D1227
:1070D00011127DF0282528F07C5455450020545489
:1070E0007C547C0A097F4932494949323A44444434
:1070F0003A324A4848303A4141217A3A424020786F
:10710000009DA0A07D3D4242423D3D4040403D3C6F
:1071100024FF2424487E4943662B2FFC2F2BFF0994
:1071200029F620C0887E0903205454794100004488
:107130007D413048484A32384040227A007A0A0A73
:10714000727D0D19317D2629292F282629292926E6
:1071500030484D4020380808080808080808382F2B
:1071600010C8ACBA2F102834FA00007B00000814B5
:107170002A142222142A14085500550055AA55AA8B
:1071800055AAFF55FF55FF000000FF00101010FF2B
:1071900000141414FF001010FF00FF1010F010F086
:1071A000141414FC001414F700FF0000FF00FF1477
:1071B00014F404FC141417101F10101F101F1414C3
:1071C000141F00101010F0000000001F101010100D
:1071D0001F10101010F010000000FF101010101001
:1071E00010101010FF10000000FF140000FF00FF3F
:1071F00000001F10170000FC04F4141417101714DB
:1072000014F404F40000FF00F714141414141414FC
:10721000F700F7141414171410101F101F1414146F
:10722000F4141010F010F000001F101F0000001FD9
:1072300014000000FC140000F010F01010FF10FF0C
:10724000141414FF141010101F00000000F010FFA1
:10725000FFFFFFFFF0F0F0F0F0FFFFFF0000000085
:1072600000FFFF0F0F0F0F0F3844443844FC4A4A09
:107270004A347E02020606027E027E0263554941BE
:10728000633844443C04407E201E2006027E0202F5
:1072900099A5E7A5991C2A492A1C4C7201724C3009
:1072A0004A4D4D303048784830BC625A463D3E49E0
:1072B0004949007E0101017E2A2A2A2A2A44445F84
:1072C000444440514A444040444A51400000FF0178
:1072D00003E080FF000008086B6B08361236243686
:1072E000060F090F060000181800000010100030EB
:1072F00040FF0101001F01011E00191D1712003C73
:107300003C3C3C00000000000000000000000000C9
:10731000B52E000079440000E92F0000D1300000B4
:10732000BD3700003D380000C12F0000D52F000000
:10733000BD280000B130000019360000753600008D
:107340001330000045300000773000009F2A000015
:10735000B92A00003D2B00000000000000000000E2
:10736000633C0000293C0000593C00004F3C0000F9
:107370008B3C00004D3C0000000000000B000000B2
:107380000200000004000000FF00FFFFFFFF0B00F1
:10739000000000000A0000000200000004000000DD
:1073A000FF00FFFFFFFF0A00000000000E000000CA
:1073B0000800000004000000FF00FFFFFFFF0E00B8
:1073C0000000000009000000040000001C00000094
:1073D000FF0001000100090000000000080000009B
:1073E000040000001C000000FF000000000010006E
:1073F000000000000F000000040000001C0000005E
:10740000FF00010301030F00000000001400000052
:10741000050000002C000000FF0002000200040034
:10742000000000001500000008000000040000003B
:10743000FF00FFFFFFFF0500000000000600000046
:10744000040000001C000000FF0000010001060015
:107450000000000007000000040000001C00000005
:10746000FF00010101010700000000001200000000
:10747000040000001C000000FF00000300030200E5
:107480000000000010000000040000001C000000CC
:10749000FF000002000200000000000013000000D6
:1074A000050000002C000000FF00030003000300A3
:1074B0000000000011000000040000001C0000009B
:1074C000FF000102010201000000000002000000B4
:1074D00001000000020000000000FFFFFFFF0200AB
:1074E000010000000800000001000000180000007A
:1074F0000200000400040800010000000900000070
:10750000010000001800000003000104010409004C
:107510000000000004000000010000000000000066
:107520000400FFFFFFFF0400000000000500000052
:1075300001000000000000000500FFFFFFFF050044
:107540000100000002000000010000000000000037
:107550000A00FFFFFFFF020000000000160000000D
:107560000200000004000000FF00FFFFFFFF060014
:1075700000000000170000000200000004000000EE
:10758000FF00FFFFFFFF0700000000000C000000ED
:107590000300000004000000FF00FFFFFFFF0C00DD
:1075A000010000000A0000000300000004000000C9
:1075B000FF00FFFFFFFF0A00010000000B000000BA
:1075C0000300000004000000FF00FFFFFFFF0B00AE
:1075D00001000000030000000B0000000400000098
:1075E000FF00FFFFFFFFFF00000000001B00000086
:1075F0000B00000004000000FF00FFFFFFFFFF0082
:10760000000000001C000000060000000000000058
:10761000FF00FFFFFFFFFF00000000001800000058
:107620000600000000000000FF00FFFFFFFFFF005A
:10763000000000001900000006000000000000002B
:10764000FF00FFFFFFFFFF00010000001600000029
:107650000300000000000000FF00FFFFFFFFFF002D
:1076600001000000170000000300000000000000FF
:10767000FF00FFFFFFFFFF000000000016000000FA
:107680000200000000000000FF00FFFFFFFFFF00FE
:1076900000000000170000000200000000000000D1
:1076A000FF00FFFFFFFFFF000000000013000000CD
:1076B0000200000000000000FF00FFFFFFFFFF00CE
:1076C00000000000100000000200000000000000A8
:1076D000FF00FFFFFFFFFF0000000000120000009E
:1076E0000200000000000000FF00FFFFFFFFFF009E
:1076F0000000000011000000020000000000000077
:10770000FF00FFFFFFFFFF00000000000D00000072
:10771000040000000C000000FF000100FFFF0D004E
:107720000000000015000000050000000C00000033
:10773000FF000300FFFFFF00000000000600000044
:10774000040000000C000000FF000001FFFFFF002C
:107750000000000007000000040000000C00000012
:10776000FF000101FFFFFF00000000000300000018
:107770000100000002000000FF00FFFFFFFFFF000C
:1077800000000000020000000100000002000000F4
:107790001400FFFFFFFF02000D0A006E616E00691A
:1077A0006E66006F7666002E00000000000000008C
:1077B0000000000000000000E149000079440000E2
:1077C000C3490000D7490000CD490000B949000075
:1077D00095490000BD4A0000A549000091490000FC
:1077E0000000000000000000494B0000754B000045
:1077F0005D4B0000AD4B0000914B0000694B000059
:10780000454B0000000000000000000000000000E8
:107810008D4F0000714E0000B94D000000000000C7
:1078200041726475696E6F204C4C43000403090477
:1078300012010002EF02014041234D8000010102CC
:10784000030141726475696E6F205A65726F0000A2
:1078500014620000C6610000F46100004E61000087
:10786000F4610000EA610000F46100004E61000074
:10787000C6610000C6610000EA6100004E610000C0
:10788000466100004661000046610000FA610000A8
:10789000B8650000B2650000B2650000A865000090
:1078A00008650000086500009E650000A8650000EE
:1078B000086500009E65000008650000A8650000DE
:1078C00006650000066500000665000040660000D1
:1078D0004300000000000000000000000000000065
:1078E0000000000000000000000000000000000098
:1078F0000000000000000000000000000000000088
:107900000000000000000000000000000000000077
:107910000000000000000000000000000000000067
:107920000000000000000000000000000000000057
:0879300000000000000000004F
:1079380040420F00FFFFFFFF00C2010000000800E7
:10794800FFFFFFFF080B000202020000090400000D
:107958000102020000052400100104240206052487
:107968000600010524010101070581031000100923
:10797800040100020A000000070502024000000797
:107988000583024000000000FFFFFFFF0000000029
:1079980083000000020000008200000000000000D8
:1079A80000000000000000000000000000000000CF
:1079B8000000000000000000D4780000F478000007
:1079C8001479000000000000000000000000000022
:1079D80000000000D0780000000000000000000057
:1079E800000000000000000000000000000000008F
:1079F800000000000000000000000000000000007F
:107A0800000000000000000000000000000000006E
:107A18000000000084000020DD2000004922000052
:107A2800D1390000E53D00001D3E0000714C00000A
:107A3800E15B0000B520000000000000000000002D
:0400000300003EC9F2
�      	                              
            e  �L#x +�K +�H � �##p�\         �K +�HI � �Hh +�K + ИG��F      `   X       JKx )	�Ix	xAɲp� I��ax1ɲpx�)�x	)	�Ix@B��px	xAɲpxx�Bр"K��apGx           D A��i���h$�C`�i#B��h#C`h����i#B���i�@B��KC`�iZ���#�C`���i���h"C`�  @~����pG  ~#Q��B�B�B��@B�B��B�K"p ���pG�Fy   p�h��!�2B&Ѐ ���r#Sp@!K�qPq^hM� .@�C^`^i5@(CXaH`Ha]hH(@�%�(CX`Xh��X` #Qq#q�z��  ��� yp��  �����     �? � #qCqK`�`x"CppG�F�  8�6K !�i 
C�a4K$xCp2K"x�Cpx!Cp/Ix Cpx
@px`!
Cp+K+JZ�ZxR� *��)K!x
Cp�x���&HhQ"@�B �!@��"I)@!C�h�
@* �"�!
@�C"C�h!�
@�B �"
@�J@
C�x"
@px!H
CpXb�!�C��!�C� !�"�v�8�  @XD A<D AYD A  @@   P A$`� ?��������  ��J_��Xi'@ @03�@��"Yh
CZ`	�/{�AK��8"�5��H5BaRi����
CZaYiJ
@Zak�"�qYy�"RB
CZqk��y��� ���    �? ���N3x +�KJdZl��ZdXlJ@Zd�#[ �\@ C�T#3pH'�7�]#@�KZl���B�\l��"I���#�U #3p � ��z   �  �   �? ��0�y " ) �"C�qpG  K�0Zi��Za#r�y�#[BC�qz���pG�F�  �#[BCɲ�rpGp��#"[ �TKJ\l�!@�CF%\d�5@$DUM0&d�%m FU]k@)C�%Ycm �!AU	Mc�%m DU\o"@Zg�#[ �Tp��F�  �����   X  0�6J#Qh �C#CQ`3I�iC�a2H2J����C���h���/K px��,H@x@� (�� �`Xx@� (��(L&HD`Xx@� (�ۂ$#H�D�Xx@� (�ې��$�C���h���LH�b�hH��Մ�M,C���hH��Մ�%,C���h��H�hE���h��� "�`ZxR� *��H
JP`ZxR� *�� #rKr�r�r0��F @ A  @    @  @ ��}
    ���
���������JH8��B�JK�B�
�
L�B�� #��B���X3
`�� ���B�� !�����    \   �  \     3J8�h3�Ѳ )�0Kx#@/K
�h.I�B�`�`,I9 )��`#h����#�C(K�`"K[hG��)�b� ��� �Z�#K�"�#I�`"
`"I
`�"�`�aK J�!Z`J	j  
Cb "�`"`�h �GK (�"px *�   �� ����x +�� �� (��  �� �����F    8 @�  5�sH�  � � D A�D A�D A� ��  {   ����� �����KL#`��b� !h��P� � P A  p��� �;�@ jF#0Sppv#�:xZ  )�(iF #����@�p��B��hF�R3��  ���Jhx�I'�7 8rpSx�H�Np�x3��x3�	C3�y�K�Qy�	C��y�I��y�C
�@"zq�O:x�O8xC�H�FbE ��� ܀!I �B �n�	܁* ђ�* ѕ�* �d��#[ �B ��� �X��#� �B �W�K�B �O�R�#�Bi���#� �B"Ј#�BiР#� �B �@� ����1�(h������;�K�B �/� �1�K�B ��K�B �)�3�kq"�3�
+��"(h�B�
���~I�3�
+��C"(h�B�
���yI�3�
+ ��3�۲+� +�+ ���
�(hҲpI�"�oI �Y�;�"(h�B�:������
�(hiIҲ�����3� +q��~� ������)�"��aI #�(h"��^I "
��P"@\Jp� 0@��( ���x�3[��y *Л ����(h"���"�CNJɲp�!@�1� ) У�� ) џ��) ٛ�x�3[� *� "Zq��!Yq���#�C<KҲp�"
@�2� * Ѐ�� * �|��* �x�x +��3[��y�j�� "3[�q�3[��y_]��@"3[��q�"3[���3[��y�J��"3[�q�3[��y�=�� "3[��q�"3[�q0��F�   }   �   �   �   �       !   �!  !"  \     L  <  @  ~   |   �"(h�B�
���I #���� ����� !�������FH   �K"��h���� ��F  �KlF4h!"��7� x��F  �L ���  �B�"hH#�3�\#@�  �Jh#"���� �  p�L 
���� #�B� h1*���p�  ��L ���� #'4�B
� ,�)"8h����$-��3���F  ��GK�"ZaKd"���F D A�   (�KJ`Kp� (�JK`pG�  �  �   �  0�
I��	x )*�*� h�*� � � xR ��;��B�!@	)�0%)C �71p 	;���0#px#Kp
 ��p
 �pK2h�h�I	h�h�����0��F�   �  r����J`h���ChGpG�F�  
K� *	��:��� *р"	K�aK� *��:��� *�K"`pG�    D A�   �D A𵑰��J1�1�Q�Q�`�`��K�H�hz%RR� RX�I`�h��bC`�I $
`�J`�L%p�L�M#h(i@!�G (��K"`�Kd"��K "`�K`�K�M�O`*h;h�B�ҽKhx�* � �#* ���N3x +вK�Ih"�h����KxS+?�;h*h�BٯH2*`��Khh1`�N�B�2` �3`�H2h h� ���3h)hZ*`�Jh�`�Jp+h;+`�Kh:`�K�Jxh�B
�"h�H� h�i�G (ВK"`�Kd"��F��R+щH�J#h hh[i��G�K�"Zad"�K
�O+сK�Jhhp}�H+�}K�Jhh�u�W+�yK�Jhh`m�o+�uK!h�h+�rK|Hh!�`����\�w+�lKwHh!h`��G+�sKh����vKh���b�tKx + �C�cK hh�G=�T+�#3p^Khd�N+�3x +�ZKaIh"�h��f� #3p'�V+W�#hcI�h"��[�#haI�h"��U�`M#h)�h"��N�#h]I�h
"��H�#h)�h"��B�IOJMWI #9`+`:(h^`x� +�h3`��;N*h3h�h��)�3hII�h"��#��)`II9`8JhX`x +�5Kh2`��3h*h�h���3h�h1I"��1JX+�!N#M6hh*h� �B
�MX�a7H(�M(}���[��K3Ih�h��Y+ �}�hK0I *�h`p�Mhhkh
N�%�C�s` *e�(K	M+�N3}��� #M-h���BG�"MN5�J�p   @ A@  8  4  �  0  �  D  �D A�   (  ,  <  �   �  �  �  $   D A�   �  �   �  �  �  �  �  �  ����  �   D�������B�Н FY3NQ��@N5}��՝ I@���<K=Ih�h.�Z+/�;Khh &��B�(x1 ��5��2K4Ih"�h��V�#"2@6	01	* �1 �jF�T;��#h��h"��A�#h'I�h"��;�&Kz"p%K "`%Kx�B-�K#Ih"�h��*�%�09ȲK	(�h*C`�A9)�h7:1�a9)�hW:
C�,*�Jh`�I
p "`Kh2`
Kh2���F @ A�  �  �  �  �  0  �  �   �  <  ,  �K x$CpK"x�Cpx!CpIx Cpx
@px !
CpK!j
CbKJZ�ZxR� *���"HI���0�J #pJpJpJpJpJp�JD A5D AKD A  @  @@    B*�  �    �  �       ���H��/� ��F  BK~@�pG�F  B����� (��H�� ���F  B����� #�B�����#;ZBSA�p�
F�B� x����4��(p������ p �
X@K@ �Z	H@��pG�F  �� $&�B �����K��x� +�1����
K� *�Jx* )��j)p�/��9�4����0 � ��  �    �>N�� "�2p<K�B�"�:I�p#BЀ4�C��~�3x�� +� %5p��v�3x���B6�C(�q(S�(��# � ��U� ���R� ��%�C����L�� '�$J� +�!I�	x )����=�9���y�= -�� 
����1�����.���>�3x +
�5p��;	x���3�����(� ��3۲�1 ��<� ,�� ������K%p � %(��    �  �8L�� #�#p�B�#�4J�4Jd&pC ����2O���� (� /�?�� /�> .��M�%����#x +8����(�(=� ����9��!0�����!���#x� +�����������#x?��+
���B�3x�B��Crx۲�B� ���� #� �����"x *� &&p�+��k�2ݲ���J #p&0��  �     5 � #�B��\�T3�����B�p3��pG #�\3 *��XpG���F����FpG���F����FpG	Arduino LLC Arduino Zero       @A#M               @   �            �  !    U  o  �    v   Dec 20 2016 15:36:39 X

 Y

 Z #

 > 2.0    =  Y  u  �  �  �  �  [Arduino:XYZ]   !B c0�@�P�`�p�)�J�k���������1s2R"�R�B�r�b9��{�Z��Ӝ�����b$C4 �d�t�D�Tj�K�(�	������ō�S6r&0�v�f�V�F[�z��8�����׼��H�X�h�x@a(#8���َ��H�i�
�+��Z�J�z�jqP
3:*���˿���y�X�;���l�|�L�\",<`A�������*��h�I��~�n�^�N>2.Qp���������:�Y�x�����ʱ��-�N�o�� �0� P%@Fpg`������ڳ=���^���"�25BRwbVr�˥����n�O�,�
��4�$��ftGd$TDۧ������_�~��<��&�6��WfvvF4VL�m��/�ș鉊���DXeHx'h���8�(}�\�?����؛����uJTZ7jz�
��*�:.��l�Mͪ����ɍ&|ld\EL�<�,���>�]�|ߛ���ُ��n6~UNt^�.�>��        	C  �2	    $ $ $ $ � �	 
   �@  @    �    i   A       